:020000021000EC
:1080000000400020C9100200051102000711020003
:108010000000000000000000000000000000000060
:108020000000000000000000000000000911020034
:1080300000000000000000000B1102000D11020002
:108040000F1102005DBD0100851702000F11020033
:108050000F11020000000000411102000F11020088
:108060000F1102005D1902000D1602000F1102002F
:108070000F1102000F1102000F1102000F11020078
:108080000F1102000F1102000F1102000F11020068
:108090000F110200890B0200750E02000F11020081
:1080A0000F1102000F11020000000000000000008C
:1080B00000000000000000000000000000000000C0
:1080C0000448054B10B5834203D0044B002B00D06D
:1080D000984710BDC8200020C820002000000000E4
:1080E00006480749091A8B10C90FC91810B549105D
:1080F00003D0044B002B00D0984710BDC8200020AF
:10810000C82000200000000010B5074C2378002B89
:1081100009D1FFF7D5FF054B002B02D0044800E042
:1081200000BF0123237010BDE020002000000000EC
:1081300054910200054B10B5002B03D004490548AB
:1081400000E000BFFFF7CCFF10BDC04600000000FC
:10815000E420002054910200402292029A1A924692
:108160007047C046154B002B00D1114B9D46FFF7C1
:10817000F3FF00218B460F461148124A121A0BF0EA
:1081800077F80C4B002B00D098470B4B002B00D0FE
:1081900098470020002104000D000B480AF0E4FE7F
:1081A0000AF02AFF200029000FF036FB0AF0FAFE41
:1081B0000000080000000000000000000040002057
:1081C000C8200020D42E0020D12F02007FB504004B
:1081D0002372002362606A4608A806780AAD09A8DF
:1081E00000782D78A0722373284381331381216096
:1081F000507266722000E5720CF07EF801280DD0F6
:1082000025681649F03503A802F006F87822280000
:1082100003A903F0ADF903A80CF033FB00250120FE
:1082200001F0E2FD0223217A6068009502AA03F0C2
:1082300049FAA8420ED0257325680949F03503A8EC
:1082400001F0EAFF7822280003A903F091F903A8BE
:108250000CF017FB200004B070BDC046A08A0200DD
:10826000B38A020070B5C37A0600002B28D0013B08
:10827000581E83415842424B1840C0235B01C0182E
:10828000B37A002B00D100010023414350438C0AF4
:10829000850A9C4203D0210009F074FC0300727A25
:1082A00001335B08022A0ED9032A24D000200100E2
:1082B00080234C4368439B01E418201A800B70BD57
:1082C000E8200002DCE7402B2DD9802B30D9C02BD1
:1082D00032D980225200934231D93832934231D977
:1082E0006232934233D90020264A01009342DFD8FC
:1082F00012301831DCE7432B2CD9852B2ED9C82B13
:108300002FD98522520093422ED9443293422ED344
:108310004C3293422FD900201A4A01009342C7D809
:108320002B303731C4E7DF20F92140004900BFE797
:10833000852115488900BBE714481549B8E79C21F9
:108340001448F7E7FE2070214000FF31B0E7FB2022
:10835000D221ADE7AE208121FF30EBE78A210E4824
:10836000E8E70E480E49A3E70E480F49A0E7DE20D4
:108370007821FF30E9E728200221FF30E5E7C046F9
:1083800000ECFFFF9A020000D10200007B03000016
:108390003F020000FE030000C10200006303000072
:1083A00053020000DF03000082020000F0B51E004F
:1083B000174B87B01B78039204AA137001230400A3
:1083C00000270291017A0093406803F07BF90423AF
:1083D000217A6068009705AA03F064F90500B842A5
:1083E00003D02773280007B0F0BD02AB9989DA8962
:1083F000029B002B00D01980039B002B00D01A8019
:10840000002EEFD02000FFF72DFF3060EAE7C046D6
:10841000C78A020010B50400034B036040300CF023
:1084200030FA200010BDC046A87E0200F0B585B02D
:10843000009003910BF0E6F9164C002527000190FF
:10844000019B9D4220DA009B5E5D30000AF0F6FD44
:10845000002817D030000AF0F9FD029030000BF030
:1084600035FAFF231840039B18186B461B7A6138B6
:108470000078002B02D00BF033FAC0B22070013527
:108480000134DDE72670FAE700233800019ABB5477
:1084900005B0F0BDFA2D0020F0B585B00090019137
:1084A0000BF0B0F9184C002527000290029B9D426A
:1084B00023DA009B5E5D30000AF0C0FD00281AD070
:1084C00030000AF0C3FD039030000BF0FFF9FF21EC
:1084D000014001980BF0F2F8019BC01A6B461B7B20
:1084E0006130C0B2002B02D00BF0FAF9C0B220709C
:1084F00001350134DAE72670FAE700233800029AE2
:10850000BB5405B0F0BDC046E62D002013B50423D2
:108510000022010001A801F0EFFE054901A80CF0BE
:108520001CFA040001A80CF0ACF9200016BDC046EE
:10853000FC20002007B50200684609490CF01DFA2E
:10854000694601A80CF0F2F901A906480DF065FB97
:1085500001A80CF096F968460CF093F907BDC046E7
:10856000FC200020A828002007B500680749043037
:10857000FFF75CFF010001A801F04EFE01A8FFF724
:10858000D9FF01A80CF07DF907BDC046832000206B
:1085900013B50B68040002229B5E01A8042201F0BF
:1085A000ABFE019B0649181DFFF776FF0100200076
:1085B00001F032FE01A80CF064F9200016BDC0469F
:1085C0008320002010B588B01C4907A803F008FDDF
:1085D00007A904A801F030FE07A80CF0E2FA04A9EC
:1085E00007A80CF0A3F907A8FFF790FF040007A85D
:1085F0000CF047F9002C1CD004A905A80CF096F942
:1086000005A906A8FFF7C4FF0223002206A907A8B0
:1086100001F072FE079B0222191D09480BF020F998
:1086200007A80CF02EF906A80CF02BF905A80CF001
:1086300028F904A80CF025F908B010BDA8280020DE
:10864000802000200023F0B59DB005AE170004AADD
:108650005380D3800693079333800893130004005C
:1086600007AA0233019106A900F0D8FB2000079960
:108670000BF08AFE069905B2200000F01BFC642175
:1086800009F080FA03B2029304AB5988200000F08D
:1086900063FC04AA03B2063231000393019808ABCD
:1086A000FFF784FEC44915A801F0B6FD6421280037
:1086B00009F0F2FA03B2190014A801930CF0FDF8C6
:1086C00014AA15A916A80CF058F9BC4917A801F06E
:1086D000A3FD17AA16A918A80CF04FF964212800C9
:1086E00009F0C0FB0CB22100002D03DC64216842BC
:1086F00009F0B8FB19A80CF0E0F819AA18A91AA8F3
:108700000CF03BF9AE491BA801F086FD1BAA1AA983
:1087100009A80CF032F91BA80CF0B3F81AA80CF059
:10872000B0F819A80CF0ADF818A80CF0AAF817A822
:108730000CF0A7F816A80CF0A4F814A80CF0A1F8F7
:1087400015A80CF09EF89F4915A801F065FD64215D
:10875000039809F0A1FA01B214A80CF0AEF814AA1B
:1087600015A916A80CF009F9944E17A8310001F0CC
:1087700053FD17AA16A918A80CF0FFF8210019A894
:108780000CF09BF819AA18A91AA80CF0F6F88E4953
:108790001BA801F041FD1BAA1AA90AA80CF0EDF8CC
:1087A0001BA80CF06EF81AA80CF06BF819A80CF0C6
:1087B00068F818A80CF065F817A80CF062F816A86D
:1087C0000CF05FF814A80CF05CF815A80CF059F840
:1087D0007E4919A801F020FD029918A80CF06DF847
:1087E00018AA19A91AA80CF0C8F879491BA801F011
:1087F00013FD1BAA1AA90BA80CF0BFF81BA80CF0BC
:1088000040F81AA80CF03DF818A80CF03AF819A88E
:108810000CF037F86F491BA801F0FEFC08991AA864
:108820000CF04BF81AAA1BA90CA80CF0A6F81AA871
:108830000CF027F81BA80CF024F801F0A9FC6649FD
:1088400002900FA801F0E8FC01990EA80CF035F891
:108850000EAA0FA910A80CF090F8310011A801F091
:10886000DBFC10A911AA12A80CF087F82100002D3A
:1088700003DC6421684209F0F5FA13A80CF01DF836
:1088800013AA12A914A80CF078F8544915A801F0FD
:10889000C3FC15AA14A916A80CF06FF8089917A81C
:1088A0000CF00BF817AA16A918A80CF066F84C499A
:1088B00019A801F0B1FC19AA18A91AA80CF05DF8C2
:1088C00002991BA80BF0F9FF1BAA1AA90DA80CF01E
:1088D00054F81BA80BF0D5FF1AA80BF0D2FF19A86B
:1088E0000BF0CFFF18A80BF0CCFF17A80BF0C9FFB7
:1088F00016A80BF0C6FF15A80BF0C3FF14A80BF0C9
:10890000C0FF13A80BF0BDFF12A80BF0BAFF11A80F
:108910000BF0B7FF10A80BF0B4FF0EA80BF0B1FFDF
:108920000FA80BF0AEFF00253B682E4C02229B5E89
:10893000AB4222DDEEB22C4B00223100200000F0D1
:10894000FFFC3B685B191B79502B12D005D8482BD4
:108950000DD04C2B0FD00135E6E7542BFBD1099BF2
:10896000002231002000043300F0EAFCF3E70A9B08
:10897000F6E70B9BF4E70C9BF2E70DA91BA80BF0A5
:10898000D5FF1BA8FFF7F0FD1BA80BF07AFF200016
:1089900000F076FC0DA80BF074FF0CA80BF071FF33
:1089A0000BA80BF06EFF0AA80BF06BFF09A80BF0E9
:1089B00068FF1DB0F0BDC046C98A0200CF8A020020
:1089C000D18A0200D48A0200DA8A0200DE8A02001A
:1089D000E48A0200E98A0200EE8A0200F18A0200BB
:1089E000F58A020028210020F78A0200F7B5174D0A
:1089F000280000F0D9FC164C2800220015490FF081
:108A0000AAF8154F002238001E210CF008FE134E64
:108A1000022330000322642103F064F822003000B6
:108A20000F490FF098F87A233A00290000930D4877
:108A3000330000F05DFC0C4D0C49280001F0ECFB0C
:108A4000280022000A490FF086F8F7BD40250020D3
:108A500000200020758A0100102100200021002044
:108A60006943020028210020FC200020068B020020
:108A700083480200CB23144A9B0010B5C2501C331C
:108A80000400C0180BF0FDFED1239B00E0180BF092
:108A9000F8FE20009130FF3002F00AF82000693023
:108AA000FF3002F005F82000F03002F073FB2000E8
:108AB000D03002F0F3FE2000643008F063FA201D8D
:108AC000FFF7A8FC200010BD34830200F0B52D4D47
:108AD0009BB0280000F01EFD2B4E3921300003F022
:108AE0006FF930200FF042F81023040009210093A1
:108AF0000122264B0BF05FFE2100254802F062FEAA
:108B0000002805D020000BF070FE20000FF02AF89E
:108B1000300003F069F900221E4C11001E4B2000AA
:108B200000F00EFC200000F0ABFB03230024012723
:108B30001A4E0393023332002900059402930193E5
:108B400000930497E7330CA800F0E4F80194009434
:108B5000522332002900FA24029708A8FFF736FBB7
:108B6000A4000F4907A801F057FB07AA08A90CA801
:108B7000FFF768FD07A80BF084FE200001F034F930
:108B8000EFE7C0464025002090280020C585010061
:108B900010260020282100200B8B0200102100202D
:108BA000802000207FB5134B03AA1B78002613708A
:108BB0006B46DE73437A0400012B15D00125017A40
:108BC00000952B00406802F07DFD0F222B00217ADA
:108BD000606800966A4402F065FDB04207D16B46BA
:108BE000DB7B602B03D06072607A04B070BD65726D
:108BF000FAE7C046118B0200F0B504000126444B91
:108C000089B01B7802AA0120137301F0EDF8217AD4
:108C10000096330005AA0027606802F053FD220089
:108C2000217A009706236068103202F03BFD0500B0
:108C3000B84203D06772280009B0F0BD300001F0DF
:108C4000D3F88E2302AA1373217A0096330005AA63
:108C5000606802F037FD2200217A009512236068D7
:108C60001632029502F01EFD051EE3D1300001F020
:108C7000BBF8A12302AA1373217A0096330005AA38
:108C8000606802F01FFD06AF217A009533003A00BC
:108C90006068039502F006FD029B051E18D13000A6
:108CA00001F0A2F8E12302AA1373217A009633009F
:108CB00005AA606802F006FD1122217A02A800953B
:108CC00012180723606802F0EDFC051E02D0039B1A
:108CD0006372B0E723003A7828331A7002AB5A7CEB
:108CE0009B7C1B02134363852300FA782C331A7094
:108CF0000F227B7939791A4009010A43E285BA7952
:108D00001B09120113432386FB793234237092E747
:108D1000138B0200F0B59C4604000D0025606546EB
:108D20001600257200256660F22689B012A8007828
:108D300065720390039D0EABA57306AD2E700236CF
:108D40001978AE7001362E71EE3EA1723140697015
:108D50001C210FAB1F7810AB1B78E77223739B00AD
:108D60000B407F011F43032311AA127813A8007838
:108D700062731A40039BE073800008405B01184354
:108D80003A436871EA702000FFF70CFF01280FD00A
:108D9000002326681E496372F03605A801F03CFAEC
:108DA0007822300005A902F0E3FB05A80BF069FD6D
:108DB000002606232A00217A6068009602F082FCD1
:108DC000B0420ED0256813496672F03505A801F04F
:108DD00023FA7822280005A902F0CAFB05A80BF0A7
:108DE00050FD2000FFF708FF00280DD025680A4934
:108DF000F03505A801F010FA7822280005A902F044
:108E0000B7FB05A80BF03DFD200009B0F0BDC04642
:108E1000A98A0200BC8A0200158B0200F0B589B055
:108E20000393234B05AD1B7804002B70437A0F008E
:108E30001600012B05D0FFF7B5FE012835D100F053
:108E4000D3FF01232A00217A0093606802F03AFCE4
:108E5000002306AD00932A00217A6068083302F0EF
:108E600021FC002803D00023637209B0F0BD002F5D
:108E700008D02B786A781B0312011343AA781209D1
:108E800013433B60002E08D0EB782A791B031201B4
:108E900013436A79120913433360039B002BE4D018
:108EA000EB88039A5BBA1380DFE701204042DCE7DE
:108EB000278B020070B50400436B244A5B109B189B
:108EC0009E1076430D001A22815E72134A431820C9
:108ED000215ED21059434910521880219214090280
:108EE0005218E18A5143C913081E2AD02020225E5D
:108EF000F61256431E20225E53431C22A05E5B00E6
:108F00009B1900049B10C3181B1311485D1968437B
:108F1000104BC01816D4400008F034FE020024257F
:108F2000635F90084343D10849432225605F5B1388
:108F30001B182620205E490B484300131818001107
:108F4000801870BD08F01EFE4200E8E70006FFFF33
:108F5000CBF3FFFF000050C3436B244A10B59A18AF
:108F60008B038021C9015B182E24015F0905591A62
:108F70003024035F80245343CB1A01002C3109783D
:108F800024025143C9120919040032342478DB1336
:108F900064B2624392124A438021921289035218AA
:108FA0002A24015F28304A438021890152189213F4
:108FB0005343DA1352430178D2114A4312119B1AD8
:108FC000C8225205934202DCDA43D2171A406424C5
:108FD0001313980A4443FA209B059B0D80005843C5
:108FE0000A21800A08F0CEFD201810BD00D4FEFF33
:108FF000F0B58BB00F00060014000021182204A861
:109000001D000AF035F96B4680205F7418746B0000
:109010000B2D26DC002D09D0220004A96519147837
:1090200001328870CC7002319542F8D100227A2149
:1090300000927068023304AA02F044FB041E0DD0B3
:1090400035680949F03503A801F0E6F878222800D0
:1090500003A902F08DFA03A80BF013FC20000BB05B
:10906000F0BD16246442F9E7298B020010B5044BC9
:10907000C154C21881210123FFF7BAFF10BDC046B9
:109080000F04000010B5074BC35C082B05D100236B
:10909000A1211A00FFF7ACFF10BD0023A0211A0088
:1090A000F8E7C046110400000F2373B519406B4662
:1090B00012011143C9B2DE1C04003170F0290DD039
:1090C00005680A49F03501A801F0A6F878222800C1
:1090D00001A902F04DFA01A80BF0D3FB32000123E5
:1090E000D5212000FFF784FF76BDC046378B0200F4
:1090F000F7B56B46012700250400DE1C574B3900ED
:10910000C7548068357002F03FFD380000F06CFEF7
:109110002900A06802F038FD0A2000F065FE390041
:10912000A06802F031FD2B002A00AE212000FFF7DD
:109130005FFF051E0FD024684949F03401A801F0F3
:109140006BF87822200001A902F012FA01A80BF0B6
:1091500098FB2800FEBD022120000BF04AF9051EF5
:1091600003D024683F49F034E8E70F2201002000D3
:10917000FFF79AFF3F2120000BF063F93A4B2000E4
:10918000E25C3A4BE15C0BF067F92B002A00290006
:109190002000FFF72DFF364BE35C002B07D1143383
:1091A000337032003B008D212000FFF721FF0021AA
:1091B00020000BF001F9051E03D024682D49F0347E
:1091C000BCE701007F2220000BF0FFF829000722F6
:1091D00020000BF004F92000FFF754FF051E03D018
:1091E00024682549F034A9E720000BF01AF9051E80
:1091F00003D024682149F034A0E712233200DA2199
:1092000033702000113BFFF7F3FEFF212000FFF732
:109210002DFF174BE35C002B0FD1F1333200D92126
:1092200033702000F03BFFF7E3FE30233200337051
:10923000DB2120002F3BFFF7DBFE0023B0211A00CB
:109240002000FFF7D5FE042120000BF0D2F8012109
:1092500020000BF0D9F805007BE7C046150400009C
:10926000438B02004F8B0200130400001204000025
:10927000140400005E8B0200678B0200708B0200FA
:109280007FB5184E0500815D00290DD17F220BF0BE
:109290009CF8041E23D10100072228000BF09FF840
:1092A000041E1CD10123AB5540232B7300232A003D
:1092B00000937A210C4B68680C3202F003FA041E0A
:1092C0000DD02D680949F03503A800F0A5FF7822DC
:1092D000280003A902F04CF903A80BF0D2FA2000F1
:1092E00004B070BD1504000001040000798B020079
:1092F00010B504002160210002A8A36000780B4B88
:1093000062600C31E054002220000BF0B9F8084BE9
:10931000084A2000E252084A0233E2508022074BFA
:109320005200E252FFF7E4FE200010BD0D040000E1
:109330000E0400000480FFFF07080A041404000064
:10934000F0B587B0039018000C00160004930AF0E3
:1093500059FA00250590059B9D421EDA049B5A5D33
:109360000023202A02D91300203BDBB20D4A0399C7
:10937000DB009B18771CFFB2009332002300039898
:109380000C310BF087F80F2F04D90134E4B2072C0D
:1093900004D800273E000135DDE7059D280007B011
:1093A000F0BDC046A87B02001423F0B5040093B0C2
:1093B000192200931821043002F058FE23002500E2
:1093C000260064331800B43513211093B83607F023
:1093D000E5FD28000CF09EFC00221E2130000CF060
:1093E0001EF92000D03002F079FA2300F033072173
:1093F0001800454A119301F0F5FE200000270123D3
:1094000069301A0011210097FF3001F05DFB200048
:109410009130012302221A210097FF3001F054FB02
:109420002000B930022201210323FF3002F022FB89
:10943000300001F04FF9E4235B00E050300001F010
:109440009DFBE6235B00E0500100E4222000520077
:10945000D130119BA2580095FF3001F091FC200003
:10946000E13029000822FF3002F09CFF7823200021
:109470000F93013B0E93033B0D93013B0C93013B78
:109480000B93013B0A93013B0993013B0893013B7A
:109490000793013B0693013B0593013B0493013B7A
:1094A0000393013B0293013B0193F930013B652299
:1094B00000936421013BFF300CF0D2F8CB239B00DA
:1094C0002900E01803F02EFFD4239B00E0180921A7
:1094D00002F0E0FBDE239B00E75010980321277089
:1094E0000EF070F823002200200008499C33A032BF
:1094F0001C6082C2064A02215A618030012207F0B4
:10950000D1FE200013B0F0BDB07E0200C3440200C3
:10951000AD4402000278F0B501231700040091B0B9
:109520001F401A4263D10300D0331800049300F0A7
:10953000CBFA00F0DDF930200EF018FB05001030FA
:109540000BF03EFA280024300BF0C2F86A4B1820CA
:109550002B600EF00BFB0600684B082239000460FC
:109560000C300E930F9709F083FE0EA90822301DD0
:1095700009F0D6FD624B2900736112230498AE6096
:10958000EF60AB802F62EF6202F01CF9002805D07B
:1095900028000BF02AF928000EF0E4FA0123260037
:1095A0002278B43613432370564930000CF0B8FBD0
:1095B00000255549039030000CF0B2FB2F000590B8
:1095C000642000F011FC029523006933FF3318007A
:1095D00006930BF01FFC00280BD1039B002B12D12C
:1095E000059B002B0FD14949494800F0C1FC11B03F
:1095F000F0BD20009130FF300BF00CFC0028ECD0C7
:10960000029B182BE9DC20006530FF2339B22AB217
:10961000FF3000F0C9FE322000F0E6FB029B01376C
:109620000133FFB20293052F02D100270135EDB2BD
:10963000029B192B0AD0039B002BC5D03000314967
:1096400002F042FE03980EF08DFA02E0039B002B1D
:10965000F4D1059B002B02D018000EF083FA2B49A1
:109660002C4800F085FCCB239B00E3180793DE23F6
:109670009B00E3580893002B36D100F059F8010005
:109680000BA800F0C9FD0AF0A2FF08900AF09FFFA6
:109690006B460990198C0DA80BF00FF9099B0EA8C9
:1096A000190C0BF00AF90EAA0DA90CA80BF065F91C
:1096B0000EA80BF0E6F80DA80BF0E3F801230CAAB6
:1096C0000BA907980093049B03F086FE0CA80BF0EF
:1096D000D8F80BA80BF0D5F8CD239B00E3580893DE
:1096E000DE23089A9B00E2502100069A0798F03189
:1096F00004F062F868E7C046FD030000354502004B
:10970000F54402008B8B0200968B020000200020A3
:1097100008000020001C0020BFF34F8F024B034ABB
:10972000DA60BFF34F8FFEE700ED00E00400FA05BA
:10973000F0B58BB003AF19223800154909F0F0FCE1
:109740000023144D05266B7180235B055B6E2C0096
:109750000093012301933100009808F099FA080062
:10976000019908F00FFA0522009B56431B1A00933B
:10977000019B534301932B1B5343FB181B5C013C80
:109780006371054B9C42E6D102480BB0F0BDC04668
:10979000DC8B02000E2E0020092E0020F0B595B0C3
:1097A0001822002104000EA809F062FD13210EA862
:1097B0000EF018F803210EA80EF0B7F8464B1B6800
:1097C000002B00D10133DBB2009300210123434A77
:1097D00009A807F0D7FEFA239B009C429B411C403E
:1097E00072B63F4B64211E683E4B20000593052551
:1097F00008F052FA6843503030180A2106902000D1
:1098000008F04AFA0A2108F02DFB6943503171181B
:10981000200007910A2108F025FB69435031711897
:10982000802600240891B601009B002B52D004AD85
:109830000027032C02D180260024B6016B682A4A37
:1098400002936300D3180022019258780299095CB0
:10985000039119788C46102160460141039801421A
:1098600004D0012090400199014301910132063357
:10987000092AEAD1019B2A68D9431C4B09011940E6
:10988000029B934224D1312F22DC002109A80EF043
:1098900005F9FA23139A0F99DB001068014219D0D9
:1098A000013B002BF9D1FA23013401377600E4B2F1
:1098B0005B009F42BDD1043508ABAB42B8D1064B2B
:1098C0001B68002BB0D0009B013BDBB20093ABE7E1
:1098D0003143DBE7FFF720FFC0280020F0FF000046
:1098E000042000202B8C0200F58B0200F01F0000EA
:1098F000F8B50023124C23600AF05BFE002808D064
:10990000042120000AF051FE002801D00D4B2360F5
:10991000F8BD0123A12704210B4A0C4D13602368D5
:10992000FF0068606E68002EFCD0D6591B0201391A
:1099300033430029F5D1236001235360E8E7C04693
:10994000BC280020ED5EBC0B00D00040FCD00040E5
:109950000B4B70B51C68002C10D0656D00F018FC26
:10996000A36C002901D1834206D820000AF078FEBA
:10997000200004490AF064FE2C00ECE770BDC046EC
:10998000C8280020E8280020F0B595B007932A4B9E
:1099900004AC1E68049005910692002E49D0274B16
:1099A000678825881C6800230293002C2DD0636DE6
:1099B00023480393A36C190C9AB20B00854214D16F
:1099C0002048824211D1002901D0B9420BD1029B1B
:1099D000002B08D120000AF043FE20001A490AF0AB
:1099E0002FFE01230293039CDFE7002A01D095425A
:1099F000F9D1002901D0BB42F5D120000AF030FE98
:109A0000200011490AF01CFEEDE7104BEB18012B6A
:109A10000FD910233A002900009308A80C4B0AF034
:109A2000CAFE336830009B6808A9984708A80AF066
:109A3000DCFE15B0F0BDC046C4280020F828002088
:109A4000FE030000FF030000E828002002FCFFFFE7
:109A50008999010010B572B60E4B1C68002C0ED00F
:109A600020000AF0FDFD0023E3640B4BE36372B6B4
:109A70000A4B1A681C60A26562B6200010BD62B66F
:109A80005C200EF073F85C220021040009F0F0FB6A
:109A9000E9E7C046F028002000400020EC28002024
:109AA000074B10B51C68E36CDB0706D5FFF7D2FF48
:109AB000044B1860002800D00400200010BDC046F0
:109AC000FC280020CC280020F7B51E4C012322786A
:109AD00016001E401A4233D11B4D2860FFF7BAFF13
:109AE0001A4B1B4918600AF0ABFDFFF7B3FF194B87
:109AF0001860194B4363194B8363286800280FD003
:109B0000C023174F3200174900933B000AF072FD43
:109B1000C023009332003B00134928680AF06AFD15
:109B20000C200EF023F80023838083710F4B036019
:109B30000F4B836000F044FB012322781343237012
:109B4000F7BDC046142E0020C4280020FC280020A9
:109B5000E8280020F4280020FC3F0020C546020031
:109B600089990100FF030000FE030000D07E02007F
:109B700051990100024B1878012318407047C046E4
:109B8000142E0020F7B5134F04003B680E00002B85
:109B90001ED0114B1B78DB071AD5FFF781FF05009C
:109BA0003304234383640AF05BFD28000B490AF069
:109BB00047FD0B4B0025E318012B07D9C023009369
:109BC00032002100074B38680AF014FD2800FEBD62
:109BD000054DFBE7C4280020142E0020F8280020A3
:109BE00002FCFFFF8999010016FCFFFFF7B5060094
:109BF0000D0017000193002802D100242000FEBDB3
:109C00000029FAD0FFF726FF041EF6D0074B019A71
:109C100043630660064B45608760002A00D0054B11
:109C200020000549A3630AF00BFDE7E7FC3F002095
:109C30009F460200AD460200E828002070B5074BA1
:109C40000E0011001A7805000123100018401A4276
:109C500003D032002800FFF7C9FF70BD142E00208A
:109C6000F8B50500EFF30884C36B006C1C1B6B6C2C
:109C70001B1A9C420FD91F23074E203437689C4380
:109C8000002801D000F0D6F9200000F09FF92864E8
:109C9000001968643760F8BDFC280020024B186882
:109CA000434258417047C046E82800200300002284
:109CB00010B5044994006058002801D00132F9E73A
:109CC000635010BDD0280020002310B5044A99002D
:109CD0008C58844201D00133F9E70020885010BD30
:109CE000D028002010B50024084BA200D05800282E
:109CF00002D003685B6898470134062CF4D1044B0A
:109D00001B68002B00D120BF10BDC046D02800200A
:109D1000E82800200122F8B52C4B1B7813421CD0F8
:109D20002B4D2C68E36C134218D002273B43E364AD
:109D3000284B1E680423F26C30001343F364636BFA
:109D4000F363FFF78DFF3000716C04F036F928687B
:109D5000C36C3B4201D004F06AF9F8BD1E4F1F4EA0
:109D60003A683068002A0AD128601B0712D52C6097
:109D7000FFF7B8FF3B68002BFAD02B600AE0216D9B
:109D8000B94219D1616D002900D1110029602A68FA
:109D90008242EAD029688C42DFD0336899420DD1E3
:109DA0000F4B4B630F4B8B632000FFF759FF296864
:109DB00020004B6C626C06E02A60E8E79C42F3D11D
:109DC000002210004B6C04F0B7F8C6E7142E0020F8
:109DD000FC280020CC280020E8280020F4280020BF
:109DE000FC3F0020C546020070B50C4B04001B78F8
:109DF000DB0702D40DF092FD70BDFFF751FE0500A8
:109E000000F0C6F92418AC6428000AF029FC2800E8
:109E100003490AF015FCFFF77DFFEDE7142E002043
:109E2000C8280020F8B51B4B1B78DB0727D500247A
:109E3000194E30680AF014FC184D2B68002B02D024
:109E40005B6D0134FAE7032C0ADD2F68013C7B6D62
:109E5000386C2B6000F0EEF8380000F0EBF8F2E719
:109E6000290030680AF0ECFB72B60D4932680B68C5
:109E7000934206D19B6D0B6062B6FFF74BFFF8BDB6
:109E80000B00002BF8D0996D8A42F9D1926D9A653A
:109E9000F2E7C046142E0020FC280020F028002005
:109EA000EC28002010B5034B1B78DB0701D5FFF72A
:109EB000B9FF10BD142E0020F7B505000C000028D6
:109EC00033D001261B4B1B78334230D01A4F072367
:109ED0003868C26C1100194000911A4207D0210065
:109EE0002800164AFFF7AAFE00252800FEBD04F050
:109EF00086F83A680221D36C1800084001900B42A2
:109F000003D001318B43D364EEE73343D3642000A5
:109F1000A8473A68019DD36C1900B143D1645B072F
:109F2000E3D52000FFF7BEFFDFE7054DDDE7054D78
:109F3000DBE7C046142E0020FC280020A59E01006F
:109F400017FCFFFF16FCFFFF020010B5014B12CB00
:109F500012C210BD00290020034B1A68034B1A607F
:109F60007E225A607047C04604200020002900204D
:109F7000F0B5124E03003278022A1BD081421BD961
:109F80000C1A072C18D90D00054303272800384068
:109F90003D4211D172B6BA40094DA4085351AA18D6
:109FA00051608022120614431C60337801333370F1
:109FB00062B6F0BD0348FCE70348FAE7162E00201E
:109FC0000829002013FCFFFF17FCFFFF70B5041EDB
:109FD00023D0124D124E2B78002B0CD11149124870
:109FE0003370FFF7C5FF114B984202D11E20FFF7D7
:109FF000D5FB01232B7000253378AB4209DD0C49DA
:10A00000EB002000C9180AF067FB002805D10135D4
:10A01000F2E71420FFF7C2FB002070BD152E0020D0
:10A02000162E002000380020D82E002017FCFFFF3D
:10A030000829002010B5002817D000220F4B1978EE
:10A040000F4B914215DD1C6884420FD25C6884423C
:10A050000CD9041F2368002B02DC1E20FFF79EFB97
:10A06000802322681B061343236010BD013208338E
:10A07000E7E71E20FFF792FBF7E7C046162E002009
:10A080000829002070B5051E14DD0B4E0B4C3368FB
:10A09000002B02D020680DF0F8FAFA212068002485
:10A0A000074B89008361C462694335600DF0FEFA95
:10A0B000200070BD0348FCE7182900204829002033
:10A0C0006DA1010017FCFFFFF8B5114F05003E68B8
:10A0D000002E0AD130200DF049FD040006F0C6FF25
:10A0E0000C4BA6612360E6623C600B4E3368002B8C
:10A0F00009D110200DF03AFD04000DF023FB2000E3
:10A1000034600DF0F9FA2800FFF7BCFFF8BDC04637
:10A1100048290020DC86020044290020014B1868F1
:10A120007047C0461829002070B50D4C2368002BDD
:10A1300003D00C4B1B68002B02D10620FFF7C4FF95
:10A1400020680DF0F0FA02000749C3170D684E6849
:10A150005219734120680A604B600DF0EAFA70BD35
:10A160004429002048290020C820002010B5FFF70E
:10A17000DBFF0024054BA200D058002802D0036862
:10A180001B68984701340A2CF4D110BD1C2900200B
:10A1900010B5FFF7C9FFFA22034B920018685968FF
:10A1A000002307F09FFE10BDC820002010B5FFF768
:10A1B000BBFF024B1868596810BDC046C82000207C
:10A1C0000B4B10B51B680400002B03D0094B1B6818
:10A1D000002B02D10620FFF777FF0023064A9900E3
:10A1E0008858002801D00133F9E78C5010BDC046D3
:10A1F00044290020482900201C290020002310B5F4
:10A20000044A99008C58844201D00133F9E70020B8
:10A21000885010BD1C29002010B50400002902D070
:10A220000B78002B03D1034B2360200010BD0AF0F4
:10A230002FFBFAE7E07E0200F8B5050008000C00ED
:10A240000AF0EBFC002803D1124B2B602800F8BD6C
:10A2500020000AF0E2FC0530FFF7B8FE28600AF0A3
:10A26000DFFC20000AF0D9FC2E68708020000AF084
:10A27000D1FC070020000AF0D0FC39000200301D9C
:10A2800008F04EFF20002E680AF0C7FC00233618A5
:10A290003371DBE7E07E0200F8B504000E00150024
:10A2A00000290AD00B78002B07D0002A05D008001F
:10A2B00097B209F0A7FA874203D90B4B236020001D
:10A2C000F8BD681DFFF782FE20600AF0A9FC206837
:10A2D0002A0047803100043008F022FF23685D190E
:10A2E00000232B71EBE7C046E07E0200014B0360C8
:10A2F0007047C046E07E020070B509681600022271
:10A300008C5E0500A64206DB084B186828600AF040
:10A310008AFC280070BDA41B9C4200DD1C00043197
:10A32000280022B28919FFF7B7FFF2E74C29002075
:10A3300010B50548054C20600AF075FC2000044A61
:10A3400004490DF008FC10BDE07E02004C290020FD
:10A350000020002083480200084B73B51D680400EC
:10A36000002D0AD001002E6808220831684608F046
:10A37000D7FE0CCC28003168884773BD50290020D7
:10A38000014B03607047C046E87E020010B5040030
:10A39000081E03D1034B2360200010BD21600AF08A
:10A3A00042FCF9E7E87E020030B500684488A1422B
:10A3B0000CDA8588AA4209DA002907DB002A05DBC6
:10A3C0006243401880188371002030BD0048FCE7CC
:10A3D00017FCFFFFF0B507000E001D0085B0002937
:10A3E00021DD002A1FDD002B1DD004686388039344
:10A3F0008B4200DD0391A3880293934200DD029219
:10A40000002306340193019B029A93420ED0290047
:10A410002000039A08F084FE3B68AD195B88E418BD
:10A42000019B0133EEE7024805B0F0BD0020FBE7D9
:10A4300017FCFFFFF8B504000D0016001F000029EF
:10A4400001DB002A02DA0D4B2360F8BD10004843FF
:10A450000630FFF7BBFD20600AF0E2FB23685D8059
:10A460009E80002F06D03B00320029002000FFF71D
:10A47000B1FFEAE720000AF0F4FAE6E7E87E02001E
:10A48000F7B507000D1E03D1244B03603800FEBD55
:10A49000002408002600210001940378002B1AD024
:10A4A0003022524294469C446246092A11D90A2B12
:10A4B0000AD1019B361901330193B14200DA310010
:10A4C000002426000130E8E7002CFBD000240136F0
:10A4D000F8E70124F6E7019A380012B209B2FFF753
:10A4E000A9FF012149420E000A203B689A1D2C78E1
:10A4F000002CCBD02300303B092B08D8CB43DB17F3
:10A500000B4043431B19303B19000135EFE700298D
:10A51000FBDB117031000132F7E7C046E87E020034
:10A52000F0B5040087B004A80E001D000192FFF7EB
:10A530000BFD236801995A88914233DA9B889D422A
:10A5400030DA1F2E2ED9059B00939E422ADC05236C
:10A5500000217343049AA03BD3180393039B6E1806
:10A560005B5C02930023019AD71822685088009000
:10A57000B8420EDD9088B0420BDD0098D2197043CE
:10A58000121810201841029F3840471EB84140421F
:10A5900090710133052BE6D101310529DED1002070
:10A5A00007B0F0BD0048FBE717FCFFFFF7B50368F5
:10A5B00006009F1D5B880D005A1A0192002919DDC3
:10A5C0000024994203DB0AF04CFA002013E03368C0
:10A5D0009B889C42F9DA79193800019A08F0A0FDAD
:10A5E000019B2900F8180AF01FFA336801345B88D0
:10A5F000FF18ECE70048FEBD17FCFFFF10B505484B
:10A60000054C20600AF00FFB2000044A04490DF0BD
:10A61000A2FA10BDE87E020054290020002000208C
:10A620001B4A020010B5054C012120000AF0E3FA94
:10A630002000034A03490DF08EFA10BD582900206E
:10A6400000200020A34B0200074A030010B50120A0
:10A65000934208D0834202D00020DB0703D41E209F
:10A66000FFF79CF8002010BDFFFF00000048704776
:10A6700016FCFFFF10B53220FFF790F8004810BD20
:10A6800016FCFFFF82801422002310B541620F4C9C
:10A690000100083404600E240281123A8371827230
:10A6A0000363838636310A78C360A2430361436142
:10A6B0008361C36103620A70021DD387012242874E
:10A6C000034AC26302004032137010BD087F0200CB
:10A6D00001000100F0B5564E0500376897B0002F15
:10A6E00000D090E006AC0B231C228221200001F058
:10A6F000F9F90B231D2283210AA801F0F3F90B239A
:10A700001B2284210EA801F0EDF908200DF02EFA8D
:10A7100001223B00110004900BF064FE3A21280056
:10A720000BF07FFB00281CD0A38812AFBB80A3795D
:10A73000A268BB713F4B5C2012930E23E356149228
:10A74000A289BB73BA810DF011FA05230193353349
:10A7500000933A002900049B040002F025F93460BC
:10A7600051E0322128000BF08AFB00281BD0A3887F
:10A7700012AFBB80A379A268BB712E4B5C201293F1
:10A780000E23E3561492A289BB73BA810DF0EEF941
:10A79000052301932D3300933A002900049B040004
:10A7A00002F0A6FADBE73C2128000BF023FB00288F
:10A7B00034D0362202AB9B8E12AFBB8002AB9B180B
:10A7C0001B780832BB711B4BA420129302AB9B1861
:10A7D000109A1B781492059202AA928F5BB2BA81EA
:10A7E000BB730DF0C3F9062304000293013B0193F0
:10A7F000373300933A00049B290001F0F5FF0E4B1C
:10A80000346044341C600C4B094C1868002802D09A
:10A8100021680AF06DFB206817B0F0BD44200DF0F0
:10A82000A5F9052204990400FFF72CFF97E7C0461D
:10A830005C290020F87E020060290020F0B5634901
:10A84000C56885B08D4258DA030036331C78022281
:10A850002300134014425BD1026901928A4265DAF7
:10A8600002003632127852076AD44269029202001C
:10A87000029C40328C4270DA0100363109780907B7
:10A8800075D4002B7ED113789C46002B16D0010086
:10A89000061DF38F363101339BB2F387039109789C
:10A8A00001270C003C40394200D188E01D2B05D91E
:10A8B000039BB94319700023F38713700AF0F8F96A
:10A8C000434A0723904277D94249043B8D4273DBC8
:10A8D000C8220133920095426EDC0198023B884207
:10A8E0006ADB013B904267DC02980433884263DBF9
:10A8F0000023904260DD06335EE0C8220023520050
:10A900009542A9DD030036331A7800239207A3D4B9
:10A91000012306001F00363632785408A7433C0056
:10A9200002279C40BA432243327095E7C822019C1B
:10A930005200944299DD020036321278520794D4C4
:10A94000012306001C00363632789708BC43A70066
:10A950000424A2433A43327087E7C821029C49008D
:10A960008C428EDD010036310978090789D4010057
:10A97000012636310B78DF08BE430827F600BB43BB
:10A9800033430B701378032B00D97CE70133DBB220
:10A990001370012B03D10021031DD98773E7042B0A
:10A9A00000D070E7020036321178033B0B4313707E
:10A9B00000230430C3870B33180005B0F0BD092B0A
:10A9C00000D87BE76346F487013B76E770FEFFFF24
:10A9D000FF700200E0FCFFFFF0B5C369C1681A68B0
:10A9E000451D0400EB7F89B0114225D0002B57D1C3
:10A9F0000123A2791A4237D0002602226846A18894
:10AA0000A67109F0E7FFA31DDD7F012D2CD1FFF713
:10AA1000BFFB3300226A801A99410F000600A1880B
:10AA20009F4203D1FA239B009E423BD30123042281
:10AA300004A809F0CFFF17E00B2B01D80133EB7707
:10AA4000EB7F082B0DD90122A37913420CD11343BC
:10AA5000A188A37104A8130009F0BCFFFFF798FBBD
:10AA60002062EB7F012BC3D90322A3791340012B72
:10AA700014D1FFF78DFB0023226A801A9941994275
:10AA800002D10A4B984209D90223A279A188134323
:10AA9000A3710522012304A809F09CFF09B0F0BDB1
:10AAA000013BCCE72B000322C2E7C046DB050000D8
:10AAB00010B50400034B08330360FFF79FFB200031
:10AAC00010BDC0463C7F0200F0B5060000250F0017
:10AAD000040085B002930AAB1B78083603930F4B32
:10AAE00029000833036001928580857118223000A7
:10AAF00008F0BEFB39003000039A0CF078FE019B91
:10AB0000029AA380A31DE771DA77631D25622000F6
:10AB1000DD77FFF755FB200005B0F0BD3C7F02005C
:10AB20000048704716FCFFFF10B53320FEF736FED5
:10AB3000004810BD16FCFFFF002310B50400838001
:10AB400083710D482164083020608020C000A0611E
:10AB5000E061206211002000E360236163616362B1
:10AB6000A362E36223636363A363E36363640AF042
:10AB700097F9200010BDC046547F0200F0B5544E36
:10AB80000500376897B0002F3DD10B231C2282218E
:10AB900006A80AAC00F0A6FF0B231D22832120008B
:10ABA00000F0A0FF0B231B2284210EA800F09AFFC7
:10ABB00008200CF0DBFF01223B00110004900BF099
:10ABC00011FC1D2128000BF043F9002824D0A38894
:10ABD00012AFBB80A379A268BB713E4B6020129379
:10ABE0000E23E3561492A289BB73BA810CF0BEFF08
:10ABF00006230193173300933A002900049B0400B5
:10AC000001F0A6FF3460344B314A1B681068002BFA
:10AC100000D0436417B0F0BD3C2128000BF046F98A
:10AC200000281BD0A38812AFBB80A379A268BB7198
:10AC3000284B602012930E23E3561492A289BB7313
:10AC4000BA810CF093FF06230193363300933A0048
:10AC50002900049B040002F0EDF8D3E73C21280012
:10AC60000BF0C8F8002829D0362202AB9B8E12AF19
:10AC7000BB8002AB9B181B780832BB71154BA4201C
:10AC8000129302AB9B18109A1B781492059202AA99
:10AC9000928F5BB2BA81BB730CF068FF062304008D
:10ACA0000293013B0193373300933A00049B290040
:10ACB00001F09AFD084B1C604434A3E748200CF0D7
:10ACC00055FF062204990400FFF736FF9AE7C046B5
:10ACD00060290020F87E02005C290020F0B587B0D2
:10ACE00001930EAB1B88060003930D9B0D00009390
:10ACF000019B0C9F0292002B3DD0002F02D1009BA4
:10AD0000DB0738D530200CF031FF0400103009F09B
:10AD100057FE2000243009F0DBFC029B1820258020
:10AD200063800CF023FF0500009B08220593019B24
:10AD3000002103600C30049708F09AFA082204A955
:10AD4000281D08F0EDF90D4B02226B6100230399D9
:10AD5000E3602362E36233680A43300021005B68EA
:10AD6000A560A2809847002805D0200009F03DFD8D
:10AD700020000CF0F7FE07B0F0BDC046354F0200D2
:10AD800070B58CB08360109B01604260C3600400AA
:10AD9000184918000AF0C4FF051E14D001001C2237
:10ADA000103105A808F0BCF96A4608AB43CB43C292
:10ADB0001B68136020680599069A079B0AF082F8C1
:10ADC00028000CF0CFFE0C4B186800280ED00B4A60
:10ADD00005AB059200220692C03202926A4622CB4F
:10ADE00022C2230003220621FFF778FF20000CB0C7
:10ADF00070BDC0460B8E02005029002001AE01003C
:10AE000082B0F0B50400EDB06420739372920CF040
:10AE100085FD052210A8110009F02CFE954911A806
:10AE2000FFF72EFB1925002221AB013D1A605A6065
:10AE30009A600C33002DF8D11522290014A813951F
:10AE400008F016FAA0680AF0E3FBFF210A90A06858
:10AE500000F01EFC884FA06800F0BEFA049508952B
:10AE60000995854B9F4203D0844B9F4200DBF7E05E
:10AE7000A0680AF0CFFBA56881491AA8FFF7CCF9B2
:10AE800078221AA9280000F049FB1AA809F0F9FC59
:10AE90000023794F04930326099B606801333340F4
:10AEA000099309F09DFF0500606809F0A0FF0022EA
:10AEB000744B05929D420FDB013205922A00C83285
:10AEC0000ADBAA22042192000591954204DC059632
:10AED000C82D01DC0222059200220692984210DB66
:10AEE000012306930300C8330BDBAA2304329B0023
:10AEF0000692984205DC03230693C82801DC013B37
:10AF0000069310A809F0ADFD5F4B00251E000793C6
:10AF100013ABEB5C012B05D172783178FE3310A8AE
:10AF2000FFF742FA01350236192DF1D16B4618228E
:10AF30009A5E6B4610A81421595E099BFFF734FAFC
:10AF4000002F02DB049B0F2B07D90023A0681A00F7
:10AF50007430009310A909F09AFD13AE079B059A6F
:10AF60001B78934221D1079B069A5B7893421CD1B0
:10AF70003378012B19D00C23089A0CAD53432800C9
:10AF8000002221680B9309F0B5FF21AA94460B9B80
:10AF9000634407CD07C301233370089B0133DBB241
:10AFA0000893049B0133DBB20493079B374A0233B7
:10AFB000079301369342D1D164200CF0AFFC089B7B
:10AFC000643F3FB2182B00D84BE71A0021A91AA8FA
:10AFD0000AF09FF96A461DAB23CB23C21B6813609E
:10AFE0001A991B9A1C9B206809F06CFFE568002DDC
:10AFF0000CD0274912A8FFF70FF91C2328001AAA22
:10B0000012A90AF0C2FE12A809F03BFCA0680AF0DF
:10B0100001FB11A912A8A56809F00CFD00221D4B27
:10B02000009212A901932800130000F019FA12A847
:10B0300009F0F3FCFA2080000CF070FCA0680AF024
:10B04000E9FA0A99A06800F023FB11A809F0E5FCD1
:10B0500010A809F0E2FC6DB0F0BC08BC02B01847C3
:10B06000002F03D0049B0F2B00D014E7A06800F042
:10B07000B3F910E7168E02008C3C0000D18AFFFF66
:10B080005B8E020058FDFFFF708E0200A28E020050
:10B090000B8E0200DC050000F0B5040085B0637A79
:10B0A0009C46002B04D120000AF051F905B0F0BDF8
:10B0B000A37A266F01931023019AF35600259B185B
:10B0C00001229A402900F36803920293029BAB424B
:10B0D00031DDB068019B6843C01873694000E77AAE
:10B0E0001A181B5C5078E279012F14D1571E3F1AB1
:10B0F00018003B004243606F52008218D2189379C7
:10B10000634500DD6346627B1A4202D00123AB40F7
:10B1100019430135DAE7022F07D0032FEAD1277A46
:10B12000013FFF1A03003800E4E7571EFB1A277A95
:10B13000013F381ADEE71123C943F356606C99408A
:10B1400023691940039B19430CF0A8FCA27B072A32
:10B15000ACD8637B0C495B006373531CDBB290007B
:10B160004158A373022A03D808000CF0CCFB96E7E1
:10B17000064B2000236300236363054BE4622364D2
:10B1800014300CF093FA91E7807F020099B001002F
:10B190003953020070B50400104B250008330360DA
:10B1A000FFF72CF82000743009F037FC20006030E5
:10B1B00009F033FC2000583009F063FB20005030C8
:10B1C00009F05FFB064B1435280063610CF05DFA53
:10B1D000280005F061FF200070BDC046A07F02007E
:10B1E000DC860200F8B500250400324B8580083368
:10B1F00003608571143016000F0005F037FF200042
:10B200002D4BE562636125645030FFF76FF8200035
:10B210005830FFF76BF820006030FFF7B1F82000DE
:10B220000423F25E33682667590009B2743009F0CE
:10B2300021FC3368226FE3717368012623721023A7
:10B240006581A7802561D35691685918994204DD1C
:10B250003000984001330543F8E711230120D3560D
:10B26000D1685918994206DD02009A4026690133D7
:10B2700032432261F6E714200CF078FC22690021A9
:10B280002A430123060006F07DF9FF2322006372A2
:10B290000133A381002348326664A3732000137036
:10B2A000A366FEF78DFF0123A27920001343A3714B
:10B2B000F8BDC046A07F0200F0860200F0B5437AD8
:10B2C000040085B0002B04D120000AF040F805B03E
:10B2D000F0BD837A066F01931023019AF35600257F
:10B2E0009B18012294469A402900F3680392029326
:10B2F000029BAB422DDDB068019B6843C0187369A7
:10B300004000E77A1A181B5C5078E279012F10D1BF
:10B31000571E3F1A18003B004243606F52008218CC
:10B32000D2189379002B02D06346AB401943013504
:10B33000DEE7022F07D0032FEED1277A013FFF1A55
:10B3400003003800E8E7571EFB1A277A013F381A36
:10B35000E2E71123C943F356606C99402369194011
:10B36000039B19430CF09AFB667AB31EDBB2FC2BED
:10B3700014D8FEF7D3FE0C4B0500236300230B48C3
:10B3800063630B4BFF217043E462236406F084FC8B
:10B3900029004143200014300CF088F9637A012B16
:10B3A00000D994E790E7C0464F530200B60300006F
:10B3B000395302001FB5012381881A00684609F03D
:10B3C00009FB012368461A00024909F003FB05B096
:10B3D00000BDC046FE0300001FB5030048331A78C5
:10B3E0000400002A0DD000221A70012381881A005F
:10B3F000684609F0EFFA012368461A00034909F08C
:10B40000E9FA2000743009F02CFB1FBDFF03000097
:10B4100010B50400230048331A78002A07D01B789F
:10B42000012B04D00121024809F030F9F2E710BDE8
:10B43000FF03000010B501210400072009F026F9E0
:10B44000064B984208D148342378002B04D0237847
:10B45000012B01D020BFF7E710BDC04616FCFFFF4F
:10B4600073B5079C0500002C1CDB060048363078BD
:10B47000002802D03078012816D106981BB2C0B23D
:10B480000090280012B2743009F001FB002C07D0A4
:10B490002B004A331C80002407234C352C8033704A
:10B4A000200076BD014CFBE7014CF9E717FCFFFFDC
:10B4B00012FCFFFFF0B587B00D9C05000E001700D1
:10B4C0000393002C21DBFFF7A3FF2B0048331B78ED
:10B4D000DAB20292002B1AD1310005A809F0AAFABB
:10B4E0000C9B3A0000932800039B019405A9FFF7E9
:10B4F000B7FF05A809F091FA002C03D02800FFF748
:10B5000099FF029C200007B0F0BD024CFAE7024C04
:10B51000F8E7C04617FCFFFF11FCFFFFF8B5040079
:10B52000171E1DDD060048363378002B02D0337815
:10B53000012B17D12200E3795632013B137023000F
:10B540000025200054331D80503009F0F7F9230006
:10B550004A331F80022328004C3425803370F8BD05
:10B560000148FCE70148FAE717FCFFFF12FCFFFF68
:10B57000F7B504000F00161E18DDFFF749FF230082
:10B5800048331B78DDB2002B12D1390001A809F035
:10B59000CDF9320001A92000FFF7C0FF01A809F092
:10B5A00070F92000FFF746FF2800FEBD0148FCE7C8
:10B5B0000148FAE717FCFFFF11FCFFFFF8B5040094
:10B5C000171E2DDD060048363278002A02D0327868
:10B5D000012A27D15D42069BFF331FD16B1D22003C
:10B5E0001BB2643213802300200066331D7060306C
:10B5F00009F028FA230000226C331A70954200D01B
:10B600003D0023004A331D80079B00205A1E9341B2
:10B61000013F4C34053327803370F8BD069BDEE7CD
:10B620000148FAE70148F8E717FCFFFF12FCFFFFAB
:10B63000F0B504000F0016001D0087B0002A1FDDC2
:10B64000FFF7E6FE230048331B78DAB20392002BA3
:10B6500018D1390005A809F0EDF90D9B32000193CE
:10B660000C9B05A9009320002B00FFF7A7FF05A85E
:10B6700009F0D3F92000FFF7DDFE039807B0F0BD15
:10B680000148FBE70148F9E717FCFFFF11FCFFFF4A
:10B69000FF2902D84172002070470148FCE7C046EC
:10B6A00017FCFFFF13B5040004A8007800902000E9
:10B6B0000BF060FF002801D1207516BD0048FCE7A3
:10B6C0000EFCFFFF13B5040004A8007800902000D2
:10B6D0000BF038FF002801D1207516BD0048FCE7AB
:10B6E0000EFCFFFF7FB50D0011000F226A4404001D
:10B6F0001E1E117015D0089B002B12DD012329009E
:10B700000093FFF7DFFF002808D1009032002900E6
:10B710002000089BFFF7C6FF002800D0024804B0B5
:10B7200070BD0248FBE7C0460EFCFFFF17FCFFFFA1
:10B73000F7B506000D1E3ED00023022704690193D1
:10B74000002C34D0AA88A38853403B422DD13A42E2
:10B7500022D1A368AA68934227D12B88002B02D05C
:10B7600022889A4221D16B88002B02D062889A42AB
:10B770001BD1EB68E268934201D0002B15D17368AE
:10B78000002B01D020009847A2880C4B1343A380C4
:10B79000019B0133019308E0A968A0680AF008FE44
:10B7A0000028DAD1AB883B42D3D0E46AC8E7019BDA
:10B7B0002000002B00DC0248FEBDC0460080FFFFD9
:10B7C00017FCFFFFF0B506000D0085B000295DD025
:10B7D00001270469002C27D00221AA8800230A42ED
:10B7E00002D0A3885B083B40226829688A4215D1B1
:10B7F000A068A968002B0FD00AF0DAFD00280DD050
:10B80000EB68E268934209D10421625EA388002AB2
:10B8100006DB1F4805B0F0BD8842F1D0E46AD9E7E5
:10B820005B045B0CA380F4E730692A880100031EE7
:10B8300007D1356101236846164909F0CBF800208D
:10B84000E8E71C88944206D2DC6A1900002C0DD06F
:10B850002300F6E723001C88944207D15F886C8898
:10B86000A74203D8DC6A1900002CF3D1884209D121
:10B870000B889A4204D305D148886B88984201D935
:10B88000E962D6E7CB6AEB62CD62D3E70248C1E753
:10B8900016FCFFFFFD03000017FCFFFF064B10B571
:10B8A0001A00040008322C33026083600830FEF76F
:10B8B0000BFA200010BDC046B87F020008B4024B4E
:10B8C0009C46083808BC60479DB8010008B4024B8C
:10B8D0009C46083808BC60478B5702000C4A00237E
:10B8E00011002C32083110B543608381837382606C
:10B8F0000361436183618383016004000830FEF7C4
:10B90000D5F9044B1A68002A00D11C60200010BD34
:10B91000B87F02005029002082B0F7B501254026EB
:10B9200009930CAB1B78046908920193002C38D062
:10B9300008AA238812889A4201D0002B29D108AA8C
:10B94000638852889A4201D0002B22D1FEF712F967
:10B950000123002806D0C022A3881340C03B5A42CE
:10B960005341DBB2019A934219D10422A35EA78806
:10B97000002B14DB102208A9A01807F0D1FB3742D6
:10B9800009D1FEF7F7F8002805D021000748FEF797
:10B9900093FAE46ACAE7200009F000FFF9E70025FE
:10B9A000F7E72800FEBC08BC02B018479D5702000C
:10B9B00008B4024B9C46083808BC6047395902005D
:10B9C00010B5024808F0FCFF10BDC046D020002092
:10B9D000F0B587B001930EAB1B88060003930D9B57
:10B9E0000D000093019B0C9F0292002B3DD0002F75
:10B9F00002D1009BDB0738D530200CF0B7F80400EB
:10BA0000103008F0DDFF2000243008F061FE029BBA
:10BA10001820258063800CF0A9F80500009B0822FF
:10BA20000593019B002103600C30049707F020FC74
:10BA3000082204A9281D07F073FB0D4B02226B613D
:10BA400000230399E3602362E36233680A43300012
:10BA500021005B68A560A2809847002805D02000DF
:10BA600008F0C3FE20000CF07DF807B0F0BDC04622
:10BA700087590200F0B5160000258380164A174B3F
:10BA800004008571026001814681057318688C4647
:10BA900089B0A8421DD0124A05950492C022029294
:10BAA0006A4604AB82CB82C223002A006146FFF7BC
:10BAB0008FFFC022094B0A49186802926A46069114
:10BAC00006AB079582CB82C223002A003100FFF724
:10BAD0007FFF200009B0F0BDFC7F0200502900204C
:10BAE000B15A020030B5002403730123034D847161
:10BAF0000560818082734373846030BDF87E0200EC
:10BB000070B583790400DB0704D58068002801D074
:10BB10000CF028F8A3799B0704D5A068002801D071
:10BB20000CF020F8A3795B0709D5A0230021154A62
:10BB3000A068DB00D150884201D00CF013F8A37943
:10BB40001B0708D5A568002D05D028000AF0A0FC29
:10BB500028000CF007F8A379DB0605D5A0680028BB
:10BB600002D00368DB6898476023A2791A4205D0A7
:10BB7000A068002802D003685B6898470023A36090
:10BB8000A37170BD00700040F7B50227037B04006D
:10BB90000D003B4228D0012928D883791A003A4069
:10BBA00001923B4214D1FFF7ABFF18200BF0DEFFF0
:10BBB0000E230600E35618220199009307F058FB64
:10BBC000300000990BF01DFEA379A6603B43A371E2
:10BBD000A3685A68002D04D00025DB681A6028008D
:10BBE000FEBD1B691A60FAE7014DF8E7014DF6E763
:10BBF00016FCFFFF17FCFFFFF7B50126037B0400CF
:10BC000033422CD0827961231100194001911A42EC
:10BC100016D1FFF775FF18200BF0A8FF0E230500C3
:10BC2000E356677B18220199009307F021FB3A0045
:10BC3000280000990BF0DBFDA379A5603343A371C5
:10BC40006023A279A0681A4202D00BF0B4FCFEBDBA
:10BC5000436940681B681840431E9841F7E7014854
:10BC6000F5E7C04616FCFFFF012210B5837941734A
:10BC7000134204D080680BF058FE002010BD6022F3
:10BC8000134203D080680BF09DFCF6E70048F5E70F
:10BC900016FCFFFF70B5040000250C4B0E000833A6
:10BCA0008580857103602100183009F0B2FF200003
:10BCB0002100203009F0D8FF054B2000A680E58048
:10BCC0002572E560256165611C6070BD0C80020015
:10BCD000642900208379DB0702D5C160002070470A
:10BCE0000048FCE716FCFFFF8379DB0701D5C0683D
:10BCF00070470148FCE7C04616FCFFFF70B5456978
:10BD00000400002D22D0037A032B21D8FFF7ECFF8B
:10BD1000E86230200BF02AFF30220021050007F0F6
:10BD2000A7FA002263699A622369934207D1636983
:10BD300023610020237A65610133237270BD1A00EC
:10BD40009B6A002BFBD163699362F2E70148F5E738
:10BD50000148F3E717FCFFFF13FCFFFF144B70B51E
:10BD60005A68144C002A03D000225A600132A260A3
:10BD70001A69002A17D0002119618023DB000E4DBB
:10BD8000E3582868012B0FD1A923DB00E158494271
:10BD9000FFF7A0FF2868FFF7B1FF2B685A69074B30
:10BDA000E2500123A36070BDFFF794FFF9E7C0469E
:10BDB000FC10004000100040642900200405000031
:10BDC00070B505000C0008F0F4FB002804D1034A0C
:10BDD000034BEC71D45070BD0248FCE700100040EA
:10BDE0002405000016FCFFFFF8B58379050000204C
:10BDF000DB0765D408F0DDFB002862D16E69002EF8
:10BE000008D130300BF0B2FE04003022310007F0D0
:10BE10002FFA6C6100222C4B01215A608022D2053E
:10BE200011605A68002AFCD00622284B284C9A56EA
:10BE3000284B0026E2500722043BE2500833E6502C
:10BE4000254A264B2800E250E979FFF7B9FF012285
:10BE50000821234B2348E6500433E250224B234F62
:10BE6000E1500433E0500223214823502148275059
:10BE7000214F043827501827204827506F69204841
:10BE80002750C120800021501E498538FF380B50B3
:10BE90000B608021890060580E33034363501A4BB6
:10BEA0005E6062605A68002AFCD0002601271E618D
:10BEB0002800A760FDF7FAFE3000AB791F43AF7191
:10BEC000F8BD1248FCE7C046FC0000403490020078
:10BED000001000400C050000746962751C0500002C
:10BEE0002C0500002300040214050000FFFF0000E1
:10BEF000340500003C05000021100100540500003D
:10BF00000405000000E100E0FC10004016FCFFFF0B
:10BF100003000069002809D00221054AD167826A1E
:10BF20001A611A7A013A1A72024B19607047C046B8
:10BF300004E100E000E100E070B505000C0008F04D
:10BF400038FB00283AD1002C3AD02378262B37D85A
:10BF5000022201211B4BDA671B4A1C4B58611161FD
:10BF600059690029FCD0002019495450586001300B
:10BF7000106058680028FCD00020186101309060E3
:10BF800018690028FCD068695050002159610131BE
:10BF9000116159690029FCD00021596001315160BB
:10BFA00059680029FCD0002018610123C02193604A
:10BFB0000222084B49005A501A6070BD0648FCE73F
:10BFC0000648FAE704E100E000100040FC100040E1
:10BFD0000405000000E100E016FCFFFF17FCFFFF76
:10BFE00037B54C680500002C04D10C4908F0E0FD81
:10BFF00028003EBDA36A01A84B602278E36A033A99
:10C00000211D08F001FE20000BF0ACFD280001A965
:10C0100008F0CEFD01A808F0C4FDE9E7582900208A
:10C0200010B504008CB0002911D0262A0FD868461C
:10C03000D31C037001234370FF33438001A807F032
:10C040006FF869462068FFF777FF0CB010BD014814
:10C05000FBE7C04617FCFFFF10B5002903DB024BCE
:10C0600019600BF0F4FA10BD6829002070B50400C7
:10C070001D0004AB1E7804F0B5FF20000E4B4030CD
:10C080002360FEF733F92300220001354C331D7085
:10C090000023E1215832013616700A3AA364636521
:10C0A000138053809381D381013B20006364490254
:10C0B000FFF7D2FF200070BDA87E0200F7B58027F1
:10C0C0007F053E697C690822113C7443050021000C
:10C0D000684607F025F8104B009A9A4219D0009351
:10C0E00000230193796928001339714309F0D3FDC6
:10C0F000019A2800009909F0E6FD2100280009F0C6
:10C10000CAFD79692200133928007143B30809F088
:10C11000CCFD0198FEBDC046FECA0000F0B50D0082
:10C12000ABB000210D920700302212A81E0007F0CC
:10C130009FF8280007F066FB431C0C93102B00D9D6
:10C14000B8E0202E00D9B5E02900380009F0E8FD5C
:10C150000B90002854D129000C9A12A806F0E0FF99
:10C1600032000D9916A806F0DBFF80235B051A69E3
:10C170005D690B92113D6A4338005E690D92FFF7CD
:10C180009DFF0D9B30220833002104001EA80F9351
:10C1900007F06EF831000B9B13395943380009F052
:10C1A0007AFD00230F9E0C930E930C9BA34246DA5C
:10C1B000310030221EA806F0B3FF12A91EA807F016
:10C1C000DDFA00282BD13D4938002200109111944E
:10C1D00009F079FD6A46099615AB23CB23C223CB20
:10C1E00023C223CB23C23800149B1299139A09F05F
:10C1F00078FD01230E930C9B303601330C93D4E76A
:10C200000B9832000D99103006F066FF04000B9871
:10C210000BF0A8FC002C9ED120002BB0F0BD6A468C
:10C22000099621AB23CB23C223CB23C223CB23C22A
:10C2300038001E991F9A209B09F053FDDBE7E64367
:10C240003021F61726404E430F9B9E190E9B002B64
:10C250001CD10B9B981E05F095FCA0422CD01749D1
:10C260000134380022001091119409F02CFD6A4627
:10C27000099615AB23CB23C223CB23C223CB23C2E6
:10C2800038001299139A149B09F02BFD38000D9970
:10C2900009F001FD80235B0559690C230B9A1339C2
:10C2A00063434A433800110002330D9A09F0FDFC44
:10C2B0000024B1E7024CAFE7024CADE7FECA000034
:10C2C00017FCFFFF13FCFFFF8023F0B55B051A6925
:10C2D00095B002925A6905910299113A51435C69ED
:10C2E000029B133C05005C430391FFF7E7FE061E2B
:10C2F0003CD030220021083408A8039F06F0B8FF84
:10C300002100280009F0C7FC00230837019304939B
:10C31000019BB34220DA3900302208A806F000FF62
:10C32000059908A807F02AFA00280DD11B49721EAA
:10C3300028000691079209F0C6FC01230493019B93
:10C34000303701330193E3E722000C233900280042
:10C3500009F0ABFC3034F2E7049B002B08D10F4905
:10C36000320028000691079609F0ADFC0C4812E057
:10C370002800039909F08FFC80235B0559690C2381
:10C38000029A13394A43734311002800039A023377
:10C3900009F08BFC002015B0F0BDC046FECA0000BD
:10C3A0000CFCFFFF70B50400A280FA2200230800F5
:10C3B0000C49920008312160A3710B496061E26071
:10C3C000A360638209F0ACFC051E09D001002000C7
:10C3D00002221031123006F0A3FE28000BF0C2FB3F
:10C3E000200070BD24800200A28E020030B502251C
:10C3F0008379040087B02B4204D1FDF757FCA37961
:10C400001D43A571200009F0D1FC00281CD06B460B
:10C41000DD1C280009F0C1FC2B78002B17D001A8E7
:10C4200009F0B9FC0321019AD3170B409B189B100C
:10C430002382FDF7ADFEE368A18818180123A060F0
:10C440001A0002A808F0C6FA002007B030BD012289
:10C45000064B1A60064A51680029FCD00021516041
:10C46000044A1268019201225A60DBE700C00040D2
:10C47000FCC0004008C50040022802D10122014B47
:10C480001A707047172E002070B5064D04002B78E7
:10C49000002B04D1044801F087FF01232B702000FA
:10C4A00070BDC046182E002079C4010070B50C0084
:10C4B00008F07FF8002810D00023134DA40A2B7039
:10C4C000200009F087FC002803D00A200BF026FA90
:10C4D000F6E72B78002BFCD070BD02210B4B0C4AE9
:10C4E00099508021C90058580028FCD0A120C000D4
:10C4F0001C5058580028FCD0002199508021C900B8
:10C500005A58002AFCD0E7E7172E002000E001402F
:10C5100004050000F8B50D0016001F0008F049F8EA
:10C52000002811D00023184C23703A003100280055
:10C5300009F04EFC002803D00A200BF0EFF9F4E7D5
:10C540002378002BFCD0F8BD012380220F4C10492A
:10C55000D2006350A358002BFCD08022D2000023CD
:10C5600094469F4208DD980032582A506246A058EF
:10C570000028FBD00133F4E7002363506346E358FF
:10C58000002BFBD0DFE7C046172E002000E0014063
:10C590000405000008B4024B9C46443808BC6047C0
:10C5A000D95D0200FA21F8B50389C9000400594396
:10C5B000324809F012FFFA21890005F0E3FA304F02
:10C5C000A17A2081380009F008FF23002600250009
:10C5D00022894C33A072A0361A808C3500232A227F
:10C5E0003178286809F023F8002844D11F235B2202
:10C5F0003178286809F01BF800283CD120235C2200
:10C600003178286809F013F8002834D101232C224E
:10C610003178286809F00BF800282CD101232D224D
:10C620003178286809F003F8002824D101232E224C
:10C630003178286808F0FBFF00281CD1A17A380067
:10C6400009F0C6FE0E22C3B23178286808F0EFFF69
:10C65000002810D1FA21238989005943074809F09D
:10C66000B7FE012303432A2231782868DBB208F0A1
:10C67000DEFF002800D00348F8BDC0464480020019
:10C680003C8002000EFCFFFF08B4024B9C4644387D
:10C6900008BC6047A5C50100074B10B51A0004008F
:10C6A00008323C3302604364443008F0C7FB20008A
:10C6B00008F0F7FA200010BDA480020008B4024B75
:10C6C0009C46443808BC604799C6010008B4024B38
:10C6D0009C46443808BC6047E35D0200F0B5042581
:10C6E000837904008BB02B4204D1FDF7DFFAA379E4
:10C6F0001D43A57120009030FFF77EFA0026B0425E
:10C700000FD12300A033197820000C2307AD00932C
:10C710008C302B0001220068FEF7E4FF061E03D0D8
:10C720002C4E30000BB0F0BD0A2304AA9B182A78C7
:10C730005A706A781A700022985EAA785A70EA785D
:10C740001A700022995E03912A795A706A791A70D8
:10C7500000229F5EAA795A70EA791A7000215A5E07
:10C7600004922A7A5A706A7A1A7000215A5E0592E7
:10C77000AA7A5A70EA7A1F251A7000229B5EA27A62
:10C7800003999C46514349425043CB172B405B18B9
:10C790005B11A361C3172B40181864235743FA1782
:10C7A0001540ED196A112262059A5B425343A36753
:10C7B00064236146049A40115A434B43E267221DA9
:10C7C000E0612000D36708F0DEFA2000443008F072
:10C7D0003CFBA6E70EFCFFFF08B4024B9C46443826
:10C7E00008BC6047DDC60100F7B51E00040008ABB9
:10C7F0001B881500019309AB1A8800910AAB310020
:10C800001F88FDF73FFF20003A0031004430FEF75B
:10C8100093F9134B20001A003C3363642300083261
:10C820002260009A8C331A60AB8890308380AB7999
:10C8300083710C4BAA6803600E23EB5682602200C2
:10C84000A9899C32118083732300019AA0330321AC
:10C850001A80FFF709FA2000FFF7A4FE2000FEBDB2
:10C86000A4800200F87E0200F8B5FA260189B6001D
:10C8700004007143254809F0B0FD310005F082F94C
:10C88000234FA17A2081380009F0A7FD2500A0726E
:10C89000583500232A222978606C08F0C8FE002849
:10C8A00032D110232B222978606C08F0C0FE0028BA
:10C8B0002AD101232D222978606C08F0B8FE0028C7
:10C8C00022D101232E222978606C08F0B0FE0028C6
:10C8D0001AD1A17A380009F07BFD0E22C3B2297863
:10C8E000606C08F0A4FE00280ED12189074871432E
:10C8F00009F06EFD012303432A222978606CDBB224
:10C9000008F095FE002800D00248F8BD0C81020016
:10C91000048102000EFCFFFF10B50400034B083336
:10C92000036008F0BEF9200010BDC0466C81020013
:10C930007FB50425837904002B4204D1FDF7B6F9B5
:10C94000A3791D43A57120004830FFF755F9002554
:10C95000A8420DD1230058331978062302AE009364
:10C9600001223300606CFEF7BDFE051E03D00D4DA5
:10C97000280004B070BD002104200222A37A3056A2
:10C980007156B25659435A434343DB002362D200E7
:10C9900023685242C90020009B6AA261E161984766
:10C9A000E6E7C0460EFCFFFFF8B504000F001900D3
:10C9B00006AB1E8807AB15001A88FDF763FE0F4B08
:10C9C0006764083323602300AA8848339A80AA79D1
:10C9D0009A710B4AA968A2640E22AA562165210009
:10C9E000A889543108809A730023A3712300583317
:10C9F0001E802000FFF738FF2000F8BD6C81020088
:10CA0000F87E020010B50400034B0833036008F001
:10CA100015FA200010BDC04600820200F0B50700E4
:10CA20005C370023040010223978806C87B008F04E
:10CA3000FEFD214D03002800002B3BD10F2602AB49
:10CA4000F6180123397808220093A06C3300FEF712
:10CA500049FEA8422DD003223378134203D064202C
:10CA6000FDF7C2F9EAE7FA262189144DB6007143B1
:10CA7000280009F0B2FC310005F084F82081A023E1
:10CA800011223978A06C08F0D2FD002811D1A36CD6
:10CA900021890393714328003F7809F099FC012311
:10CAA0001843C3B210223900039808F0C0FD0028D3
:10CAB00000D0014807B0F0BD0EFCFFFFA0810200CE
:10CAC00070B508258379040086B02B4204D1FDF7A8
:10CAD000EDF8A3791D43A57120004C30FFF78CF8C9
:10CAE000051E0DD023005C331978062304AE009395
:10CAF00001223300A06CFEF7F5FD051E03D0134D97
:10CB0000280006B070BD0E2332786B445A707278DC
:10CB100020001A700022995E64224A43A263B27810
:10CB20005A70F2781A700022995E64225242514380
:10CB30006163317959707179197000215B5E5A43D4
:10CB40002368E2631B6A9847DAE7C0460EFCFFFFE2
:10CB5000F8B504000F00190006AB1E8807AB1500DE
:10CB60001A88FDF7E9FF0D4BA76408332360230003
:10CB7000AA884C339A80AA799A71094AA968E26412
:10CB80000E22AA5661652100A889583108801E82AC
:10CB900020009A73FFF742FF2000F8BD00820200D8
:10CBA000F87E0200F0B5FA250189234FAD0085B06B
:10CBB00004006943380009F010FC290004F0E2FF8A
:10CBC0001E4EA17A2081300009F007FC636CA07230
:10CBD000029323005833218901931B78694338005D
:10CBE000039309F0F5FB07230343202203990298DE
:10CBF000DBB208F01CFD00281AD1019B2222197813
:10CC0000606C102308F013FD002811D1019BA17A5C
:10CC100030001F78656C09F0DBFB80235B42034327
:10CC2000232239002800DBB208F001FD002800D0E3
:10CC3000034805B0F0BDC046348202002C820200D9
:10CC40000EFCFFFF10B50400034B0833036008F02F
:10CC500028F8200010BDC046A4820200F0B50425CB
:10CC60008379040085B02B4204D1FDF71FF8A37926
:10CC70001D43A57120004830FEF7BEFF051E0DD0F4
:10CC8000230058331978062302AE0093A8223300FC
:10CC9000606CFEF727FD051E03D0144D280005B07B
:10CCA000F0BD1F200023F25ED31703409B18022221
:10CCB000B15E5B11CA17024052180421775E3380BF
:10CCC000F9170140A07A52114343C91972804911E2
:10CCD0004243B18041435B42E361236852422000FA
:10CCE0009B6AA26121629847D8E7C0460EFCFFFF0D
:10CCF000F8B504000F00190006AB1E8807AB15003D
:10CD00001A88FDF7BFFC0F4B6764083323602300CC
:10CD1000AA8848339A80AA799A710B4AA968A264B2
:10CD20000E22AA5621652100A889543108809A73E1
:10CD30000023A371230058331E802000FFF732FF29
:10CD40002000F8BDA4820200F87E0200F7B5FA25A3
:10CD500004000189134EAD006943300009F03DFB2A
:10CD6000290004F00FFF2700A36C208100935C379B
:10CD70003B7881B269433000019309F029FB6022BE
:10CD8000C3B20199009808F052FC002807D1012392
:10CD900062223978A06C08F04AFC002800D00248D2
:10CDA000FEBDC046D88202000EFCFFFF10B5040095
:10CDB000034B0833036008F041F8200010BDC04663
:10CDC000008302007FB50825837904002B4204D13B
:10CDD000FCF76CFFA3791D43A57120004C30FEF7D2
:10CDE0000BFF051E0DD023005C331978062302AE1D
:10CDF0000093E8223300A06CFEF774FC051E03D0FC
:10CE00000B4D280004B070BD0223F25E96235B42F6
:10CE10005A4362630021725E20005343A3630423DC
:10CE2000F25E96235343E36323681B6A9847E8E75F
:10CE30000EFCFFFFF8B504000F00190006AB1E88BA
:10CE400007AB15001A88FDF777FE0D4BA764083372
:10CE500023602300AA884C339A80AA799A71094AE0
:10CE6000A968E2640E22AA5661652100A88958319A
:10CE700008801E8220009A73FFF768FF2000F8BD2B
:10CE800000830200F87E020010B50400054B083351
:10CE900003601C3007F0F5FC2000183007F0F1FCAF
:10CEA000200010BD2C830200FF23F0B52C4E8DB066
:10CEB00033700023040069460088009303F0B6F83D
:10CEC000002802D16B469B783370264D2B68DB68B7
:10CED000002B07D1002320881A00190008F0F1FF69
:10CEE0000DB0F0BD3378032BF4D81F4901A8FDF72E
:10CEF00093F92B6801A9DD6804A807F017FD280045
:10CF000004A908F03CFF0027050004A807F0B9FCBD
:10CF1000BD421ED029002022103104A806F000F9DD
:10CF200028000AF01FFE317804ABC9005918082206
:10CF300002A806F0F5F801230822208802A908F0CB
:10CF4000C0FF0137002804D10C212088074A08F0CF
:10CF5000B6FF01A807F095FC002FBBD0C0E7C04684
:10CF60009D20002078290020AA8E0200FFFF0000EB
:10CF7000F0B58379040091B05B071BD5FDF708F984
:10CF800000232269801A9941994203D1F533FF3376
:10CF900098420FD3A068002808D0354B1D8801F0B7
:10CFA000FFF80368152229001B6A98470422A37919
:10CFB0009343A371A3799B0758D52E4E3368DB6842
:10CFC000002B4FD02C4F3B78032B4BD8284B2B49B1
:10CFD0001B8804A80193FDF71FF9336804A9DD68D5
:10CFE00008A807F0A3FC08A9280008F0C8FE05005F
:10CFF00008A807F046FC082302AAD3800198073B43
:10D00000063206A908F05FFF002D08D02900202273
:10D01000103108A806F084F828000AF0A3FD3D7836
:10D0200002ABDA88ED0008AB5D19280006A906F00E
:10D0300053F8002813D00822280006A906F070F83B
:10D04000336804A9DD6805A807F070FC20232800D8
:10D0500008AA05A908F099FE05A807F012FC04A883
:10D0600007F00FFC0222A3799343A37111B0F0BD26
:10D07000982D0020782900209D200020AA8E0200F3
:10D08000F0B50400150085B001930AAB1F880BAB07
:10D090001B78461C02930EAB1B78102203930B786F
:10D0A00003704B8A01314382300006F039F8656124
:10D0B00000250122019B27836383039BE58323775C
:10D0C000029B2000F377A31CDA770C9B0C2663628B
:10D0D00023000D9A283329001A705D7032009D706C
:10D0E0002C3006F0C5F82000064B3200A36329005F
:10D0F000E563403006F0BCF82000034B2565E3648F
:10D1000005B0F0BDDD5E0200CF5E020070B50D001F
:10D1100001F046F804000368002D09D15B699847C7
:10D12000FA2080006843074904F02CFDE08070BDC0
:10D130009B6898478542F3D2236820009B689847F4
:10D140000500EDE771020000F0B507001500A1B081
:10D1500002C706006B4918A81C0008F0B7FF2B1E79
:10D1600003D0280006F04EFB83B201220492002275
:10D17000039202920232019200932A0018A9380009
:10D18000FFF77EFF33006049583318A8079308F073
:10D190009DFF231E03D0200006F034FB83B2012242
:10D1A0000492002203920292023201920093220022
:10D1B00018A90798FFF764FF33005449AC3318A847
:10D1C000089308F083FF269B002B03D0180006F07D
:10D1D00019FB83B2012204920022039202920232CE
:10D1E00001920093269A18A90898FFF749FF731C2B
:10D1F000FF33474918A8099308F068FF279B002BC5
:10D2000003D0180006F0FEFA83B201220492002235
:10D21000701C03920292023201920093279A18A97D
:10D22000FF30FFF72DFF33005533FF33394918A87E
:10D23000099308F04BFF289B002B03D0180006F041
:10D24000E1FA83B201220492002203920292023296
:10D2500001920093289A18A90998FFF711FF33004B
:10D26000A933FF332C4918A80A9308F02FFF299BF4
:10D27000002B03D0180006F0C5FA83B201220492F5
:10D28000002218AC03920292023201920093210014
:10D29000299A0A98FFF7F4FE204B1B780B93002B7A
:10D2A0002DD1079B1E491393089B0DA81493731C43
:10D2B000FF331593099B129716930A9B12AD179390
:10D2C00008F004FF1D21492006AB1B7F10222370AC
:10D2D00006ABDB8D638206ABC918C01805F020FFD2
:10D2E000062323750B9B1E953068A38300F068FF0F
:10D2F000036821001B6898470122084B1A70300010
:10D3000021B0F0BD292A0000242A0000252A0000AF
:10D31000272A0000262A0000282A0000192E0020B3
:10D320000A18000070B5002504000B4B85800833F7
:10D3300085710360C1601830FCF7D8FF20001C30F5
:10D34000FCF7D4FF0123621CD377044A2000A560B8
:10D3500065611460A37170BD2C83020078290020E0
:10D36000FA2130B585B00400012302226846890005
:10D3700007F030FB074D2868002809D008F0B2FEFE
:10D380002188054B2A681980022391790B439371F8
:10D3900005B030BD78290020982D002010B50C0074
:10D3A00007290FD8806800F0FBFE074B1957036868
:10D3B0005B6C984743425841044B40421840044B31
:10D3C000C01810BD0348FCE734900200EA030000D7
:10D3D00016FCFFFF17FCFFFFF0B5A04C0D00A544A5
:10D3E000040007939AAB1B789D4909A80493069201
:10D3F000FCF712FF200029001C3007F09FFAC02024
:10D40000800000F0C7FF08200AF0B0FB06000021F2
:10D410000EAF09F05AF815AD0C220021A6603800B5
:10D4200005F026FF2B0007CF07C38E4B2900EB60CA
:10D43000002330002B6109F031F8A06800F0B0FE45
:10D4400008220021059016A805F012FF14200AF00A
:10D450008DFB854B2A0015930300C2CAC2C3834BC0
:10D46000059EC3600023A03603617368002B00D0C3
:10D47000EEE07060A06800F0A3FE08220021060024
:10D4800016A805F0F5FE14200AF070FB784B1593F2
:10D49000030086CD86C3774BC36000230361336BE3
:10D4A000002B00D0D6E03063A06800F079FE08229F
:10D4B0000021059016A805F0DBFE14200AF056FBAB
:10D4C0006D4B15AD15932A000300C2CAC2C36B4B46
:10D4D000059EC3600023943603617368002B00D05F
:10D4E000BAE07060012604AB1B7C04AA334308A990
:10D4F0003000137408F0E9FCA06800F071FE0368C6
:10D500005F495B6A9847A06800F06AFE03685D495E
:10D510009B699847A06800F063FE002302680093AF
:10D52000176804993200B847049B002B0AD02000EA
:10D5300008F0E1FD032805DDA06800F051FE036856
:10D54000DB68984700260EAFB819073608F00FFDC4
:10D550001C2EF8D1183E04ABA0685E770A9700F045
:10D560003FFE03680AA91B699847A06800F018FEEF
:10D5700003680AA95B6D9847A06800F011FE036874
:10D580000021DB6D9847A06800F00AFE03680221C5
:10D590009B6D984700212000FFF700FF18200AF03C
:10D5A000E5FAA16800F054FA374B384A1B68A168C5
:10D5B0000393374B28001B6800250293354B1B68EB
:10D5C0000193069B1B689B190093334B12681B68E1
:10D5D000FFF7BAFD30200AF0C9FA079AA16800F0F7
:10D5E000F9FAA06800F0DCFD03680CA99B6A984773
:10D5F000082304AA1384A068DB185384958400F0E0
:10D60000CFFD03680CA9DB6A98473100A06808F0D9
:10D6100030FD099A09219378A068921908F03CFD21
:10D62000A06800F0BDFD32210571A068FFF76EFD16
:10D6300004AB1B7FAB4204D0A06800F0B1FD08F042
:10D640008CFC09A807F01DF995239B009D44F0BDB3
:10D6500003610EE7036126E7036142E7ACFDFFFFCC
:10D66000B68E0200EB5E020061D30100F95E02009B
:10D67000A9CE0100075F0200355F0200155F0200BE
:10D680009DD60100D1D60100742900207029002008
:10D69000082000206C2900200C20002013B5062251
:10D6A0006846FCF7F9FD094B1C68002C0AD0694656
:10D6B00001A807F03BF9200001A908F036FD01A8F8
:10D6C00007F0DFF8684607F0DCF813BD7829002082
:10D6D000002373B501AE0C0031000500019302F088
:10D6E000A5FC002802D1B278064B1A70064B1868C8
:10D6F000002806D0054B1D8063425C41E1B208F072
:10D700001CFD73BD9D20002078290020982D00204D
:10D7100030B5284CA9B06A220D000DA8210005F0F3
:10D72000FFFC0DA903A8FCF731FE03A906A807F02A
:10D7300081F901230193013BFF3B00930533FF3344
:10D74000642206A92800FDF773FF06A807F065F913
:10D75000210019226A3106A805F0E2FC0522002406
:10D76000110006AB04A807F08CF904A905A807F07E
:10D7700061F92300220028000194009405A9FDF717
:10D7800099FE05A807F049F921002800FDF780FF60
:10D7900005340520FCF728FBFF2CF5D1FA2080008A
:10D7A000FCF722FB04A807F038F903A807F035F9C5
:10D7B00029B030BDB18F0200F0B59C4B95B00592F9
:10D7C0001A68082304000F00D16C06A80B43D36429
:10D7D0009749FCF721FD974907A8FCF71DFD22009A
:10D7E00000250DAE30001C3206A907F0C6F8310046
:10D7F00007AA08A807F0C1F8300007F042F8631C38
:10D80000DD77A06800F0CCFC03685B69984770196D
:10D81000073508F0ACFB1C2DF9D180230BADDB00E4
:10D82000AB80A0680B9600F0BBFC036829005B6D21
:10D830009847A06800F0B4FC036800219B6D9847EE
:10D84000A06800F0ADFC0300002506000A331F228B
:10D8500000211800039305F00BFD039B3000DD77DA
:10D8600008F072FB0621A06808F003FC089A092161
:10D870009378A068043208F00FFCA06800F090FCD8
:10D88000C8210571A068FFF741FCA06800F088FC82
:10D890000581A06800F084FC08F05FFB3800FDF70C
:10D8A0009BFD2000FCF702FA39002000FFF730FF53
:10D8B0003900200008F054FCFF23049503936269AB
:10D8C000012316001E401A4232D05B4909A8FCF71A
:10D8D000D7FD09A90AA807F0ADF800220AA913008C
:10D8E000019200923800FDF7E5FD0AA807F095F8CF
:10D8F000049B002B47D1039B043B0393039B282BE2
:10D9000044DC380007F086FE039B002B00DC049605
:10D91000059807F07FFA002806D0012362699A4330
:10D92000130004221343636109A807F076F8002569
:10D9300004226369134234D0FF213800C826FDF762
:10D94000A7FE0025B600A36902229B5EAB4223DD41
:10D95000200029B2183007F026F800230100380013
:10D960001A007430FCF7DCFD3000FCF73DFA38009B
:10D9700007F050FEC820FCF737FA02226369134211
:10D980000AD10135DFE7039B0433B6E7039BFE2B87
:10D99000BEDD00230493BBE7FA208000FCF724FAE5
:10D9A00000250222636913421ED01E000632164073
:10D9B000134224D0214909A8FCF762FD09A90AA84D
:10D9C00007F038F800220AA91300019200923800EB
:10D9D000FDF770FD0AA807F020F81948FCF704FAD3
:10D9E00009A807F01AF8174D6420FCF7FDF9164B4B
:10D9F00001359D4200DC62E706F0EDFD5FE713496B
:10DA000009A8FCF73DFD09A90AA807F013F833009F
:10DA100032000AA9380001960096FDF74BFD0AA8CE
:10DA200006F0FBFF09A806F0F8FFDDE7FC28002060
:10DA3000C48E0200D48E0200D68E02001B8F02001C
:10DA4000983A00008C0A00008B0A0000588F0200F0
:10DA50005A4BF0B508330360816004002520A9B05B
:10DA600002AB10220391C018002105F001FC0BAE9F
:10DA700001233200524833700E33195C01321170A9
:10DA8000013BFAD2312202ABD218537811781B0233
:10DA90000B43252113AD22006B8202ABC91845232D
:10DAA0000C32029202A832781B1818002A70102239
:10DAB00005F036FB029B642118930A2300260127F8
:10DAC00002AA521813705B1802AA9B1831000C228C
:10DAD0001E702F77EE832E851EA819971C9605F0D1
