:020000021000EC
:108000000040002019100200551002005710020015
:108010000000000000000000000000000000000060
:1080200000000000000000000000000059100200E5
:1080300000000000000000005B1002005D10020064
:108040005F100200ADBC0100D51602005F100200F7
:108050005F10020000000000911002005F1002009B
:108060005F100200AD1802005D1502005F100200F3
:108070005F1002005F1002005F1002005F1002003C
:108080005F1002005F1002005F1002005F1002002C
:108090005F100200D90A0200C50D02005F10020045
:1080A0005F1002005F1002000000000000000000EE
:1080B00000000000000000000000000000000000C0
:1080C0000448054B10B5834203D0044B002B00D06D
:1080D000984710BDB4200020B4200020000000000C
:1080E00006480749091A8B10C90FC91810B549105D
:1080F00003D0044B002B00D0984710BDB4200020C3
:10810000B42000200000000010B5074C2378002B9D
:1081100009D1FFF7D5FF054B002B02D0044800E042
:1081200000BF0123237010BDD020002000000000FC
:10813000D08E0200054B10B5002B03D00449054832
:1081400000E000BFFFF7CCFF10BDC04600000000FC
:10815000D4200020D08E0200402292029A1A924629
:108160007047C046154B002B00D1114B9D46FFF7C1
:10817000F3FF00218B460F461148124A121A0BF0EA
:108180000BF80C4B002B00D098470B4B002B00D06A
:1081900098470020002104000D000B480AF08CFED7
:1081A0000AF0D2FE200029000FF074FA0AF0A2FEB5
:1081B0000000080000000000000000000040002057
:1081C000B82000209C2E0020212F0200F0B58BB09B
:1081D0000F00060014000021182204A81D000AF058
:1081E000DBFF6B4680205F7418746B000B2D26DC60
:1081F000002D09D0220004A9651914780132887075
:10820000CC7002319542F8D100227A210092706838
:10821000023304AA03F0FEF9041E0DD035680949A3
:10822000F03503A801F0A0FF7822280003A903F08D
:1082300047F903A80CF063FA20000BB0F0BD162438
:108240006442F9E71C88020010B5044BC154C218FF
:1082500081210123FFF7BAFF10BDC0460F040000C3
:1082600010B5074BC35C082B05D10023A1211A00D0
:10827000FFF7ACFF10BD0023A0211A00F8E7C046AD
:10828000110400000F2373B519406B46120111430E
:10829000C9B2DE1C04003170F0290DD005680A490E
:1082A000F03501A801F060FF7822280001A903F051
:1082B00007F901A80CF023FA32000123D521200090
:1082C000FFF784FF76BDC0462A880200F7B56B46EB
:1082D000012700250400DE1C574B3900C754806875
:1082E000357003F0F9FB380001F026FD2900A06885
:1082F00003F0F2FB0A2001F01FFD3900A06803F033
:10830000EBFB2B002A00AE212000FFF75FFF051ECC
:108310000FD024684949F03401A801F025FF7822E4
:10832000200001A903F0CCF801A80CF0E8F928001E
:10833000FEBD022120000BF01CFF051E03D02468A7
:108340003F49F034E8E70F2201002000FFF79AFFD1
:108350003F2120000BF035FF3A4B2000E25C3A4B06
:10836000E15C0BF039FF2B002A0029002000FFF709
:108370002DFF364BE35C002B07D1143333703200F2
:108380003B008D212000FFF721FF002120000BF092
:10839000D3FE051E03D024682D49F034BCE701004C
:1083A0007F2220000BF0D1FE2900072220000BF0D5
:1083B000D6FE2000FFF754FF051E03D02468254990
:1083C000F034A9E720000BF0ECFE051E03D0246872
:1083D0002149F034A0E712233200DA213370200063
:1083E000113BFFF7F3FEFF212000FFF72DFF174B96
:1083F000E35C002B0FD1F1333200D9213370200020
:10840000F03BFFF7E3FE302332003370DB21200026
:108410002F3BFFF7DBFE0023B0211A002000FFF7FF
:10842000D5FE042120000BF0A4FE012120000BF05A
:10843000ABFE05007BE7C04615040000368802004D
:10844000428802001304000012040000140400001B
:10845000518802005A880200638802007FB5184ED6
:108460000500815D00290DD17F220BF06EFE041EF8
:1084700023D10100072228000BF071FE041E1CD13D
:108480000123AB5540232B7300232A0000937A214C
:108490000C4B68680C3203F0BDF8041E0DD02D683B
:1084A0000949F03503A801F05FFE7822280003A9EE
:1084B00003F006F803A80CF022F9200004B070BD08
:1084C00015040000010400006C88020010B50400CF
:1084D0002160210002A8A36000780B4B62600C3180
:1084E000E054002220000BF08BFE084B084A2000CD
:1084F000E252084A0233E2508022074B5200E25215
:10850000FFF7E4FE200010BD0D0400000E04000083
:108510000480FFFF07080A0414040000F0B587B0C8
:10852000039018000C00160004930BF09FF8002530
:108530000590059B9D421EDA049B5A5D0023202A6C
:1085400002D91300203BDBB20D4A0399DB009B18D4
:10855000771CFFB200933200230003980C310BF01C
:1085600059FE0F2F04D90134E4B2072C04D8002798
:108570003E000135DDE7059D280007B0F0BDC0468F
:10858000287A02007FB5134B03AA1B7800261370CC
:108590006B46DE73437A0400012B15D00125017A66
:1085A00000952B00406803F035F80F222B00217A4C
:1085B000606800966A4403F01DF8B04207D16B462C
:1085C000DB7B602B03D06072607A04B070BD657293
:1085D000FAE7C0467E880200F0B504000126444B4D
:1085E00089B01B7802AA0120137301F0A5FB217A40
:1085F0000096330005AA0027606803F00BF82200FC
:10860000217A009706236068103202F0F3FF05001C
:10861000B84203D06772280009B0F0BD300001F005
:108620008BFB8E2302AA1373217A0096330005AACE
:10863000606802F0EFFF2200217A00951223606843
:108640001632029502F0D6FF051EE3D1300001F08C
:1086500073FBA12302AA1373217A0096330005AAA3
:10866000606802F0D7FF06AF217A009533003A0028
:108670006068039502F0BEFF029B051E18D1300012
:1086800001F05AFBE12302AA1373217A009633000A
:1086900005AA606802F0BEFF1122217A02A80095A7
:1086A00012180723606802F0A5FF051E02D0039B85
:1086B0006372B0E723003A7828331A7002AB5A7C11
:1086C0009B7C1B02134363852300FA782C331A70BA
:1086D0000F227B7939791A4009010A43E285BA7978
:1086E0001B09120113432386FB793234237092E76E
:1086F00080880200F0B59C4604000D0025606546A8
:108700001600257200256660F22689B012A800784E
:1087100065720390039D0EABA57306AD2E700236F5
:108720001978AE7001362E71EE3EA172314069703B
:108730001C210FAB1F7810AB1B78E77223739B00D3
:108740000B407F011F43032311AA127813A800785E
:1087500062731A40039BE073800008405B0118437A
:108760003A436871EA702000FFF70CFF01280FD030
:10877000002326681E496372F03605A801F0F4FC58
:108780007822300005A902F09BFE05A80BF0B7FF88
:10879000002606232A00217A6068009602F03AFF3C
:1087A000B0420ED0256813496672F03505A801F075
:1087B000DBFC7822280005A902F082FE05A80BF058
:1087C0009EFF2000FFF708FF00280DD025680A490A
:1087D000F03505A801F0C8FC7822280005A902F0B0
:1087E0006FFE05A80BF08BFF200009B0F0BDC0465E
:1087F0009F880200B288020082880200F0B589B02A
:108800000393234B05AD1B7804002B70437A0F00B4
:108810001600012B05D0FFF7B5FE012835D101F078
:108820008BFA01232A00217A0093606802F0F2FE9D
:10883000002306AD00932A00217A6068083302F015
:10884000D9FE002803D00023637209B0F0BD002FC9
:1088500008D02B786A781B0312011343AA781209F7
:1088600013433B60002E08D0EB782A791B031201DA
:1088700013436A79120913433360039B002BE4D03E
:10888000EB88039A5BBA1380DFE701204042DCE704
:108890009488020070B50400436B244A5B109B1857
:1088A0009E1076430D001A22815E72134A431820EF
:1088B000215ED210594349105218802192140902A6
:1088C0005218E18A5143C913081E2AD02020225E83
:1088D000F61256431E20225E53431C22A05E5B000C
:1088E0009B1900049B10C3181B1311485D196843A2
:1088F000104BC01816D4400009F0ECF802002425F3
:10890000635F90084343D10849432225605F5B13AE
:108910001B182620205E490B48430013181800112D
:10892000801870BD09F0D6F84200E8E70006FFFFA6
:10893000CBF3FFFF000050C3436B244A10B59A18D5
:108940008B038021C9015B182E24015F0905591A88
:108950003024035F80245343CB1A01002C31097863
:1089600024025143C9120919040032342478DB135C
:1089700064B2624392124A438021921289035218D0
:108980002A24015F28304A4380218901521892131A
:108990005343DA1352430178D2114A4312119B1AFE
:1089A000C8225205934202DCDA43D2171A406424EB
:1089B0001313980A4443FA209B059B0D80005843EB
:1089C0000A21800A09F086F8201810BD00D4FEFFA5
:1089D0007FB504002372002362606A4608A8067807
:1089E0000AAD09A800782D78A0722373284381333B
:1089F00013812160507266722000E5720BF02EFC2C
:108A000001280DD025681649F03503A801F0ACFB0C
:108A10007822280003A902F053FD03A80BF06FFE93
:108A20000025012001F088F90223217A6068009571
:108A300002AA02F0EFFDA8420ED02573256809496D
:108A4000F03503A801F090FB7822280003A902F07A
:108A500037FD03A80BF053FE200004B070BDC046E4
:108A600096880200A988020070B5C37A0600002B20
:108A700028D0013B581E83415842424B1840C02326
:108A80005B01C018B37A002B00D1000100234143E1
:108A900050438C0A850A9C4203D0210009F01AF841
:108AA0000300727A01335B08022A0ED9032A24D00C
:108AB0000020010080234C4368439B01E418201AE6
:108AC000800B70BDE8200002DCE7402B2DD9802B05
:108AD00030D9C02B32D980225200934231D938325A
:108AE000934231D96232934233D90020264A0100A1
:108AF0009342DFD812301831DCE7432B2CD9852B79
:108B00002ED9C82B2FD98522520093422ED9443218
:108B100093422ED34C3293422FD900201A4A01009F
:108B20009342C7D82B303731C4E7DF20F92140000A
:108B30004900BFE7852115488900BBE7144815495E
:108B4000B8E79C211448F7E7FE2070214000FF3170
:108B5000B0E7FB20D221ADE7AE208121FF30EBE76B
:108B60008A210E48E8E70E480E49A3E70E480F4950
:108B7000A0E7DE207821FF30E9E728200221FF303E
:108B8000E5E7C04600ECFFFF9A020000D1020000BA
:108B90007B0300003F020000FE030000C102000052
:108BA0006303000053020000DF03000082020000A4
:108BB000F0B51E00174B87B01B78039204AA137000
:108BC0000123040000270291017A0093406802F01B
:108BD00021FD0423217A6068009705AA02F00AFDAE
:108BE0000500B84203D02773280007B0F0BD02ABE0
:108BF0009989DA89029B002B00D01980039B002BF6
:108C000000D01A80002EEFD02000FFF72DFF30603B
:108C1000EAE7C046BD88020010B50400034B0360BC
:108C200040300BF06CFD200010BDC046287D0200D6
:108C300013B504230022010001A801F005FB05493A
:108C400001A80BF0C8FD040001A80BF058FD20009E
:108C500016BDC046EC20002007B502006846094951
:108C60000BF0C9FD694601A80BF09EFD01A906485D
:108C70000CF011FF01A80BF042FD68460BF03FFD20
:108C800007BDC046EC2000209828002007B5084BFF
:108C90000068196804300BF023FB010001A801F003
:108CA00063FA01A8FFF7D8FF01A80BF028FD07BD64
:108CB0000420002013B50B68040002229B5E01A86B
:108CC000042201F0C1FA019B181D064B19680BF034
:108CD00016FB0100200001F047FA01A80BF00FFD80
:108CE000200016BD0420002010B588B0274907A831
:108CF00003F01EF907A904A801F046FA07A80BF033
:108D00008EFE04A906A80BF04FFD06A907A8FFF7E1
:108D1000D1FF079B0022043306211D48FFF7FEFB0D
:108D200007A80BF0ECFC06A80BF0E9FC04A907A8C7
:108D30000BF03AFD07A8FFF77BFF040007A80BF034
:108D4000DEFC002C1CD004A905A80BF02DFD05A904
:108D500006A8FFF7AFFF0223002206A907A801F02B
:108D600073FA079B0222191D0A480AF0ADFC07A8F6
:108D70000BF0C5FC06A80BF0C2FC05A80BF0BFFC6D
:108D800004A80BF0BCFC08B010BDC0469828002019
:108D900018210020842000200023F0B59DB005AEEE
:108DA000170004AA5380D380069307933380089357
:108DB0001300040007AA0233019106A9FFF71EFD64
:108DC000200007990BF032FA069905B22000FFF750
:108DD00061FD642108F07EFE03B2029304AB598862
:108DE0002000FFF7A9FD04AA03B206323100039365
:108DF000019808ABFFF7DCFEC44915A801F0B4F9EF
:108E00006421280008F0F0FE03B2190014A80193B1
:108E10000BF091FC14AA15A916A80BF0ECFCBC49A8
:108E200017A801F0A1F917AA16A918A80BF0E3FCDE
:108E30006421280008F0BEFF0CB22100002D03DCE5
:108E40006421684208F0B6FF19A80BF074FC19AA57
:108E500018A91AA80BF0CFFCAE491BA801F084F9A1
:108E60001BAA1AA909A80BF0C6FC1BA80BF047FC0B
:108E70001AA80BF044FC19A80BF041FC18A80BF041
:108E80003EFC17A80BF03BFC16A80BF038FC14A80E
:108E90000BF035FC15A80BF032FC9F4915A801F02A
:108EA00063F96421039808F09FFE01B214A80BF047
:108EB00042FC14AA15A916A80BF09DFC944E17A805
:108EC000310001F051F917AA16A918A80BF093FC6C
:108ED000210019A80BF02FFC19AA18A91AA80BF049
:108EE0008AFC8E491BA801F03FF91BAA1AA90AA8FF
:108EF0000BF081FC1BA80BF002FC1AA80BF0FFFB87
:108F000019A80BF0FCFB18A80BF0F9FB17A80BF045
:108F1000F6FB16A80BF0F3FB14A80BF0F0FB15A85A
:108F20000BF0EDFB7E4919A801F01EF9029918A873
:108F30000BF001FC18AA19A91AA80BF05CFC7949DE
:108F40001BA801F011F91BAA1AA90BA80BF053FCDE
:108F50001BA80BF0D4FB1AA80BF0D1FB18A80BF040
:108F6000CEFB19A80BF0CBFB6F491BA801F0FCF856
:108F700008991AA80BF0DFFB1AAA1BA90CA80BF082
:108F80003AFC1AA80BF0BBFB1BA80BF0B8FB01F0D6
:108F9000A7F8664902900FA801F0E6F801990EA81B
:108FA0000BF0C9FB0EAA0FA910A80BF024FC31008E
:108FB00011A801F0D9F810A911AA12A80BF01BFCF6
:108FC0002100002D03DC6421684208F0F3FE13A8A1
:108FD0000BF0B1FB13AA12A914A80BF00CFC544916
:108FE00015A801F0C1F815AA14A916A80BF003FCE6
:108FF000089917A80BF09FFB17AA16A918A80BF041
:10900000FAFB4C4919A801F0AFF819AA18A91AA837
:109010000BF0F1FB02991BA80BF08DFB1BAA1AA900
:109020000DA80BF0E8FB1BA80BF069FB1AA80BF0CE
:1090300066FB19A80BF063FB18A80BF060FB17A8E0
:109040000BF05DFB16A80BF05AFB15A80BF057FBB5
:1090500014A80BF054FB13A80BF051FB12A80BF053
:109060004EFB11A80BF04BFB10A80BF048FB0EA811
:109070000BF045FB0FA80BF042FB00253B682E4C84
:1090800002229B5EAB4222DDEEB22C4B002231006D
:109090002000FFF743FA3B685B191B79502B12D075
:1090A00005D8482B0DD04C2B0FD00135E6E7542BBB
:1090B000FBD1099B0022310020000433FFF72EFA78
:1090C000F3E70A9BF6E70B9BF4E70C9BF2E70DA98D
:1090D0001BA80BF069FB1BA8FFF7D8FD1BA80BF022
:1090E0000EFB2000FFF7BAF90DA80BF008FB0CA847
:1090F0000BF005FB0BA80BF002FB0AA80BF0FFFA24
:1091000009A80BF0FCFA1DB0F0BDC046BF880200F4
:10911000C5880200C7880200CA880200D088020001
:10912000D4880200DA880200DF880200E4880200A6
:10913000E7880200EB88020018210020ED88020079
:10914000F7B5174D280000F0D7F8164C280022007C
:1091500015490EF03EFC154F002238001E210CF080
:109160009CF9134E022330000322642102F062FCBA
:10917000220030000F490EF02CFC7A233A0029001F
:1091800000930D483300FFF7A1F90C4D0C4928005E
:1091900000F0EAFF280022000A490EF01AFCF7BD91
:1091A0003025002000200020C9910100002100206E
:1091B000F0200020CD42020018210020EC200020E9
:1091C000FC880200FF460200CB23144A9B0010B526
:1091D000C2501C330400C0180BF091FAD1239B003D
:1091E000E0180BF08CFA20009130FF3001F008FC01
:1091F00020006930FF3001F003FC2000F03001F066
:1092000071FF2000D03002F0F1FA2000643007F046
:1092100061FE201DFFF700FD200010BDB48102009B
:10922000F0B52D4D9BB0280000F01CF92B4E3921D4
:10923000300002F06DFD30200EF0D6FB102304004C
:10924000092100930122264B0BF0F3F92100254858
:1092500002F060FA002805D020000BF004FA20008C
:109260000EF0BEFB300002F067FD00221E4C110024
:109270001E4B2000FFF752F92000FFF7EFF8032301
:10928000002401271A4E039302333200290005946B
:109290000293019300930497E7330CA8FFF72AFA8F
:1092A00001940094522332002900FA24029708A85E
:1092B000FFF78EFBA4000F4907A800F055FF07AA8F
:1092C00008A90CA8FFF768FD07A80BF018FA200002
:1092D00000F032FDEFE7C046302500208028002056
:1092E000E98C0100002600201821002001890200DD
:1092F00000210020842000201423F0B5040093B046
:10930000192200931821043002F058FE2300250092
:10931000260064331800B43513211093B83607F0D3
:10932000E5FD28000CF034FC00221E2130000CF07A
:10933000B4F82000D03002F079FA2300F03307218E
:109340001800454A119301F0F5FE20000027012383
:1093500069301A0011210097FF3001F05DFB2000F9
:109360009130012302221A210097FF3001F054FBB3
:109370002000B930022201210323FF3002F022FB3A
:10938000300001F04FF9E4235B00E050300001F0C1
:109390009DFBE6235B00E0500100E4222000520028
:1093A000D130119BA2580095FF3001F091FC2000B4
:1093B000E13029000822FF3002F09CFF78232000D2
:1093C0000F93013B0E93033B0D93013B0C93013B29
:1093D0000B93013B0A93013B0993013B0893013B2B
:1093E0000793013B0693013B0593013B0493013B2B
:1093F0000393013B0293013B0193F930013B65224A
:1094000000936421013BFF300CF068F8CB239B00F4
:109410002900E01803F02EFFD4239B00E018092157
:1094200002F0E0FBDE239B00E75010980321277039
:109430000EF006F823002200200008499C33A032D9
:109440001C6082C2064A02215A618030012207F064
:10945000D1FE200013B0F0BD307D02003F4302007A
:10946000294302000278F0B501231700040091B0EF
:109470001F401A4263D10300D0331800049300F058
:10948000CBFA00F0DDF930200EF0AEFA0500103016
:109490000BF0D4F9280024300BF058F86A4B182050
:1094A0002B600EF0A1FA0600684B08223900046018
:1094B0000C300E930F9709F06FFE0EA90822301D95
:1094C00009F0C2FD624B2900736112230498AE605B
:1094D000EF60AB802F62EF6202F01CF9002805D02C
:1094E00028000BF0C0F828000EF07AFA01232600BD
:1094F0002278B43613432370564930000CF04EFBEB
:1095000000255549039030000CF048FB2F000590D2
:10951000642000F011FC029523006933FF3318002A
:1095200006930BF0B5FB00280BD1039B002B12D147
:10953000059B002B0FD14949494800F0C1FC11B0EF
:10954000F0BD20009130FF300BF0A2FB0028ECD0E2
:10955000029B182BE9DC20006530FF2339B22AB2C8
:10956000FF3000F0C9FE322000F0E6FB029B01371D
:109570000133FFB20293052F02D100270135EDB26E
:10958000029B192B0AD0039B002BC5D03000314918
:1095900002F042FE03980EF023FA02E0039B002B38
:1095A000F4D1059B002B02D018000EF019FA2B49BC
:1095B0002C4800F085FCCB239B00E3180793DE23A7
:1095C0009B00E3580893002B36D100F059F80100B6
:1095D0000BA800F0C9FD0AF038FF08900AF035FF2B
:1095E0006B460990198C0DA80BF0A5F8099B0EA8E5
:1095F000190C0BF0A0F80EAA0DA90CA80BF0FBF8A3
:109600000EA80BF07CF80DA80BF079F801230CAA3A
:109610000BA907980093049B03F086FE0CA80BF09F
:109620006EF80BA80BF06BF8CD239B00E358089362
:10963000DE23089A9B00E2502100069A0798F03139
:1096400004F062F868E7C046FD030000B143020081
:1096500071430200078902001289020000200020E5
:1096600008000020001C0020BFF34F8F024B034A6C
:10967000DA60BFF34F8FFEE700ED00E00400FA056B
:10968000F0B58BB003AF19223800154909F0DCFCA6
:109690000023144D05266B7180235B055B6E2C0047
:1096A0000093012301933100009808F099FA080013
:1096B000019908F00FFA0522009B56431B1A0093EC
:1096C000019B534301932B1B5343FB181B5C013C31
:1096D0006371054B9C42E6D102480BB0F0BDC04619
:1096E00058890200D62D0020D12D0020F0B595B06C
:1096F0001822002104000EA809F04EFD13210EA827
:109700000DF0AEFF03210EA80EF04DF8464B1B687E
:10971000002B00D10133DBB2009300210123434A27
:1097200009A807F0D7FEFA239B009C429B411C40EE
:1097300072B63F4B64211E683E4B20000593052501
:1097400008F052FA6843503030180A210690200081
:1097500008F04AFA0A2108F02DFB694350317118CC
:10976000200007910A2108F025FB69435031711848
:10977000802600240891B601009B002B52D004AD36
:109780000027032C02D180260024B6016B682A4AE8
:1097900002936300D3180022019258780299095C61
:1097A000039119788C4610216046014103980142CB
:1097B00004D0012090400199014301910132063308
:1097C000092AEAD1019B2A68D9431C4B0901194097
:1097D000029B934224D1312F22DC002109A80EF0F4
:1097E0009BF8FA23139A0F99DB001068014219D0F5
:1097F000013B002BF9D1FA23013401377600E4B2A2
:109800005B009F42BDD1043508ABAB42B8D1064BDB
:109810001B68002BB0D0009B013BDBB20093ABE791
:109820003143DBE7FFF720FFB0280020F0FF000006
:1098300008200020A789020071890200F01F0000A3
:10984000F8B50023124C23600AF0F1FD002808D07F
:10985000042120000AF0E7FD002801D00D4B236011
:10986000F8BD0123A12704210B4A0C4D1360236886
:10987000FF0068606E68002EFCD0D6591B020139CB
:1098800033430029F5D1236001235360E8E7C04644
:10989000AC280020ED5EBC0B00D00040FCD00040A6
:1098A0000B4B70B51C68002C10D0656D00F018FCD7
:1098B000A36C002901D1834206D820000AF00EFED5
:1098C000200004490AF0FAFD2C00ECE770BDC04608
:1098D000B8280020D8280020F0B595B007932A4B6F
:1098E00004AC1E68049005910692002E49D0274BC7
:1098F000678825881C6800230293002C2DD0636D97
:1099000023480393A36C190C9AB20B00854214D11F
:109910002048824211D1002901D0B9420BD1029BCB
:10992000002B08D120000AF0D9FD20001A490AF0C6
:10993000C5FD01230293039CDFE7002A01D0954275
:10994000F9D1002901D0BB42F5D120000AF0C6FDB3
:10995000200011490AF0B2FDEDE7104BEB18012B86
:109960000FD910233A002900009308A80C4B0AF0E5
:1099700060FE336830009B6808A9984708A80AF081
:1099800072FE15B0F0BDC046B4280020E8280020C3
:10999000FE030000FF030000D828002002FCFFFFA8
:1099A000D998010010B572B60E4B1C68002C0ED071
:1099B00020000AF093FD0023E3640B4BE36372B6CF
:1099C0000A4B1A681C60A26562B6200010BD62B620
:1099D0005C200EF009F85C220021040009F0DCFB99
:1099E000E9E7C046E028002000400020DC280020F5
:1099F000074B10B51C68E36CDB0706D5FFF7D2FFF9
:109A0000044B1860002800D00400200010BDC046A0
:109A1000EC280020BC280020F7B51E4C012322783A
:109A200016001E401A4233D11B4D2860FFF7BAFFC3
:109A30001A4B1B4918600AF041FDFFF7B3FF194BA1
:109A40001860194B4363194B8363286800280FD0B3
:109A5000C023174F3200174900933B000AF008FD5E
:109A6000C023009332003B00134928680AF000FD30
:109A70000C200DF0B9FF0023838083710F4B03602E
:109A80000F4B836000F044FB0123227813432370C3
:109A9000F7BDC046DC2D0020B4280020EC280020B3
:109AA000D8280020E4280020FC3F00204145020087
:109AB000D9980100FF030000FE030000507D020062
:109AC000A1980100024B1878012318407047C04646
:109AD000DC2D0020F7B5134F04003B680E00002B6F
:109AE0001ED0114B1B78DB071AD5FFF781FF05004D
:109AF0003304234383640AF0F1FC28000B490AF085
:109B0000DDFC0B4B0025E318012B07D9C023009384
:109B100032002100074B38680AF0AAFC2800FEBD7D
:109B2000054DFBE7B4280020DC2D0020E8280020AC
:109B300002FCFFFFD998010016FCFFFFF7B50600F5
:109B40000D0017000193002802D100242000FEBD63
:109B50000029FAD0FFF726FF041EF6D0074B019A22
:109B600043630660064B45608760002A00D0054BC2
:109B700020000549A3630AF0A1FCE7E7FC3F0020B1
:109B80001B45020029450200D828002070B5074B6C
:109B90000E0011001A7805000123100018401A4227
:109BA00003D032002800FFF7C9FF70BDDC2D002074
:109BB000F8B50500EFF30884C36B006C1C1B6B6CDD
:109BC0001B1A9C420FD91F23074E203437689C4331
:109BD000002801D000F0D6F9200000F09FF9286499
:109BE000001968643760F8BDEC280020024B186843
:109BF000434258417047C046D82800200300002245
:109C000010B5044994006058002801D00132F9E7EA
:109C1000635010BDC0280020002310B5044A9900ED
:109C20008C58844201D00133F9E70020885010BDE0
:109C3000C028002010B50024084BA200D0580028EE
:109C400002D003685B6898470134062CF4D1044BBA
:109C50001B68002B00D120BF10BDC046C0280020CB
:109C6000D82800200122F8B52C4B1B7813421CD0B9
:109C70002B4D2C68E36C134218D002273B43E3645E
:109C8000284B1E680423F26C30001343F364636BAB
:109C9000F363FFF78DFF3000716C04F036F928682C
:109CA000C36C3B4201D004F06AF9F8BD1E4F1F4E51
:109CB0003A683068002A0AD128601B0712D52C6048
:109CC000FFF7B8FF3B68002BFAD02B600AE0216D4C
:109CD000B94219D1616D002900D1110029602A68AB
:109CE0008242EAD029688C42DFD0336899420DD194
:109CF0000F4B4B630F4B8B632000FFF759FF296815
:109D000020004B6C626C06E02A60E8E79C42F3D1CD
:109D1000002210004B6C04F0B7F8C6E7DC2D0020E1
:109D2000EC280020BC280020D8280020E4280020AF
:109D3000FC3F00204145020070B50C4B04001B782D
:109D4000DB0702D40DF028FD70BDFFF751FE0500C2
:109D500000F0C6F92418AC6428000AF0BFFB280004
:109D600003490AF0ABFBFFF77DFFEDE7DC2D002098
:109D7000B8280020F8B51B4B1B78DB0727D500243B
:109D8000194E30680AF0AAFB184D2B68002B02D040
:109D90005B6D0134FAE7032C0ADD2F68013C7B6D13
:109DA000386C2B6000F0EEF8380000F0EBF8F2E7CA
:109DB000290030680AF082FB72B60D4932680B68E0
:109DC000934206D19B6D0B6062B6FFF74BFFF8BD67
:109DD0000B00002BF8D0996D8A42F9D1926D9A65EB
:109DE000F2E7C046DC2D0020EC280020E02800200F
:109DF000DC28002010B5034B1B78DB0701D5FFF7EB
:109E0000B9FF10BDDC2D0020F7B505000C000028BF
:109E100033D001261B4B1B78334230D01A4F072317
:109E20003868C26C1100194000911A4207D0210015
:109E30002800164AFFF7AAFE00252800FEBD04F000
:109E400086F83A680221D36C1800084001900B4252
:109E500003D001318B43D364EEE73343D364200056
:109E6000A8473A68019DD36C1900B143D1645B07E0
:109E7000E3D52000FFF7BEFFDFE7054DDDE7054D29
:109E8000DBE7C046DC2D0020EC280020F59D01001A
:109E900017FCFFFF16FCFFFF020010B5014B12CBB1
:109EA00012C210BDF0280020034B1A68034B1A6041
:109EB0007E225A607047C04608200020F02800200B
:109EC000F0B5124E03003278022A1BD081421BD912
:109ED0000C1A072C18D90D00054303272800384019
:109EE0003D4211D172B6BA40094DA4085351AA1887
:109EF00051608022120614431C60337801333370A2
:109F000062B6F0BD0348FCE70348FAE7DE2D002007
:109F1000F828002013FCFFFF17FCFFFF70B5041E9C
:109F200023D0124D124E2B78002B0CD11149124820
:109F30003370FFF7C5FF114B984202D11E20FFF787
:109F4000D5FB01232B7000253378AB4209DD0C498A
:109F5000EB002000C9180AF0FDFA002805D10135F0
:109F6000F2E71420FFF7C2FB002070BDDD2D0020BA
:109F7000DE2D002000380020A02E002017FCFFFF5F
:109F8000F828002010B5002817D000220F4B1978B0
:109F90000F4B914215DD1C6884420FD25C688442ED
:109FA0000CD9041F2368002B02DC1E20FFF79EFB48
:109FB000802322681B061343236010BD013208333F
:109FC000E7E71E20FFF792FBF7E7C046DE2D0020F3
:109FD000F828002070B5051E14DD0B4E0B4C3368BD
:109FE000002B02D020680DF08EFAFA2120680024A0
:109FF000074B89008361C462694335600DF094FAB0
:10A00000200070BD0348FCE7082900203829002003
:10A01000BDA0010017FCFFFFF8B5114F05003E6819
:10A02000002E0AD130200DF0DFFC040006F0C6FF40
:10A030000C4BA6612360E6623C600B4E3368002B3C
:10A0400009D110200DF0D0FC04000DF0B9FA200069
:10A0500034600DF08FFA2800FFF7BCFFF8BDC04652
:10A06000382900205C85020034290020014B186843
:10A070007047C0460829002070B50D4C2368002B9E
:10A0800003D00C4B1B68002B02D10620FFF7C4FF46
:10A0900020680DF086FA02000749C3170D684E6864
:10A0A0005219734120680A604B600DF080FA70BD50
:10A0B0003429002038290020B820002010B5FFF7EF
:10A0C000DBFF0024054BA200D058002802D0036813
:10A0D0001B68984701340A2CF4D110BD0C290020CC
:10A0E00010B5FFF7C9FFFA22034B920018685968B0
:10A0F000002307F09FFE10BDB820002010B5FFF729
:10A10000BBFF024B1868596810BDC046B82000203C
:10A110000B4B10B51B680400002B03D0094B1B68C8
:10A12000002B02D10620FFF777FF0023064A990093
:10A130008858002801D00133F9E78C5010BDC04683
:10A1400034290020382900200C290020002310B5D4
:10A15000044A99008C58844201D00133F9E7002069
:10A16000885010BD0C29002010B50400002902D031
:10A170000B78002B03D1034B2360200010BD0AF0A5
:10A18000C5FAFAE7607D0200F8B5050008000C008A
:10A190000AF081FC002803D1124B2B602800F8BD87
:10A1A00020000AF078FC0530FFF7B8FE28600AF0BE
:10A1B00075FC20000AF06FFC2E68708020000AF009
:10A1C00067FC070020000AF066FC39000200301D21
:10A1D00008F03AFF20002E680AF05DFC00233618D4
:10A1E0003371DBE7607D0200F8B504000E00150056
:10A1F00000290AD00B78002B07D0002A05D00800D0
:10A2000097B209F033FA874203D90B4B2360200041
:10A21000F8BD681DFFF782FE20600AF03FFC206851
:10A220002A0047803100043008F00EFF23685D19D2
:10A2300000232B71EBE7C046607D0200014B0360F9
:10A240007047C046607D020070B5096816000222A2
:10A250008C5E0500A64206DB084B186828600AF0F1
:10A2600020FC280070BDA41B9C4200DD1C000431B2
:10A27000280022B28919FFF7B7FFF2E73C29002036
:10A2800010B50548054C20600AF00BFC2000044A7C
:10A2900004490DF09EFB10BD607D02003C290020AA
:10A2A00000200020FF460200084B73B51D68040023
:10A2B000002D0AD001002E6808220831684608F0F7
:10A2C000C3FE0CCC28003168884773BD40290020AC
:10A2D000014B03607047C046687D020010B5040062
:10A2E000081E03D1034B2360200010BD21600AF03B
:10A2F000D8FBF9E7687D020030B500684488A142C8
:10A300000CDA8588AA4209DA002907DB002A05DB76
:10A310006243401880188371002030BD0048FCE77C
:10A3200017FCFFFFF0B507000E001D0085B00029E7
:10A3300021DD002A1FDD002B1DD0046863880393F4
:10A340008B4200DD0391A3880293934200DD0292C9
:10A35000002306340193019B029A93420ED02900F8
:10A360002000039A08F070FE3B68AD195B88E41882
:10A37000019B0133EEE7024805B0F0BD0020FBE78A
:10A3800017FCFFFFF8B504000D0016001F000029A0
:10A3900001DB002A02DA0D4B2360F8BD10004843B0
:10A3A0000630FFF7BBFD20600AF078FB23685D8074
:10A3B0009E80002F06D03B00320029002000FFF7CE
:10A3C000B1FFEAE720000AF08AFAE6E7687D0200BA
:10A3D000F7B507000D1E03D1244B03603800FEBD06
:10A3E000002408002600210001940378002B1AD0D5
:10A3F0003022524294469C446246092A11D90A2BC3
:10A400000AD1019B361901330193B14200DA3100C0
:10A41000002426000130E8E7002CFBD000240136A0
:10A42000F8E70124F6E7019A380012B209B2FFF703
:10A43000A9FF012149420E000A203B689A1D2C7891
:10A44000002CCBD02300303B092B08D8CB43DB17A3
:10A450000B4043431B19303B19000135EFE700293E
:10A46000FBDB117031000132F7E7C046687D020066
:10A47000F0B5040087B004A80E001D000192FFF79C
:10A480000BFD236801995A88914233DA9B889D42DB
:10A4900030DA1F2E2ED9059B00939E422ADC05231D
:10A4A00000217343049AA03BD3180393039B6E18B7
:10A4B0005B5C02930023019AD718226850880090B1
:10A4C000B8420EDD9088B0420BDD0098D21970437F
:10A4D000121810201841029F3840471EB8414042D0
:10A4E00090710133052BE6D101310529DED1002021
:10A4F00007B0F0BD0048FBE717FCFFFFF7B50368A6
:10A5000006009F1D5B880D005A1A0192002919DD73
:10A510000024994203DB0AF0E2F9002013E03368DB
:10A520009B889C42F9DA79193800019A08F08CFD71
:10A53000019B2900F8180AF0B5F9336801345B88EB
:10A54000FF18ECE70048FEBD17FCFFFF10B50548FB
:10A55000054C20600AF0A5FA2000044A04490DF0D9
:10A5600038FA10BD687D0200442900200020002038
:10A570009748020010B5054C012120000AF079FA35
:10A580002000034A03490DF024FA10BD4829002099
:10A59000002000201F4A0200074A030010B50120D6
:10A5A000934208D0834202D00020DB0703D41E2050
:10A5B000FFF79CF8002010BDFFFF00000048704727
:10A5C00016FCFFFF10B53220FFF790F8004810BDD1
:10A5D00016FCFFFF82801422002310B541620F4C4D
:10A5E0000100083404600E240281123A83718272E1
:10A5F0000363838636310A78C360A24303614361F3
:10A600008361C36103620A70021DD38701224287FE
:10A61000034AC26302004032137010BD887D0200FD
:10A6200001000100F0B5564E0500376897B0002FC5
:10A6300000D090E006AC0B231C228221200001F008
:10A64000F9F90B231D2283210AA801F0F3F90B234A
:10A650001B2284210EA801F0EDF908200DF0C4F9A9
:10A6600001223B00110004900BF0FAFD3A21280072
:10A670000BF015FB00281CD0A38812AFBB80A37978
:10A68000A268BB713F4B5C2012930E23E3561492D9
:10A69000A289BB73BA810DF0A7F905230193353365
:10A6A00000933A002900049B040002F025F934606D
:10A6B00051E0322128000BF020FB00281BD0A3889A
:10A6C00012AFBB80A379A268BB712E4B5C201293A2
:10A6D0000E23E3561492A289BB73BA810DF084F95C
:10A6E000052301932D3300933A002900049B0400B5
:10A6F00002F0A6FADBE73C2128000BF0B9FA0028AB
:10A7000034D0362202AB9B8E12AFBB8002AB9B18BB
:10A710001B780832BB711B4BA420129302AB9B1811
:10A72000109A1B781492059202AA928F5BB2BA819A
:10A73000BB730DF059F9062304000293013B01930A
:10A74000373300933A00049B290001F0F5FF0E4BCC
:10A75000346044341C600C4B094C1868002802D04B
:10A7600021680AF003FB206817B0F0BD44200DF00B
:10A770003BF9052204990400FFF72CFF97E7C04638
:10A780004C290020787D020050290020F0B5634953
:10A79000C56885B08D4258DA030036331C78022232
:10A7A0002300134014425BD1026901928A4265DAA8
:10A7B00002003632127852076AD4426902920200CD
:10A7C000029C40328C4270DA010036310978090768
:10A7D00075D4002B7ED113789C46002B16D0010037
:10A7E000061DF38F363101339BB2F387039109784D
:10A7F00001270C003C40394200D188E01D2B05D9CF
:10A80000039BB94319700023F38713700AF08EF984
:10A81000434A0723904277D94249043B8D4273DB78
:10A82000C8220133920095426EDC0198023B8842B7
:10A830006ADB013B904267DC02980433884263DBA9
:10A840000023904260DD06335EE0C8220023520000
:10A850009542A9DD030036331A7800239207A3D46A
:10A86000012306001F00363632785408A7433C0007
:10A8700002279C40BA432243327095E7C822019CCC
:10A880005200944299DD020036321278520794D475
:10A89000012306001C00363632789708BC43A70017
:10A8A0000424A2433A43327087E7C821029C49003E
:10A8B0008C428EDD010036310978090789D4010008
:10A8C000012636310B78DF08BE430827F600BB436C
:10A8D00033430B701378032B00D97CE70133DBB2D1
:10A8E0001370012B03D10021031DD98773E7042BBB
:10A8F00000D070E7020036321178033B0B4313702F
:10A9000000230430C3870B33180005B0F0BD092BBA
:10A9100000D87BE76346F487013B76E770FEFFFFD4
:10A92000FF700200E0FCFFFFF0B5C369C1681A6860
:10A93000451D0400EB7F89B0114225D0002B57D173
:10A940000123A2791A4237D0002602226846A18844
:10A95000A67109F07DFFA31DDD7F012D2CD1FFF72E
:10A96000BFFB3300226A801A99410F000600A188BC
:10A970009F4203D1FA239B009E423BD30123042232
:10A9800004A809F065FF17E00B2B01D80133EB7722
:10A99000EB7F082B0DD90122A37913420CD113436D
:10A9A000A188A37104A8130009F052FFFFF798FBD8
:10A9B0002062EB7F012BC3D90322A3791340012B23
:10A9C00014D1FFF78DFB0023226A801A9941994226
:10A9D00002D10A4B984209D90223A279A1881343D4
:10A9E000A3710522012304A809F032FF09B0F0BDCC
:10A9F000013BCCE72B000322C2E7C046DB05000089
:10AA000010B50400034B08330360FFF79FFB2000E1
:10AA100010BDC046BC7D0200F0B5060000250F0049
:10AA2000040085B002930AAB1B78083603930F4BE2
:10AA30002900083303600192858085711822300057
:10AA400008F0AAFB39003000039A0CF00EFE019BBF
:10AA5000029AA380A31DE771DA77631D25622000A7
:10AA6000DD77FFF755FB200005B0F0BDBC7D02008F
:10AA70000048704716FCFFFF10B53320FEF736FE86
:10AA8000004810BD16FCFFFF002310B504008380B2
:10AA900083710D482164083020608020C000A061CF
:10AAA000E061206211002000E36023616361636262
:10AAB000A362E36223636363A363E36363640AF0F3
:10AAC0002DF9200010BDC046D47D0200F0B5544ED3
:10AAD0000500376897B0002F3DD10B231C2282213F
:10AAE00006A80AAC00F0A6FF0B231D22832120003C
:10AAF00000F0A0FF0B231B2284210EA800F09AFF78
:10AB000008200CF071FF01223B00110004900BF0B3
:10AB1000A7FB1D2128000BF0D9F8002824D0A3881A
:10AB200012AFBB80A379A268BB713E4B6020129329
:10AB30000E23E3561492A289BB73BA810CF054FF22
:10AB400006230193173300933A002900049B040065
:10AB500001F0A6FF3460344B314A1B681068002BAB
:10AB600000D0436417B0F0BD3C2128000BF0DCF8A6
:10AB700000281BD0A38812AFBB80A379A268BB7149
:10AB8000284B602012930E23E3561492A289BB73C4
:10AB9000BA810CF029FF06230193363300933A0063
:10ABA0002900049B040002F0EDF8D3E73C212800C3
:10ABB0000BF05EF8002829D0362202AB9B8E12AF34
:10ABC000BB8002AB9B181B780832BB71154BA420CD
:10ABD000129302AB9B18109A1B781492059202AA4A
:10ABE000928F5BB2BA81BB730CF0FEFE06230400A9
:10ABF0000293013B0193373300933A00049B2900F1
:10AC000001F09AFD084B1C604434A3E748200CF087
:10AC1000EBFE062204990400FFF736FF9AE7C046D0
:10AC200050290020787D02004C290020F0B587B023
:10AC300001930EAB1B88060003930D9B0D00009340
:10AC4000019B0C9F0292002B3DD0002F02D1009B54
:10AC5000DB0738D530200CF0C7FE0400103009F0B7
:10AC6000EDFD2000243009F071FC029B18202580A6
:10AC700063800CF0B9FE0500009B08220593019B40
:10AC8000002103600C30049708F086FA082204A91A
:10AC9000281D08F0D9F90D4B02226B61002303999E
:10ACA000E3602362E36233680A43300021005B689B
:10ACB000A560A2809847002805D0200009F0D3FCA9
:10ACC00020000CF08DFE07B0F0BDC046B14D020073
:10ACD00070B58CB08360109B01604260C36004005B
:10ACE000184918000AF05AFF051E14D001001C2252
:10ACF000103105A808F0A8F96A4608AB43CB43C257
:10AD00001B68136020680599069A079B0AF018F8DB
:10AD100028000CF065FE0C4B186800280ED00B4A7A
:10AD200005AB059200220692C03202926A4622CBFF
:10AD300022C2230003220621FFF778FF20000CB077
:10AD400070BDC046878B02004029002051AD010034
:10AD500082B0F0B50400EDB06420739372920CF0F1
:10AD60001BFD052210A8110009F0C2FD954911A88C
:10AD7000FFF72EFB1925002221AB013D1A605A6016
:10AD80009A600C33002DF8D11522290014A81395D0
:10AD900008F002FAA0680AF079FBFF210A90A06887
:10ADA00000F01EFC884FA06800F0BEFA04950895DC
:10ADB0000995854B9F4203D0844B9F4200DBF7E00F
:10ADC000A0680AF065FBA56881491AA8FFF7CCF9CD
:10ADD00078221AA9280000F049FB1AA809F08FFC74
:10ADE0000023794F04930326099B606801333340A5
:10ADF000099309F033FF0500606809F036FF00226F
:10AE0000744B05929D420FDB013205922A00C83235
:10AE10000ADBAA22042192000591954204DC0596E2
:10AE2000C82D01DC0222059200220692984210DB16
:10AE3000012306930300C8330BDBAA2304329B00D3
:10AE40000692984205DC03230693C82801DC013BE7
:10AE5000069310A809F043FD5F4B00251E000793E1
:10AE600013ABEB5C012B05D172783178FE3310A85F
:10AE7000FFF742FA01350236192DF1D16B4618223F
:10AE80009A5E6B4610A81421595E099BFFF734FAAD
:10AE9000002F02DB049B0F2B07D90023A0681A00A8
:10AEA0007430009310A909F030FD13AE079B059A8A
:10AEB0001B78934221D1079B069A5B7893421CD161
:10AEC0003378012B19D00C23089A0CAD534328007A
:10AED000002221680B9309F04BFF21AA94460B9B9B
:10AEE000634407CD07C301233370089B0133DBB2F2
:10AEF0000893049B0133DBB20493079B374A023368
:10AF0000079301369342D1D164200CF045FC089B95
:10AF1000643F3FB2182B00D84BE71A0021A91AA8AA
:10AF20000AF035F96A461DAB23CB23C21B681360B8
:10AF30001A991B9A1C9B206809F002FFE568002DF6
:10AF40000CD0274912A8FFF70FF91C2328001AAAD2
:10AF500012A90AF058FE12A809F0D1FBA0680AF065
:10AF600097FA11A912A8A56809F0A2FC00221D4BAE
:10AF7000009212A901932800130000F019FA12A8F8
:10AF800009F089FCFA2080000CF006FCA0680AF0A9
:10AF90007FFA0A99A06800F023FB11A809F07BFC56
:10AFA00010A809F078FC6DB0F0BC08BC02B01847DE
:10AFB000002F03D0049B0F2B00D014E7A06800F0F3
:10AFC000B3F910E7928B02008C3C0000D18AFFFF9E
:10AFD000D78B020058FDFFFFEC8B02001E8C020095
:10AFE000878B0200DC050000F0B5040085B0637AB1
:10AFF0009C46002B04D120000AF0E7F805B0F0BD14
:10B00000A37A266F01931023019AF35600259B180B
:10B0100001229A402900F36803920293029BAB42FB
:10B0200031DDB068019B6843C01873694000E77A5E
:10B030001A181B5C5078E279012F14D1571E3F1A61
:10B0400018003B004243606F52008218D218937977
:10B05000634500DD6346627B1A4202D00123AB40A8
:10B0600019430135DAE7022F07D0032FEAD1277AF7
:10B07000013FFF1A03003800E4E7571EFB1A277A46
:10B08000013F381ADEE71123C943F356606C99403B
:10B0900023691940039B19430CF03EFCA27B072A4D
:10B0A000ACD8637B0C495B006373531CDBB290002C
:10B0B0004158A373022A03D808000CF062FB96E7FC
:10B0C000064B2000236300236363054BE462236483
:10B0D00014300CF029FA91E7007E0200E9AF01007C
:10B0E000B551020070B50400104B25000833036011
:10B0F000FFF72CF82000743009F0CDFB2000603001
:10B1000009F0C9FB2000583009F0F9FA200050304E
:10B1100009F0F5FA064B1435280063610CF0F3F9D9
:10B12000280005F061FF200070BDC046207E0200AF
:10B130005C850200F8B500250400324B8580083399
:10B1400003608571143016000F0005F037FF2000F2
:10B150002D4BE562636125645030FFF76FF82000E6
:10B160005830FFF76BF820006030FFF7B1F820008F
:10B170000423F25E33682667590009B2743009F07F
:10B18000B7FB3368226FE3717368012623721023C3
:10B190006581A7802561D35691685918994204DDCD
:10B1A0003000984001330543F8E711230120D356BE
:10B1B000D1685918994206DD02009A402669013388
:10B1C00032432261F6E714200CF00EFC22690021C4
:10B1D0002A430123060006F07DF9FF232200637253
:10B1E0000133A381002348326664A37320001370E7
:10B1F000A366FEF78DFF0123A27920001343A371FC
:10B20000F8BDC046207E020070850200F0B5437A8A
:10B21000040085B0002B04D1200009F0D6FF05B052
:10B22000F0BD837A066F01931023019AF35600252F
:10B230009B18012294469A402900F36803920293D6
:10B24000029BAB422DDDB068019B6843C018736957
:10B250004000E77A1A181B5C5078E279012F10D170
:10B26000571E3F1A18003B004243606F520082187D
:10B27000D2189379002B02D06346AB4019430135B5
:10B28000DEE7022F07D0032FEED1277A013FFF1A06
:10B2900003003800E8E7571EFB1A277A013F381AE7
:10B2A000E2E71123C943F356606C994023691940C2
:10B2B000039B19430CF030FB667AB31EDBB2FC2B08
:10B2C00014D8FEF7D3FE0C4B0500236300230B4874
:10B2D00063630B4BFF217043E462236406F084FC3C
:10B2E00029004143200014300CF01EF9637A012B31
:10B2F00000D994E790E7C046CB510200B6030000A6
:10B30000B55102001FB5012381881A00684609F073
:10B310009FFA012368461A00024909F099FA05B01C
:10B3200000BDC046FE0300001FB5030048331A7875
:10B330000400002A0DD000221A70012381881A000F
:10B34000684609F085FA012368461A00034909F0A6
:10B350007FFA2000743009F0C2FA1FBDFF0300001D
:10B3600010B50400230048331A78002A07D01B7850
:10B37000012B04D00121024809F0C6F8F2E710BD04
:10B38000FF03000010B501210400072009F0BCF8FC
:10B39000064B984208D148342378002B04D02378F8
:10B3A000012B01D020BFF7E710BDC04616FCFFFF00
:10B3B00073B5079C0500002C1CDB0600483630786E
:10B3C000002802D03078012816D106981BB2C0B2EE
:10B3D0000090280012B2743009F097FA002C07D0C0
:10B3E0002B004A331C80002407234C352C803370FB
:10B3F000200076BD014CFBE7014CF9E717FCFFFF8D
:10B4000012FCFFFFF0B587B00D9C05000E00170081
:10B410000393002C21DBFFF7A3FF2B0048331B789D
:10B42000DAB20292002B1AD1310005A809F040FAD5
:10B430000C9B3A0000932800039B019405A9FFF799
:10B44000B7FF05A809F027FA002C03D02800FFF762
:10B4500099FF029C200007B0F0BD024CFAE7024CB5
:10B46000F8E7C04617FCFFFF11FCFFFFF8B504002A
:10B47000171E1DDD060048363378002B02D03378C6
:10B48000012B17D12200E3795632013B13702300C0
:10B490000025200054331D80503009F08DF9230021
:10B4A0004A331F80022328004C3425803370F8BDB6
:10B4B0000148FCE70148FAE717FCFFFF12FCFFFF19
:10B4C000F7B504000F00161E18DDFFF749FF230033
:10B4D00048331B78DDB2002B12D1390001A809F0E6
:10B4E00063F9320001A92000FFF7C0FF01A809F0AD
:10B4F00006F92000FFF746FF2800FEBD0148FCE7E3
:10B500000148FAE717FCFFFF11FCFFFFF8B5040044
:10B51000171E2DDD060048363278002A02D0327818
:10B52000012A27D15D42069BFF331FD16B1D2200EC
:10B530001BB2643213802300200066331D7060301C
:10B5400009F0BEF9230000226C331A70954200D036
:10B550003D0023004A331D80079B00205A1E934163
:10B56000013F4C34053327803370F8BD069BDEE77E
:10B570000148FAE70148F8E717FCFFFF12FCFFFF5C
:10B58000F0B504000F0016001D0087B0002A1FDD73
:10B59000FFF7E6FE230048331B78DAB20392002B54
:10B5A00018D1390005A809F083F90D9B32000193E9
:10B5B0000C9B05A9009320002B00FFF7A7FF05A80F
:10B5C00009F069F92000FFF7DDFE039807B0F0BD30
:10B5D0000148FBE70148F9E717FCFFFF11FCFFFFFB
:10B5E000FF2902D84172002070470148FCE7C0469D
:10B5F00017FCFFFF13B5040004A80078009020009A
:10B600000BF0F6FE002801D1207516BD0048FCE7BE
:10B610000EFCFFFF13B5040004A800780090200082
:10B620000BF0CEFE002801D1207516BD0048FCE7C6
:10B630000EFCFFFF7FB50D0011000F226A440400CD
:10B640001E1E117015D0089B002B12DD012329004E
:10B650000093FFF7DFFF002808D100903200290097
:10B660002000089BFFF7C6FF002800D0024804B066
:10B6700070BD0248FBE7C0460EFCFFFF17FCFFFF52
:10B68000F7B506000D1E3ED0002302270469019382
:10B69000002C34D0AA88A38853403B422DD13A4293
:10B6A00022D1A368AA68934227D12B88002B02D00D
:10B6B00022889A4221D16B88002B02D062889A425C
:10B6C0001BD1EB68E268934201D0002B15D173685F
:10B6D000002B01D020009847A2880C4B1343A38075
:10B6E000019B0133019308E0A968A0680AF09EFD60
:10B6F0000028DAD1AB883B42D3D0E46AC8E7019B8B
:10B700002000002B00DC0248FEBDC0460080FFFF89
:10B7100017FCFFFFF0B506000D0085B000295DD0D5
:10B7200001270469002C27D00221AA8800230A429D
:10B7300002D0A3885B083B40226829688A4215D161
:10B74000A068A968002B0FD00AF070FD00280DD06A
:10B75000EB68E268934209D10421625EA388002A63
:10B7600006DB1F4805B0F0BD8842F1D0E46AD9E796
:10B770005B045B0CA380F4E730692A880100031E98
:10B7800007D1356101236846164909F061F80020A8
:10B79000E8E71C88944206D2DC6A1900002C0DD020
:10B7A0002300F6E723001C88944207D15F886C8849
:10B7B000A74203D8DC6A1900002CF3D1884209D1D2
:10B7C0000B889A4204D305D148886B88984201D9E6
:10B7D000E962D6E7CB6AEB62CD62D3E70248C1E704
:10B7E00016FCFFFFFD03000017FCFFFF064B10B522
:10B7F0001A00040008322C33026083600830FEF720
:10B800000BFA200010BDC046387E020008B4024B7F
:10B810009C46083808BC6047EDB7010008B4024BED
:10B820009C46083808BC6047075602000C4A0023B3
:10B8300011002C32083110B543608381837382601C
:10B840000361436183618383016004000830FEF774
:10B85000D5F9044B1A68002A00D11C60200010BDE5
:10B86000387E02004029002082B0F7B5012540262D
:10B8700009930CAB1B78046908920193002C38D013
:10B8800008AA238812889A4201D0002B29D108AA3D
:10B89000638852889A4201D0002B22D1FEF712F918
:10B8A0000123002806D0C022A3881340C03B5A427F
:10B8B0005341DBB2019A934219D10422A35EA788B7
:10B8C000002B14DB102208A9A01807F0BDFB37429B
:10B8D00009D1FEF7F7F8002805D021000748FEF748
:10B8E00093FAE46ACAE7200009F096FEF9E700251A
:10B8F000F7E72800FEBC08BC02B018471956020042
:10B9000008B4024B9C46083808BC6047B557020093
:10B9100010B5024808F092FF10BDC046C0200020BC
:10B92000F0B587B001930EAB1B88060003930D9B07
:10B930000D000093019B0C9F0292002B3DD0002F25
:10B9400002D1009BDB0738D530200CF04DF8040005
:10B95000103008F073FF2000243008F0F7FD029B40
:10B960001820258063800CF03FF80500009B08221A
:10B970000593019B002103600C30049707F00CFC39
:10B98000082204A9281D07F05FFB0D4B02226B6102
:10B9900000230399E3602362E36233680A433000C3
:10B9A00021005B68A560A2809847002805D0200090
:10B9B00008F059FE20000CF013F807B0F0BDC046A7
:10B9C00003580200F0B5160000258380164A174B75
:10B9D00004008571026001814681057318688C46F8
:10B9E00089B0A8421DD0124A05950492C022029245
:10B9F0006A4604AB82CB82C223002A006146FFF76D
:10BA00008FFFC022094B0A49186802926A460691C4
:10BA100006AB079582CB82C223002A003100FFF7D4
:10BA20007FFF200009B0F0BD7C7E0200402900208D
:10BA30002D59020030B5002403730123034D847196
:10BA40000560818082734373846030BD787D02001D
:10BA500070B583790400DB0704D58068002801D025
:10BA60000BF0BEFFA3799B0704D5A068002801D086
:10BA70000BF0B6FFA3795B0709D5A0230021154A77
:10BA8000A068DB00D150884201D00BF0A9FFA37958
:10BA90001B0708D5A568002D05D028000AF036FC44
:10BAA00028000BF09DFFA379DB0605D5A0680028D0
:10BAB00002D00368DB6898476023A2791A4205D058
:10BAC000A068002802D003685B6898470023A36041
:10BAD000A37170BD00700040F7B50227037B04001E
:10BAE0000D003B4228D0012928D883791A003A401A
:10BAF00001923B4214D1FFF7ABFF18200BF074FF0B
:10BB00000E230600E35618220199009307F044FB28
:10BB1000300000990BF0B3FDA379A6603B43A371FD
:10BB2000A3685A68002D04D00025DB681A6028003D
:10BB3000FEBD1B691A60FAE7014DF8E7014DF6E713
:10BB400016FCFFFF17FCFFFFF7B50126037B04007F
:10BB500033422CD0827961231100194001911A429D
:10BB600016D1FFF775FF18200BF03EFF0E230500DE
:10BB7000E356677B18220199009307F00DFB3A000A
:10BB8000280000990BF071FDA379A5603343A371E0
:10BB90006023A279A0681A4202D00BF04AFCFEBDD5
:10BBA000436940681B681840431E9841F7E7014805
:10BBB000F5E7C04616FCFFFF012210B583794173FB
:10BBC000134204D080680BF0EEFD002010BD60220F
:10BBD000134203D080680BF033FCF6E70048F5E72A
:10BBE00016FCFFFF70B5040000250C4B0E00083357
:10BBF0008580857103602100183009F048FF20001E
:10BC00002100203009F06EFF054B2000A680E58062
:10BC10002572E560256165611C6070BD8C7E020047
:10BC2000542900208379DB0702D5C16000207047CA
:10BC30000048FCE716FCFFFF8379DB0701D5C068ED
:10BC400070470148FCE7C04616FCFFFF70B5456928
:10BC50000400002D22D0037A032B21D8FFF7ECFF3C
:10BC6000E86230200BF0C0FE30220021050007F012
:10BC700093FA002263699A622369934207D1636948
:10BC800023610020237A65610133237270BD1A009D
:10BC90009B6A002BFBD163699362F2E70148F5E7E9
:10BCA0000148F3E717FCFFFF13FCFFFF144B70B5CF
:10BCB0005A68144C002A03D000225A600132A26054
:10BCC0001A69002A17D0002119618023DB000E4D6C
:10BCD000E3582868012B0FD1A923DB00E158494222
:10BCE000FFF7A0FF2868FFF7B1FF2B685A69074BE1
:10BCF000E2500123A36070BDFFF794FFF9E7C0464F
:10BD0000FC100040001000405429002004050000F1
:10BD100070B505000C0008F08AFB002804D1034A26
:10BD2000034BEC71D45070BD0248FCE7001000409A
:10BD30002405000016FCFFFFF8B5837905000020FC
:10BD4000DB0765D408F073FB002862D16E69002E12
:10BD500008D130300BF048FE04003022310007F0EB
:10BD60001BFA6C6100222C4B01215A608022D20503
:10BD700011605A68002AFCD00622284B284C9A569B
:10BD8000284B0026E2500722043BE2500833E650DD
:10BD9000254A264B2800E250E979FFF7B9FF012236
:10BDA0000821234B2348E6500433E250224B234F13
:10BDB000E1500433E050022321482350214827500A
:10BDC000214F043827501827204827506F692048F2
:10BDD0002750C120800021501E498538FF380B5064
:10BDE0000B608021890060580E33034363501A4B67
:10BDF0005E6062605A68002AFCD0002601271E613E
:10BE00002800A760FDF7FAFE3000AB791F43AF7141
:10BE1000F8BD1248FCE7C046FC000040B08D0200AF
:10BE2000001000400C050000746962751C050000DC
:10BE30002C0500002300040214050000FFFF000091
:10BE4000340500003C0500002110010054050000ED
:10BE50000405000000E100E0FC10004016FCFFFFBC
:10BE600003000069002809D00221054AD167826ACF
:10BE70001A611A7A013A1A72024B19607047C04669
:10BE800004E100E000E100E070B505000C0008F0FE
:10BE9000CEFA00283AD1002C3AD02378262B37D876
:10BEA000022201211B4BDA671B4A1C4B58611161AE
:10BEB00059690029FCD000201949545058600130BC
:10BEC000106058680028FCD0002018610130906094
:10BED00018690028FCD0686950500021596101316F
:10BEE000116159690029FCD000215960013151606C
:10BEF00059680029FCD0002018610123C0219360FB
:10BF00000222084B49005A501A6070BD0648FCE7EF
:10BF10000648FAE704E100E000100040FC10004091
:10BF20000405000000E100E016FCFFFF17FCFFFF26
:10BF300037B54C680500002C04D10C4908F076FD9B
:10BF400028003EBDA36A01A84B602278E36A033A49
:10BF5000211D08F097FD20000BF042FD280001A9EB
:10BF600008F064FD01A808F05AFDE9E7482900201F
:10BF700010B504008CB0002911D0262A0FD86846CD
:10BF8000D31C037001234370FF33438001A807F0E3
:10BF90005BF869462068FFF777FF0CB010BD0148D9
:10BFA000FBE7C04617FCFFFF10B5002903DB024B7F
:10BFB00019600BF08AFA10BD5829002070B50400F2
:10BFC0001D0004AB1E7804F0B5FF20000E4B40307E
:10BFD0002360FEF733F92300220001354C331D7036
:10BFE0000023E1215832013616700A3AA3646365D2
:10BFF000138053809381D381013B20006364490205
:10C00000FFF7D2FF200070BD287D0200F7B5802722
:10C010007F053E697C690822113C744305002100BC
:10C02000684607F011F8104B009A9A4219D0009315
:10C0300000230193796928001339714309F069FDE0
:10C04000019A2800009909F07CFD2100280009F0E0
:10C0500060FD79692200133928007143B30809F0A3
:10C0600062FD0198FEBDC046FECA0000F0B50D009D
:10C07000ABB000210D920700302212A81E0007F07D
:10C080008BF8280007F0F2FA431C0C93102B00D910
:10C09000B8E0202E00D9B5E02900380009F07EFD77
:10C0A0000B90002854D129000C9A12A806F0CCFF5E
:10C0B00032000D9916A806F0C7FF80235B051A69A8
:10C0C0005D690B92113D6A4338005E690D92FFF77E
:10C0D0009DFF0D9B30220833002104001EA80F9302
:10C0E00007F05AF831000B9B13395943380009F017
:10C0F00010FD00230F9E0C930E930C9BA34246DA77
:10C10000310030221EA806F09FFF12A91EA807F0DA
:10C1100069FA00282BD13D49380022001091119472
:10C1200009F00FFD6A46099615AB23CB23C223CB3A
:10C1300023C223CB23C23800149B1299139A09F00F
:10C140000EFD01230E930C9B303601330C93D4E784
:10C150000B9832000D99103006F052FF04000B9836
:10C160000BF03EFC002C9ED120002BB0F0BD6A46A7
:10C17000099621AB23CB23C223CB23C223CB23C2DB
:10C1800038001E991F9A209B09F0E9FCDBE7E64383
:10C190003021F61726404E430F9B9E190E9B002B15
:10C1A0001CD10B9B981E05F095FCA0422CD0174982
:10C1B0000134380022001091119409F0C2FC6A4643
:10C1C000099615AB23CB23C223CB23C223CB23C297
:10C1D00038001299139A149B09F0C1FC38000D998C
:10C1E00009F097FC80235B0559690C230B9A1339DE
:10C1F00063434A433800110002330D9A09F093FC5F
:10C200000024B1E7024CAFE7024CADE7FECA0000E4
:10C2100017FCFFFF13FCFFFF8023F0B55B051A69D5
:10C2200095B002925A6905910299113A51435C699D
:10C23000029B133C05005C430391FFF7E7FE061EDB
:10C240003CD030220021083408A8039F06F0A4FF48
:10C250002100280009F05DFC0023083701930493B6
:10C26000019BB34220DA3900302208A806F0ECFE28
:10C27000059908A807F0B6F900280DD11B49721ED0
:10C2800028000691079209F05CFC01230493019BAE
:10C29000303701330193E3E722000C2339002800F3
:10C2A00009F041FC3034F2E7049B002B08D10F4920
:10C2B000320028000691079609F043FC0C4812E072
:10C2C0002800039909F025FC80235B0559690C239C
:10C2D000029A13394A43734311002800039A023328
:10C2E00009F021FC002015B0F0BDC046FECA0000D8
:10C2F0000CFCFFFF70B50400A280FA2200230800A6
:10C300000C49920008312160A3710B496061E26021
:10C31000A360638209F042FC051E09D001002000E1
:10C3200002221031123006F08FFE28000BF058FB6D
:10C33000200070BDA47E02001E8C020030B50225D4
:10C340008379040087B02B4204D1FDF757FCA37911
:10C350001D43A571200009F067FC00281CD06B4626
:10C36000DD1C280009F057FC2B78002B17D001A802
:10C3700009F04FFC0321019AD3170B409B189B1027
:10C380002382FDF7ADFEE368A18818180123A060A1
:10C390001A0002A808F05CFA002007B030BD0122A4
:10C3A000064B1A60064A51680029FCD000215160F2
:10C3B000044A1268019201225A60DBE700C0004083
:10C3C000FCC0004008C50040022802D10122014BF8
:10C3D0001A707047DF2D002070B5064D04002B78D1
:10C3E000002B04D1044801F087FF01232B702000AB
:10C3F00070BDC046E02D0020C9C3010070B50C001F
:10C4000008F015F8002810D00023134DA40A2B7053
:10C41000200009F01DFC002803D00A200BF0BCF915
:10C42000F6E72B78002BFCD070BD02210B4B0C4A99
:10C4300099508021C90058580028FCD0A120C00084
:10C440001C5058580028FCD0002199508021C90068
:10C450005A58002AFCD0E7E7DF2D002000E0014019
:10C4600004050000F8B50D0016001F0007F0DFFFFF
:10C47000002811D00023184C23703A003100280006
:10C4800009F0E4FB002803D00A200BF085F9F4E75B
:10C490002378002BFCD0F8BD012380220F4C1049DB
:10C4A000D2006350A358002BFCD08022D20000237E
:10C4B00094469F4208DD980032582A506246A058A0
:10C4C0000028FBD00133F4E7002363506346E358B0
:10C4D000002BFBD0DFE7C046DF2D002000E001404D
:10C4E0000405000008B4024B9C46443808BC604771
:10C4F000555C0200FA21F8B50389C90004005943CC
:10C50000324809F0A8FEFA21890005F0E3FA304F1D
:10C51000A17A2081380009F09EFE23002600250024
:10C5200022894C33A072A0361A808C3500232A222F
:10C530003178286808F0B9FF002844D11F235B2216
:10C540003178286808F0B1FF00283CD120235C2214
:10C550003178286808F0A9FF002834D101232C2263
:10C560003178286808F0A1FF00282CD101232D2262
:10C570003178286808F099FF002824D101232E2261
:10C580003178286808F091FF00281CD1A17A380082
:10C5900009F05CFE0E22C3B23178286808F085FFEE
:10C5A000002810D1FA21238989005943074809F04E
:10C5B0004DFE012303432A2231782868DBB208F0BC
:10C5C00074FF002800D00348F8BDC046C47E0200B6
:10C5D000BC7E02000EFCFFFF08B4024B9C464438B0
:10C5E00008BC6047F5C40100074B10B51A000400F1
:10C5F00008323C3302604364443008F05DFB2000A5
:10C6000008F08DFA200010BD247F020008B4024B10
:10C610009C46443808BC6047E9C5010008B4024B99
:10C620009C46443808BC60475F5C0200F0B50425B6
:10C63000837904008BB02B4204D1FDF7DFFAA37994
:10C640001D43A57120009030FFF77EFA0026B0420E
:10C650000FD12300A033197820000C2307AD0093DD
:10C660008C302B0001220068FEF7E4FF061E03D089
:10C670002C4E30000BB0F0BD0A2304AA9B182A7878
:10C680005A706A781A700022985EAA785A70EA780E
:10C690001A700022995E03912A795A706A791A7089
:10C6A00000229F5EAA795A70EA791A7000215A5EB8
:10C6B00004922A7A5A706A7A1A7000215A5E059298
:10C6C000AA7A5A70EA7A1F251A7000229B5EA27A13
:10C6D00003999C46514349425043CB172B405B186A
:10C6E0005B11A361C3172B40181864235743FA1733
:10C6F0001540ED196A112262059A5B425343A36704
:10C7000064236146049A40115A434B43E267221D59
:10C71000E0612000D36708F074FA2000443008F08C
:10C72000D2FAA6E70EFCFFFF08B4024B9C46443841
:10C7300008BC60472DC60100F7B51E00040008AB19
:10C740001B881500019309AB1A8800910AAB3100D0
:10C750001F88FDF73FFF20003A0031004430FEF70C
:10C7600093F9134B20001A003C3363642300083212
:10C770002260009A8C331A60AB8890308380AB794A
:10C7800083710C4BAA6803600E23EB568260220073
:10C79000A9899C32118083732300019AA03303215D
:10C7A0001A80FFF709FA2000FFF7A4FE2000FEBD63
:10C7B000247F0200787D0200F8B5FA260189B600D0
:10C7C00004007143254809F046FD310005F082F967
:10C7D000234FA17A2081380009F03DFD2500A07289
:10C7E000583500232A222978606C08F05EFE002864
:10C7F00032D110232B222978606C08F056FE0028D5
:10C800002AD101232D222978606C08F04EFE0028E1
:10C8100022D101232E222978606C08F046FE0028E0
:10C820001AD1A17A380009F011FD0E22C3B229787D
:10C83000606C08F03AFE00280ED121890748714348
:10C8400009F004FD012303432A222978606CDBB23E
:10C8500008F02BFE002800D00248F8BD8C7F0200B3
:10C86000847F02000EFCFFFF10B50400034B083369
:10C87000036008F054F9200010BDC046EC7F0200B0
:10C880007FB50425837904002B4204D1FDF7B6F966
:10C89000A3791D43A57120004830FFF755F9002505
:10C8A000A8420DD1230058331978062302AE009315
:10C8B00001223300606CFEF7BDFE051E03D00D4D56
:10C8C000280004B070BD002104200222A37A305653
:10C8D0007156B25659435A434343DB002362D20098
:10C8E00023685242C90020009B6AA261E161984717
:10C8F000E6E7C0460EFCFFFFF8B504000F00190084
:10C9000006AB1E8807AB15001A88FDF763FE0F4BB8
:10C910006764083323602300AA8848339A80AA7981
:10C920009A710B4AA968A2640E22AA5621652100B9
:10C93000A889543108809A730023A37123005833C7
:10C940001E802000FFF738FF2000F8BDEC7F0200BA
:10C95000787D020010B50400034B0833036008F033
:10C96000ABF9200010BDC04680800200F0B5070082
:10C970005C370023040010223978806C87B008F0FF
:10C9800094FD214D03002800002B3BD10F2602AB64
:10C99000F6180123397808220093A06C3300FEF7C3
:10C9A00049FEA8422DD003223378134203D06420DD
:10C9B000FDF7C2F9EAE7FA262189144DB600714362
:10C9C000280009F048FC310005F084F82081A023FC
:10C9D00011223978A06C08F068FD002811D1A36CF1
:10C9E00021890393714328003F7809F02FFC01232C
:10C9F0001843C3B210223900039808F056FD0028EE
:10CA000000D0014807B0F0BD0EFCFFFF20800200FF
:10CA100070B508258379040086B02B4204D1FDF758
:10CA2000EDF8A3791D43A57120004C30FFF78CF879
:10CA3000051E0DD023005C331978062304AE009345
:10CA400001223300A06CFEF7F5FD051E03D0134D47
:10CA5000280006B070BD0E2332786B445A7072788D
:10CA600020001A700022995E64224A43A263B278C1
:10CA70005A70F2781A700022995E64225242514331
:10CA80006163317959707179197000215B5E5A4385
:10CA90002368E2631B6A9847DAE7C0460EFCFFFF93
:10CAA000F8B504000F00190006AB1E8807AB15008F
:10CAB0001A88FDF7E9FF0D4BA764083323602300B4
:10CAC000AA884C339A80AA799A71094AA968E264C3
:10CAD0000E22AA5661652100A889583108801E825D
:10CAE00020009A73FFF742FF2000F8BD808002000B
:10CAF000787D0200F0B5FA250189234FAD0085B09D
:10CB000004006943380009F0A6FB290004F0E2FFA5
:10CB10001E4EA17A2081300009F09DFB636CA0724B
:10CB2000029323005833218901931B78694338000D
:10CB3000039309F08BFB07230343202203990298F8
:10CB4000DBB208F0B2FC00281AD1019B222219782E
:10CB5000606C102308F0A9FC002811D1019BA17A78
:10CB600030001F78656C09F071FB80235B42034342
:10CB7000232239002800DBB208F097FC002800D0FF
:10CB8000034805B0F0BDC046B4800200AC8002008E
:10CB90000EFCFFFF10B50400034B0833036007F0E1
:10CBA000BEFF200010BDC04624810200F0B5042560
:10CBB0008379040085B02B4204D1FDF71FF8A379D7
:10CBC0001D43A57120004830FEF7BEFF051E0DD0A5
:10CBD000230058331978062302AE0093A8223300AD
:10CBE000606CFEF727FD051E03D0144D280005B02C
:10CBF000F0BD1F200023F25ED31703409B180222D2
:10CC0000B15E5B11CA17024052180421775E33806F
:10CC1000F9170140A07A52114343C9197280491192
:10CC20004243B18041435B42E361236852422000AA
:10CC30009B6AA26121629847D8E7C0460EFCFFFFBD
:10CC4000F8B504000F00190006AB1E8807AB1500ED
:10CC50001A88FDF7BFFC0F4B67640833236023007D
:10CC6000AA8848339A80AA799A710B4AA968A26463
:10CC70000E22AA5621652100A889543108809A7392
:10CC80000023A371230058331E802000FFF732FFDA
:10CC90002000F8BD24810200787D0200F7B5FA2556
:10CCA00004000189134EAD006943300009F0D3FA46
:10CCB000290004F00FFF2700A36C208100935C374C
:10CCC0003B7881B269433000019309F0BFFA6022DA
:10CCD000C3B20199009808F0E8FB002807D10123AE
:10CCE00062223978A06C08F0E0FB002800D00248EE
:10CCF000FEBDC046588102000EFCFFFF10B50400C7
:10CD0000034B0833036007F0D7FF200010BDC04677
:10CD1000808102007FB50825837904002B4204D16D
:10CD2000FCF76CFFA3791D43A57120004C30FEF782
:10CD30000BFF051E0DD023005C331978062302AECD
:10CD40000093E8223300A06CFEF774FC051E03D0AC
:10CD50000B4D280004B070BD0223F25E96235B42A7
:10CD60005A4362630021725E20005343A36304238D
:10CD7000F25E96235343E36323681B6A9847E8E710
:10CD80000EFCFFFFF8B504000F00190006AB1E886B
:10CD900007AB15001A88FDF777FE0D4BA764083323
:10CDA00023602300AA884C339A80AA799A71094A91
:10CDB000A968E2640E22AA5661652100A88958314B
:10CDC00008801E8220009A73FFF768FF2000F8BDDC
:10CDD00080810200787D020010B50400054B083305
:10CDE00003601C3007F08BFC2000183007F087FC34
:10CDF000200010BDAC810200FF23F0B52C4E8DB099
:10CE000033700023040069460088009303F0B6F8ED
:10CE1000002802D16B469B783370264D2B68DB6867
:10CE2000002B07D1002320881A00190008F087FF83
:10CE30000DB0F0BD3378032BF4D81F4901A8FDF7DE
:10CE400093F92B6801A9DD6804A807F0ADFC280060
:10CE500004A908F0D2FE0027050004A807F04FFC43
:10CE6000BD421ED029002022103104A806F0ECF8A3
:10CE700028000AF0B5FD317804ABC9005918082222
:10CE800002A806F0E1F801230822208802A908F090
:10CE900056FF0137002804D10C212088074A08F0EA
:10CEA0004CFF01A807F02BFC002FBBD0C0E7C04609
:10CEB0008720002068290020268C0200FFFF000048
:10CEC000F0B58379040091B05B071BD5FDF708F935
:10CED00000232269801A9941994203D1F533FF3327
:10CEE00098420FD3A068002808D0354B1D8801F068
:10CEF000FFF80368152229001B6A98470422A379CA
:10CF00009343A371A3799B0758D52E4E3368DB68F2
:10CF1000002B4FD02C4F3B78032B4BD8284B2B4961
:10CF20001B8804A80193FDF71FF9336804A9DD6885
:10CF300008A807F039FC08A9280008F05EFE0500E3
:10CF400008A807F0DCFB082302AAD3800198073B5E
:10CF5000063206A908F0F5FE002D08D0290020228F
:10CF6000103108A806F070F828000AF039FD3D7865
:10CF700002ABDA88ED0008AB5D19280006A906F0BF
:10CF80003FF8002813D00822280006A906F05CF814
:10CF9000336804A9DD6805A807F006FC20232800F3
:10CFA00008AA05A908F02FFE05A807F0A8FB04A809
:10CFB00007F0A5FB0222A3799343A37111B0F0BD42
:10CFC000882D00206829002087200020268C020060
:10CFD000F0B50400150085B001930AAB1F880BABB8
:10CFE0001B78461C02930EAB1B78102203930B7820
:10CFF00003704B8A01314382300006F025F86561E9
:10D0000000250122019B27836383039BE58323770C
:10D01000029B2000F377A31CDA770C9B0C2663623B
:10D0200023000D9A283329001A705D7032009D701C
:10D030002C3006F0B1F82000064B3200A363290023
:10D04000E563403006F0A8F82000034B2565E36453
:10D0500005B0F0BD595D02004B5D020070B50D00DA
:10D0600001F046F804000368002D09D15B69984778
:10D07000FA2080006843074904F02CFDE08070BD71
:10D080009B6898478542F3D2236820009B689847A5
:10D090000500EDE771020000F0B507001500A1B032
:10D0A00002C706006B4918A81C0008F04DFF2B1E94
:10D0B00003D0280006F0DAFA83B20122049200229B
:10D0C000039202920232019200932A0018A93800BA
:10D0D000FFF77EFF33006049583318A8079308F024
:10D0E00033FF231E03D0200006F0C0FA83B20122D2
:10D0F00004920022039202920232019200932200D3
:10D1000018A90798FFF764FF33005449AC3318A8F7
:10D11000089308F019FF269B002B03D0180006F097
:10D12000A5FA83B2012204920022039202920232F3
:10D1300001920093269A18A90898FFF749FF731CDB
:10D14000FF33474918A8099308F0FEFE279B002BE0
:10D1500003D0180006F08AFA83B20122049200225A
:10D16000701C03920292023201920093279A18A92E
:10D17000FF30FFF72DFF33005533FF33394918A82F
:10D18000099308F0E1FE289B002B03D0180006F05D
:10D190006DFA83B2012204920022039202920232BB
:10D1A00001920093289A18A90998FFF711FF3300FC
:10D1B000A933FF332C4918A80A9308F0C5FE299B10
:10D1C000002B03D0180006F051FA83B2012204921A
:10D1D000002218AC039202920232019200932100C5
:10D1E000299A0A98FFF7F4FE204B1B780B93002B2B
:10D1F0002DD1079B1E491393089B0DA81493731CF4
:10D20000FF331593099B129716930A9B12AD179340
:10D2100008F09AFE1D21492006AB1B7F10222370C7
:10D2200006ABDB8D638206ABC918C01805F00CFF96
:10D23000062323750B9B1E953068A38300F068FFBF
:10D24000036821001B6898470122084B1A703000C0
:10D2500021B0F0BD292A0000242A0000252A000060
:10D26000272A0000262A0000282A0000E12D00209D
:10D270000A18000070B5002504000B4B85800833A8
:10D2800085710360C1601830FCF7D8FF20001C30A6
:10D29000FCF7D4FF0123621CD377044A2000A56069
:10D2A00065611460A37170BDAC8102006829002023
:10D2B000FA2130B585B004000123022268468900B6
:10D2C00007F0C6FA074D2868002809D008F048FE84
:10D2D0002188054B2A681980022391790B439371A9
:10D2E00005B030BD68290020882D002010B50C0045
:10D2F00007290FD8806800F0FBFE074B1957036819
:10D300005B6C984743425841044B40421840044BE1
:10D31000C01810BD0348FCE7B08D0200EA0300000E
:10D3200016FCFFFF17FCFFFFF0B5A04C0D00A54455
:10D33000040007939AAB1B789D4909A804930692B1
:10D34000FCF712FF200029001C3007F035FAC0203E
:10D35000800000F0C7FF08200AF046FB060000210D
:10D360000EAF08F0F0FF15AD0C220021A6603800CA
:10D3700005F012FF2B0007CF07C38E4B2900EB608F
:10D38000002330002B6108F0C7FFA06800F0B0FE5A
:10D3900008220021059016A805F0FEFE14200AF0D0
:10D3A00023FB854B2A0015930300C2CAC2C3834BDB
:10D3B000059EC3600023A03603617368002B00D074
:10D3C000EEE07060A06800F0A3FE082200210600D5
:10D3D00016A805F0E1FE14200AF006FB784B159321
:10D3E000030086CD86C3774BC36000230361336B94
:10D3F000002B00D0D6E03063A06800F079FE082250
:10D400000021059016A805F0C7FE14200AF0ECFADA
:10D410006D4B15AD15932A000300C2CAC2C36B4BF6
:10D42000059EC3600023943603617368002B00D00F
:10D43000BAE07060012604AB1B7C04AA334308A940
:10D440003000137408F07FFCA06800F071FE0368E0
:10D450005F495B6A9847A06800F06AFE03685D490F
:10D460009B699847A06800F063FE00230268009360
:10D47000176804993200B847049B002B0AD020009B
:10D4800008F077FD032805DDA06800F051FE036871
:10D49000DB68984700260EAFB819073608F0A5FCE0
:10D4A0001C2EF8D1183E04ABA0685E770A9700F0F6
:10D4B0003FFE03680AA91B699847A06800F018FEA0
:10D4C00003680AA95B6D9847A06800F011FE036825
:10D4D0000021DB6D9847A06800F00AFE0368022176
:10D4E0009B6D984700212000FFF700FF18200AF0ED
:10D4F0007BFAA16800F054FA374B384A1B68A168E0
:10D500000393374B28001B6800250293354B1B689B
:10D510000193069B1B689B190093334B12681B6891
:10D52000FFF7BAFD30200AF05FFA079AA16800F011
:10D53000F9FAA06800F0DCFD03680CA99B6A984723
:10D54000082304AA1384A068DB185384958400F090
:10D55000CFFD03680CA9DB6A98473100A06808F08A
:10D56000C6FC099A09219378A068921908F0D2FCA8
:10D57000A06800F0BDFD32210571A068FFF76EFDC7
:10D5800004AB1B7FAB4204D0A06800F0B1FD08F0F3
:10D5900022FC09A807F0B3F895239B009D44F0BD39
:10D5A00003610EE7036126E7036142E7ACFDFFFF7D
:10D5B000328C0200675D0200B1D20100755D02008D
:10D5C000F9CD0100835D0200B15D0200915D0200B2
:10D5D000EDD5010021D6010064290020602900203A
:10D5E0000C2000205C2900201020002013B506220A
:10D5F0006846FCF7F9FD094B1C68002C0AD0694607
:10D6000001A807F0D1F8200001A908F0CCFC01A87E
:10D6100007F075F8684607F072F813BD6829002016
:10D62000002373B501AE0C0031000500019302F038
:10D63000A5FC002802D1B278064B1A70064B186878
:10D64000002806D0054B1D8063425C41E1B208F022
:10D65000B2FC73BD8720002068290020882D00209F
:10D6600030B5284CA9B06A220D000DA8210005F0A4
:10D67000EBFC0DA903A8FCF731FE03A906A807F0EF
:10D6800017F901230193013BFF3B00930533FF335F
:10D69000642206A92800FDF773FF06A807F0FBF82F
:10D6A000210019226A3106A805F0CEFC05220024CB
:10D6B000110006AB04A807F022F904A905A807F099
:10D6C000F7F82300220028000194009405A9FDF733
:10D6D00099FE05A807F0DFF821002800FDF780FF7C
:10D6E00005340520FCF728FBFF2CF5D1FA2080003B
:10D6F000FCF722FB04A807F0CEF803A807F0CBF84C
:10D7000029B030BD2D8D0200F0B59C4B95B005922F
:10D710001A68082304000F00D16C06A80B43D364D9
:10D720009749FCF721FD974907A8FCF71DFD22004A
:10D7300000250DAE30001C3206A907F05CF8310060
:10D7400007AA08A807F057F8300006F0D8FF631CB6
:10D75000DD77A06800F0CCFC03685B69984770191E
:10D76000073508F042FB1C2DF9D180230BADDB00FF
:10D77000AB80A0680B9600F0BBFC036829005B6DD2
:10D780009847A06800F0B4FC036800219B6D98479F
:10D79000A06800F0ADFC0300002506000A331F223C
:10D7A00000211800039305F0F7FC039B3000DD77A0
:10D7B00008F008FB0621A06808F099FB089A0921E7
:10D7C0009378A068043208F0A5FBA06800F090FCF4
:10D7D000C8210571A068FFF741FCA06800F088FC33
:10D7E0000581A06800F084FC08F0F5FA3800FDF728
:10D7F0009BFD2000FCF702FA39002000FFF730FF04
:10D800003900200008F0EAFBFF23049503936269C6
:10D81000012316001E401A4232D05B4909A8FCF7CA
:10D82000D7FD09A90AA807F043F800220AA91300A6
:10D83000019200923800FDF7E5FD0AA807F02BF8E9
:10D84000049B002B47D1039B043B0393039B282B92
:10D8500044DC380007F01CFE039B002B00DC049620
:10D86000059807F015FA002806D0012362699A434B
:10D87000130004221343636109A807F00CF8002584
:10D8800004226369134234D0FF213800C826FDF713
:10D89000A7FE0025B600A36902229B5EAB4223DDF2
:10D8A000200029B2183006F0BCFF00230100380028
:10D8B0001A007430FCF7DCFD3000FCF73DFA38004C
:10D8C00007F0E6FDC820FCF737FA0222636913422D
:10D8D0000AD10135DFE7039B0433B6E7039BFE2B38
:10D8E000BEDD00230493BBE7FA208000FCF724FA96
:10D8F00000250222636913421ED01E000632164024
:10D90000134224D0214909A8FCF762FD09A90AA8FD
:10D9100006F0CEFF00220AA91300019200923800FF
:10D92000FDF770FD0AA806F0B6FF1948FCF704FAE7
:10D9300009A806F0B0FF174D6420FCF7FDF9164B5F
:10D9400001359D4200DC62E706F083FD5FE7134985
:10D9500009A8FCF73DFD09A90AA806F0A9FF3300B4
:10D9600032000AA9380001960096FDF74BFD0AA87F
:10D9700006F091FF09A806F08EFFDDE7EC280020F5
:10D98000408C0200508C0200528C0200978C0200E6
:10D99000983A00008C0A00008B0A0000D48C020028
:10D9A0005A4BF0B508330360816004002520A9B00C
:10D9B00002AB10220391C018002105F0EDFB0BAE65
:10D9C00001233200524833700E33195C013211705A
:10D9D000013BFAD2312202ABD218537811781B02E4
:10D9E0000B43252113AD22006B8202ABC9184523DE
:10D9F0000C32029202A832781B1818002A701022EA
:10DA000005F022FB029B642118930A2300260127BC
:10DA100002AA521813705B1802AA9B1831000C223C
:10DA20001E702F77EE832E851EA819971C9605F081
:10DA3000B3FB384B0C22310023A82193229605F02A
:10DA4000ABFB354B02AA269346239B1803221120D9
:10DA5000DA7702AB0D32C018310026732796059590
:10DA600005F09AFB02AB1F740F232C4806AA195C21
:10DA700001321170013BFAD21D2202ABD218537849
:10DA800011781B020B432520112102AA0BAD127C39
:10DA90006B8202ABC9182A70C018102205F0D4FAA4
:10DAA000012300272B7505AB11930398AF8300F07A
:10DAB0002FFB036829001B68984713ABDB8BA0681A
:10DAC000A38200F025FB03680097A18A029ADD6813
:10DAD0000123A847A06800F01BFB0600142009F0F2
