:020000021000EC
:1080000000400020A5140200E1140200E314020065
:108010000000000000000000000000000000000060
:10802000000000000000000000000000E514020055
:108030000000000000000000E7140200E914020044
:10804000EB14020005BE0100611B0200EB140200EC
:10805000EB140200000000001D150200EB140200EA
:10806000EB140200DD1D0200E9190200EB1402000E
:10807000EB140200EB140200EB140200EB140200FC
:10808000EB140200EB140200EB140200EB140200EC
:10809000EB140200710602004D060200EB14020010
:1080A000EB140200EB1402000000000000000000CE
:1080B00000000000000000000000000000000000C0
:1080C0000448054B10B5834203D0044B002B00D06D
:1080D000984710BDB0200020B02000200000000014
:1080E00006480749091A8B10C90FC91810B549105D
:1080F00003D0044B002B00D0984710BDB0200020C7
:10810000B02000200000000010B5074C2378002BA1
:1081100009D1FFF7D5FF054B002B02D0044800E042
:1081200000BF0123237010BDC82000200000000004
:10813000F0A40200054B10B5002B03D004490548FC
:1081400000E000BFFFF7CCFF10BDC04600000000FC
:10815000CC200020F0A40200402292029A1A9246FB
:108160007047C046154B002B00D1114B9D46FFF7C1
:10817000F3FF00218B460F461148124A121A0BF0EA
:108180001BFC0C4B002B00D098470B4B002B00D056
:1081900098470020002104000D000B480BF024F943
:1081A0000BF0E2FA2000290010F069FD0BF03AF91B
:1081B0000000080000000000000000000040002057
:1081C000B0200020FC2F0020B93602007FB5134BF1
:1081D00003AA1B78002613706B46DE73437A0400F3
:1081E000012B15D00125017A00952B00406803F082
:1081F000BDFA0F222B00217A606800966A4403F0D2
:10820000A5FAB04207D16B46DB7B602B03D06072CE
:10821000607A04B070BD6572FAE7C0461C9E020029
:10822000F0B504000126444B89B01B7802AA012056
:10823000137301F097FD217A0096330005AA0027F9
:10824000606803F093FA2200217A009706236068A1
:10825000103203F07BFA0500B84203D067722800A1
:1082600009B0F0BD300001F07DFD8E2302AA13732A
:10827000217A0096330005AA606803F077FA22009D
:10828000217A0095122360681632029503F05EFA97
:10829000051EE3D1300001F065FDA12302AA13738E
:1082A000217A0096330005AA606803F05FFA06AFF2
:1082B000217A009533003A006068039503F046FA8E
:1082C000029B051E18D1300001F04CFDE12302AAEB
:1082D0001373217A0096330005AA606803F046FA0A
:1082E0001122217A02A8009512180723606803F072
:1082F0002DFA051E02D0039B6372B0E723003A7883
:1083000028331A7002AB5A7C9B7C1B021343638593
:108310002300FA782C331A700F227B7939791A40AE
:1083200009010A43E285BA791B0912011343238626
:10833000FB793234237092E71E9E0200F0B59C4612
:1083400004000D0025606546160025720025666054
:10835000F22689B012A8007865720390039D0EABD7
:10836000A57306AD2E7002361978AE7001362E71E7
:10837000EE3EA172314069701C210FAB1F7810AB2B
:108380001B78E77223739B000B407F011F4303237D
:1083900011AA127813A8007862731A40039BE07345
:1083A000800008405B0118433A436871EA7020007E
:1083B000FFF70CFF01280FD0002326681E496372C7
:1083C000F03605A801F0E6FE7822300005A903F09A
:1083D00023F905A80DF027FC002606232A00217AA0
:1083E0006068009603F0C2F9B0420ED025681349C8
:1083F0006672F03505A801F0CDFE7822280005A9A7
:1084000003F00AF905A80DF00EFC2000FFF708FFA5
:1084100000280DD025680A49F03505A801F0BAFEFC
:108420007822280005A903F0F7F805A80DF0FBFB5A
:10843000200009B0F0BDC046A69E0200B99E020011
:10844000209E0200F0B589B00393234B05AD1B7845
:1084500004002B70437A0F001600012B05D0FFF7A4
:10846000B5FE012835D101F07DFC01232A00217AD7
:108470000093606803F07AF9002306AD00932A00A8
:10848000217A6068083303F061F9002803D00023E3
:10849000637209B0F0BD002F08D02B786A781B03F7
:1084A00012011343AA78120913433B60002E08D02F
:1084B000EB782A791B03120113436A7912091343DB
:1084C0003360039B002BE4D0EB88039A5BBA1380E4
:1084D000DFE701204042DCE7329E020070B5040075
:1084E000436B244A5B109B189E1076430D001A22A2
:1084F000815E72134A431820215ED21059434910FD
:1085000052188021921409025218E18A5143C9136A
:10851000081E2AD02020225EF61256431E20225E1C
:1085200053431C22A05E5B009B1900049B10C318E0
:108530001B1311485D196843104BC01816D4400036
:1085400009F060FD02002425635F90084343D108D1
:1085500049432225605F5B131B182620205E490BD0
:108560004843001318180011801870BD09F04AFD27
:108570004200E8E70006FFFFCBF3FFFF000050C317
:10858000436B244A10B59A188B038021C9015B18EC
:108590002E24015F0905591A3024035F80245343B8
:1085A000CB1A01002C31097824025143C912091950
:1085B000040032342478DB1364B2624392124A43DB
:1085C00080219212890352182A24015F28304A43DD
:1085D00080218901521892135343DA1352430178D0
:1085E000D2114A4312119B1AC8225205934202DC4F
:1085F000DA43D2171A4064241313980A4443FA202A
:108600009B059B0D800058430A21800A09F0FAFC63
:10861000201810BD00D4FEFF10B50400034B03600A
:1086200040300DF000FB200010BDC0462893020032
:1086300013B504230022010001A801F01BFE054927
:1086400001A80DF05CFB040001A80DF0ECFA20007D
:1086500016BDC046E420002013B5020068460E494E
:108660000DF05DFB694601A80DF032FB01A90B4836
:108670000EF0BCFC01A80DF0D6FA094C009B0022BC
:1086800003210433200000F019FE200000F0B6FDA5
:1086900068460DF0C8FA13BDE4200020F828002039
:1086A0001821002010B588B0494907A803F0ECFC58
:1086B00007A905A801F07EFD07A80DF044FC454C74
:1086C000059B002201212000043300F0F7FD042364
:1086D000002205A907A801F0CDFD079B0022043365
:1086E0000321200000F0EAFD07A80DF09CFA20000D
:1086F00000F084FD384907A801F04CFD07A905A842
:108700000DF0FDFA040007A80DF08DFA002C0AD038
:10871000324907A801F03EFD314807A90EF04AF999
:1087200007A80DF080FA2F4907A801F033FD07A92B
:1087300005A80DF0E4FA040007A80DF074FA002C67
:108740000AD0294907A801F025FD254807A90EF000
:1087500031F907A80DF067FA05A907A80DF0B8FAD6
:1087600007A8FFF765FF040007A80DF05CFA002CCE
:1087700018D005A906A80DF0ABFA06A907A80CF0B9
:10878000A5FF144C079B002202210433200000F0B7
:1087900095FD07A80DF047FA06A80DF044FA200051
:1087A00000F02CFD059B181D0BF072F90F4907A86E
:1087B00001F0F0FC022207A90D480EF086FC07A884
:1087C0000DF031FA05A80DF02EFA08B010BDC04624
:1087D000F828002018210020349E0200369E020056
:1087E00080260020389E02003A9E0200F3A202007A
:1087F000302500200023F0B593B004AF160002AA84
:10880000D3805381059306933B80079313000500A3
:1088100006AA0633019105A9FFF714FE2800069960
:108820000CF032FF059904002800FFF757FE642181
:1088300009F0E8FB02ABD98800902800FFF7A0FE02
:108840000A2202A907AB521805003900019800F06E
:1088500059FB8B490BA801F09DFC6421200009F015
:108860005BFC01000AA80DF0FAF90AAA0BA90CA8F2
:108870000DF055FA83490DA801F08CFC0DAA0CA946
:108880000EA80DF04CFA002C00DCD2E06421200090
:1088900009F028FD0FA80DF0E2F90FAA0EA910A803
:1088A0000DF03DFA784911A801F074FC11AA10A945
:1088B00008A80DF034FA11A80DF0B5F910A80DF0C4
:1088C000B2F90FA80DF0AFF90EA80DF0ACF90DA894
:1088D0000DF0A9F90CA80DF0A6F90AA80DF0A3F95E
:1088E0000BA80DF0A0F969490BA801F053FC642115
:1088F000280009F011FC01000AA80DF0B0F90AAA3D
:108900000BA90CA80DF00BFA5E490DA801F042FC72
:108910000DAA0CA90EA80DF002FA6421200009F09E
:10892000E1FC0FA80DF09BF90FAA0EA910A80DF0FD
:10893000F6F9574911A801F02DFC11AA10A909A8B0
:108940000DF0EDF911A80DF06EF910A80DF06BF90E
:108950000FA80DF068F90EA80DF065F90DA80DF03F
:1089600062F90CA80DF05FF90AA80DF05CF90BA8EC
:108970000DF059F947490FA801F00CFC00990EA819
:108980000DF06DF90EAA0FA910A80DF0C8F9424913
:1089900011A801F0FFFB11AA10A90DA80DF0BFF955
:1089A00011A80DF040F910A80DF03DF90EA80DF03A
:1089B0003AF90FA80DF037F9384911A801F0EAFB90
:1089C000079910A80DF04BF910AA11A90FA80DF0E6
:1089D000A6F910A80DF027F911A80DF024F93368B5
:1089E0000022043303212E4800F068FC002300938A
:1089F000336802229B5E009A93422FDD6B4600246F
:108A0000284F1C573B68264DE1180022264B2800B2
:108A1000C9B200F053FC3368009A9B181B79502BA5
:108A200018D009D8482B13D04C2B15D0009B0133FC
:108A3000DDE7642160422BE7542BF7D1089B3968AE
:108A40000022611828000433C9B200F037FCEDE7BA
:108A5000099BF4E70D9BF2E70F9BF0E7104800F04D
:108A6000CDFB0FA80DF0DFF80DA80DF0DCF809A87C
:108A70000DF0D9F808A80DF0D6F813B0F0BDC04637
:108A80003C9E0200429E0200449E0200479E02005D
:108A90004D9E0200519E0200579E02005C9E020005
:108AA0001821002004200020619E0200F7B5284D07
:108AB000280000F037FC274C28002200264910F03F
:108AC0008AFA264F002238001E210DF091FF244E15
:108AD000022303226421300003F058F82200300002
:108AE000204910F078FA7A233A00290000931E48B2
:108AF000330000F0BBFB14231C4D009319221821F6
:108B0000280003F017FB22002800194910F063FA2F
:108B1000184E1949300001F03DFB184D2200290084
:108B2000300010F058FA164E1649300001F032FBB2
:108B300022002900300010F04EFA134E1349300085
:108B400001F028FB29003000220010F044FAF7BDA4
:108B50009025002000200020918B010000210020A2
:108B6000F0200020B95602001821002030250020F6
:108B700019860100E4200020709E0200275C02009C
:108B8000E8200020759E0200EC200020779E020065
:108B9000CB23144A9B0010B5C2501C330400C018EC
:108BA0000DF041F8D1239B00E0180DF03CF82000B7
:108BB0009130FF3001F03AFF20006930FF3001F0C2
:108BC00035FF2000F03002F0A3FA2000D03002F090
:108BD000B9FE2000643008F027FB201DFFF71CFDC4
:108BE000200010BDB4970200F0B5404D9BB02800A6
:108BF00000F04EFC3E4E3921300003F035F93020B4
:108C000010F0F4F910230400092100930122394BDC
:108C10000CF0A3FF2100384802F028FE002805D000
:108C200020000CF0B4FF200010F0DCF9300003F05D
:108C30002FF90022314C1100314B200000F03EFB97
:108C4000200000F0DBFA0323002401272D4E0393BC
:108C50000233320029000293019300930594E73315
:108C600004970CA8FFF76AFB5223320029000297F1
:108C70000194009408A800F055F823480DF09CFAE0
:108C8000002825D0214907A801F084FA07A8FFF79A
:108C9000E3FC07A80CF0C7FF1D4907A801F07AFA0A
:108CA00002221C4807A90EF010FA07A80CF0BBFF1F
:108CB000194907A80DF00CF807AA08A90CA8FFF796
:108CC00099FD07A80CF0AFFF642001F04BF8D4E742
:108CD00012480DF071FA0028EAD0114907A801F0F6
:108CE00059FA07A8FFF7B8FCDFE7C0469025002037
:108CF000E0280020A5860100602600201821002021
:108D00007C9E020000210020F8260020829E0200A6
:108D1000899E020030250020EC2000202027002022
:108D20008E9E02007FB504002372002362606A46B3
:108D300008A806780AAD09A800782D78A0722373D8
:108D40002843813313812160507266722000E572DE
:108D50000CF0CCFC01280DD025681649F03503A88D
:108D600001F018FA7822280003A902F055FC03A8A4
:108D70000CF059FF0025012000F0F4FF0223217AB6
:108D80006068009502AA02F0F1FCA8420ED025739B
:108D900025680949F03503A801F0FCF9782228007C
:108DA00003A902F039FC03A80CF03DFF200004B039
:108DB00070BDC0469D9E0200B09E020070B5C37A91
:108DC0000600002B28D0013B581E83415842424BDD
:108DD0001840C0235B01C018B37A002B00D10001FA
:108DE0000023414350438C0A850A9C4203D0210052
:108DF00009F008F90300727A01335B08022A0ED9E0
:108E0000032A24D00020010080234C4368439B01A7
:108E1000E418201A800B70BDE8200002DCE7402B2C
:108E20002DD9802B30D9C02B32D9802252009342C9
:108E300031D93832934231D96232934233D900204A
:108E4000264A01009342DFD812301831DCE7432B69
:108E50002CD9852B2ED9C82B2FD98522520093428D
:108E60002ED9443293422ED34C3293422FD9002034
:108E70001A4A01009342C7D82B303731C4E7DF20AC
:108E8000F92140004900BFE7852115488900BBE76B
:108E900014481549B8E79C211448F7E7FE207021D3
:108EA0004000FF31B0E7FB20D221ADE7AE208121A9
:108EB000FF30EBE78A210E48E8E70E480E49A3E7AA
:108EC0000E480F49A0E7DE207821FF30E9E728208F
:108ED0000221FF30E5E7C04600ECFFFF9A020000E8
:108EE000D10200007B0300003F020000FE030000EF
:108EF000C10200006303000053020000DF03000012
:108F000082020000F0B51E00174B87B01B78039259
:108F100004AA13700123040000270291017A009330
:108F2000406802F023FC0423217A6068009705AAB8
:108F300002F00CFC0500B84203D02773280007B0EC
:108F4000F0BD02AB9989DA89029B002B00D0198011
:108F5000039B002B00D01A80002EEFD02000FFF7DB
:108F60002DFF3060EAE7C046C49E0200F0B58BB02A
:108F70000F00060014000021182204A81D000AF0AA
:108F80001BFD6B4680205F7418746B000B2D26DC74
:108F9000002D09D0220004A96519147801328870C7
:108FA000CC7002319542F8D100227A21009270688B
:108FB000023304AA02F0DAFB041E0DD03568094919
:108FC000F03503A801F0E6F87822280003A902F0A2
:108FD00023FB03A80CF027FE20000BB0F0BD1624E5
:108FE0006442F9E7C69E020010B5044BC154C21892
:108FF00081210123FFF7BAFF10BDC0460F04000016
:1090000010B5074BC35C082B05D10023A1211A0022
:10901000FFF7ACFF10BD0023A0211A00F8E7C046FF
:10902000110400000F2373B519406B461201114360
:10903000C9B2DE1C04003170F0290DD005680A4960
:10904000F03501A801F0A6F87822280001A902F065
:10905000E3FA01A80CF0E7FD32000123D52120003E
:10906000FFF784FF76BDC046D49E0200F7B56B467D
:10907000012700250400DE1C574B3900C7548068C7
:10908000357002F0D5FD380000F06CFE2900A068B4
:1090900002F0CEFD0A2000F065FE3900A06802F063
:1090A000C7FD2B002A00AE212000FFF75FFF051E41
:1090B0000FD024684949F03401A801F06BF87822F8
:1090C000200001A902F0A8FA01A80CF0ACFD2800CC
:1090D000FEBD022120000CF05EFB051E03D02468BB
:1090E0003F49F034E8E70F2201002000FFF79AFF24
:1090F0003F2120000CF077FB3A4B2000E25C3A4B1A
:10910000E15C0CF07BFB2B002A0029002000FFF71C
:109110002DFF364BE35C002B07D114333370320044
:109120003B008D212000FFF721FF002120000CF0E3
:1091300015FB051E03D024682D49F034BCE701005F
:109140007F2220000CF013FB2900072220000CF0E6
:1091500018FB2000FFF754FF051E03D024682549A3
:10916000F034A9E720000CF02EFB051E03D0246884
:109170002149F034A0E712233200DA2133702000B5
:10918000113BFFF7F3FEFF212000FFF72DFF174BE8
:10919000E35C002B0FD1F1333200D9213370200072
:1091A000F03BFFF7E3FE302332003370DB21200079
:1091B0002F3BFFF7DBFE0023B0211A002000FFF752
:1091C000D5FE042120000CF0E6FA012120000CF06D
:1091D000EDFA05007BE7C04615040000E09E0200A2
:1091E000EC9E0200130400001204000014040000AE
:1091F000FB9E0200049F02000D9F02007FB5184EE7
:109200000500815D00290DD17F220CF0B0FA041E0B
:1092100023D10100072228000CF0B3FA041E1CD150
:109220000123AB5540232B7300232A0000937A219E
:109230000C4B68680C3202F099FA041E0DD02D68B0
:109240000949F03503A800F0A5FF7822280003A9FA
:1092500002F0E2F903A80CF0E6FC200004B070BDB7
:109260001504000001040000169F020010B5040060
:109270002160210002A8A36000780B4B62600C31D2
:10928000E054002220000CF0CDFA084B084A2000E0
:10929000E252084A0233E2508022074B5200E25267
:1092A000FFF7E4FE200010BD0D0400000E040000D6
:1092B0000480FFFF07080A0414040000F0B587B01B
:1092C000039018000C00160004930AF065FE0025B8
:1092D0000590059B9D421EDA049B5A5D0023202ABF
:1092E00002D91300203BDBB20D4A0399DB009B1827
:1092F000771CFFB200933200230003980C310CF06E
:109300009BFA0F2F04D90134E4B2072C04D80027AC
:109310003E000135DDE7059D280007B0F0BDC046E1
:10932000289002001423F0B5040093B01922009392
:109330001821043002F0FEFE2300250026006433CD
:109340001800B43513211093B83607F079FF2800C0
:109350000DF003FF00221E2130000DF049FB20001C
:10936000D03002F00FFB2300F03307211800454AEC
:10937000119301F0F5FE20000027012369301A0047
:1093800011210097FF3001F05DFB20009130012397
:1093900002221A210097FF3001F054FB2000B9305F
:1093A000022201210323FF3002F0B8FB300001F05C
:1093B0004FF9E4235B00E050300001F09DFBE62311
:1093C0005B00E0500100E42220005200D130119BEC
:1093D000A2580095FF3001F091FC2000E1302900F7
:1093E0000822FF3003F030F9782320000F93013B6F
:1093F0000E93033B0D93013B0C93013B0B93013BFD
:109400000A93013B0993013B0893013B0793013BFE
:109410000693013B0593013B0493013B0393013BFE
:109420000293013B0193F930013B652200936421D3
:10943000013BFF300DF0FDFACB239B002900E01823
:1094400004F0C2F8D4239B00E018092102F076FC56
:10945000DE239B00E7501098032127700FF0CBFA12
:1094600023002200200008499C33A0321C6082C2E5
:10947000064A02215A618030012208F001F92000D9
:1094800013B0F0BD3093020067580200515802003B
:109490000278F0B501231700040091B01F401A4272
:1094A00063D10300D0331800049300F0CBFA00F02E
:1094B000DDF930200FF09AFD050010300CF052FC61
:1094C000280024300CF0D6FA6A4B18202B600FF0DD
:1094D0008DFD0600684B0822390004600C300E93A5
:1094E0000F970AF069FA0EA90822301D0AF0BCF99C
:1094F000624B2900736112230498AE60EF60AB8069
:109500002F62EF6202F0B2F9002805D028000CF0BB
:109510003EFB28000FF066FD012326002278B436BA
:1095200013432370564930000DF01DFE00255549A8
:10953000039030000DF017FE2F000590642000F01E
:1095400011FC029523006933FF33180006930CF0D9
:1095500033FE00280BD1039B002B12D1059B002B5F
:109560000FD14949494800F0C1FC11B0F0BD2000BD
:109570009130FF300CF020FE0028ECD0029B182B1D
:10958000E9DC20006530FF2339B22AB2FF3000F059
:10959000C9FE322000F0E6FB029B01370133FFB227
:1095A0000293052F02D100270135EDB2029B192B42
:1095B0000AD0039B002BC5D03000314902F0D6FF02
:1095C00003980FF00FFD02E0039B002BF4D1059BE5
:1095D000002B02D018000FF005FD2B492C4800F09D
:1095E00085FCCB239B00E3180793DE239B00E35805
:1095F0000893002B36D100F059F801000BA800F0B9
:10960000C9FD0CF0B6F908900CF0B3F96B4609905F
:10961000198C0DA80CF023FB099B0EA8190C0CF05B
:109620001EFB0EAA0DA90CA80CF079FB0EA80CF0DD
:10963000FAFA0DA80CF0F7FA01230CAA0BA9079867
:109640000093049B04F01AF80CA80CF0ECFA0BA899
:109650000CF0E9FACD239B00E3580893DE23089A27
:109660009B00E2502100069A0798F03104F0F6F9C9
:1096700068E7C046FD030000D9580200995802006F
:10968000289F0200339F02000020002008000020D5
:10969000001C0020BFF34F8F024B034ADA60BFF378
:1096A0004F8FFEE700ED00E00400FA05F0B58BB047
:1096B00003AF1922380015490AF0D6F80023144DDB
:1096C00005266B7180235B055B6E2C0000930123E4
:1096D00001933100009808F01BFD0800019908F083
:1096E00091FC0522009B56431B1A0093019B534398
:1096F00001932B1B5343FB181B5C013C6371054B0F
:109700009C42E6D102480BB0F0BDC046799F0200F2
:10971000362F0020312F0020F0B595B018220021FF
:1097200004000EA80AF048F913210EA80FF07EFAE3
:1097300003210EA80FF02CFB464B1B68002B00D119
:109740000133DBB2009300210123434A09A808F04A
:1097500007F9FA239B009C429B411C4072B63F4B89
:1097600064211E683E4B20000593052508F0D4FCBB
:109770006843503030180A210690200008F0CCFCD5
:109780000A2108F0AFFD694350317118200007919C
:109790000A2108F0A7FD6943503171188026002482
:1097A0000891B601009B002B52D004AD0027032C7A
:1097B00002D180260024B6016B682A4A0293630016
:1097C000D3180022019258780299095C0391197804
:1097D0008C461021604601410398014204D00120CB
:1097E000904001990143019101320633092AEAD1DF
:1097F000019B2A68D9431C4B09011940029B9342E3
:1098000024D1312F22DC002109A80FF07AFBFA23A2
:10981000139A0F99DB001068014219D0013B002B0D
:10982000F9D1FA23013401377600E4B25B009F429C
:10983000BDD1043508ABAB42B8D1064B1B68002B39
:10984000B0D0009B013BDBB20093ABE73143DBE7D9
:10985000FFF720FF10290020F0FF00000820002063
:10986000C89F0200929F0200F01F0000F8B500237D
:10987000124C23600CF06FF8002808D0042120005F
:109880000CF065F8002801D00D4B2360F8BD0123D2
:10989000A12704210B4A0C4D13602368FF00686068
:1098A0006E68002EFCD0D6591B02013933430029C3
:1098B000F5D1236001235360E8E7C0460C2900205E
:1098C000ED5EBC0B00D00040FCD000400B4B70B5EF
:1098D0001C68002C10D0656D00F018FCA36C0029EA
:1098E00001D1834206D820000CF08CF820000449F6
:1098F0000CF078F82C00ECE770BDC0461829002069
:1099000038290020F0B595B007932A4B04AC1E68A7
:10991000049005910692002E49D0274B6788258830
:109920001C6800230293002C2DD0636D2348039301
:10993000A36C190C9AB20B00854214D120488242C4
:1099400011D1002901D0B9420BD1029B002B08D1C3
:1099500020000CF057F820001A490CF043F80123BE
:109960000293039CDFE7002A01D09542F9D1002938
:1099700001D0BB42F5D120000CF044F82000114981
:109980000CF030F8EDE7104BEB18012B0FD910233A
:109990003A002900009308A80C4B0CF0DEF833685D
:1099A00030009B6808A9984708A80CF0F0F815B09B
:1099B000F0BDC0461429002048290020FE03000005
:1099C000FF0300003829002002FCFFFF0599010079
:1099D00010B572B60E4B1C68002C0ED020000CF097
:1099E00011F80023E3640B4BE36372B60A4B1A6869
:1099F0001C60A26562B6200010BD62B65C200FF04C
:109A0000F5FA5C220021040009F0D6FFE9E7C04620
:109A100040290020004000203C290020074B10B5C1
:109A20001C68E36CDB0706D5FFF7D2FF044B186018
:109A3000002800D00400200010BDC0464C290020A2
:109A40001C290020F7B51E4C0123227816001E4069
:109A50001A4233D11B4D2860FFF7BAFF1A4B1B493E
:109A600018600BF0BFFFFFF7B3FF194B1860194BDD
:109A70004363194B8363286800280FD0C023174F16
:109A80003200174900933B000BF086FFC023009380
:109A900032003B00134928680BF07EFF0C200FF0CA
:109AA000A5FA0023838083710F4B03600F4B836003
:109AB00000F044FB0123227813432370F7BDC04616
:109AC0003C2F0020142900204C2900203829002098
:109AD00044290020FC3F0020695A0200059901003A
:109AE000FF030000FE03000050930200CD98010028
:109AF000024B1878012318407047C0463C2F0020C5
:109B0000F7B5134F04003B680E00002B1ED0114B1D
:109B10001B78DB071AD5FFF781FF050033042343C9
:109B200083640BF06FFF28000B490BF05BFF0B4BBE
:109B30000025E318012B07D9C02300933200210030
:109B4000074B38680BF028FF2800FEBD054DFBE7EA
:109B5000142900203C2F00204829002002FCFFFF90
:109B60000599010016FCFFFFF7B506000D00170070
:109B70000193002802D100242000FEBD0029FAD064
:109B8000FFF726FF041EF6D0074B019A43630660D9
:109B9000064B45608760002A00D0054B2000054930
:109BA000A3630BF01FFFE7E7FC3F0020435A0200CE
:109BB000515A02003829002070B5074B0E001100E1
:109BC0001A7805000123100018401A4203D0320011
:109BD0002800FFF7C9FF70BD3C2F0020F8B5050035
:109BE000EFF30884C36B006C1C1B6B6C1B1A9C424C
:109BF0000FD91F23074E203437689C43002801D01B
:109C000000F0D6F9200000F09FF92864001968647C
:109C10003760F8BD4C290020024B18684342584178
:109C20007047C046382900200300002210B50449BF
:109C300094006058002801D00132F9E7635010BD4C
:109C400020290020002310B5044A99008C58844232
:109C500001D00133F9E70020885010BD20290020F1
:109C600010B50024084BA200D058002802D0036889
:109C70005B6898470134062CF4D1044B1B68002B19
:109C800000D120BF10BDC046202900203829002067
:109C90000122F8B52C4B1B7813421CD02B4D2C689D
:109CA000E36C134218D002273B43E364284B1E6841
:109CB0000423F26C30001343F364636BF363FFF728
:109CC0008DFF3000716C04F0CAFA2868C36C3B4207
:109CD00001D004F0FEFAF8BD1E4F1F4E3A683068FE
:109CE000002A0AD128601B0712D52C60FFF7B8FFA5
:109CF0003B68002BFAD02B600AE0216DB94219D1E4
:109D0000616D002900D1110029602A688242EAD0E1
:109D100029688C42DFD0336899420DD10F4B4B63D9
:109D20000F4B8B632000FFF759FF296820004B6C15
:109D3000626C06E02A60E8E79C42F3D10022100042
:109D40004B6C04F04BFAC6E73C2F00204C29002056
:109D50001C2900203829002044290020FC3F002035
:109D6000695A020070B50C4B04001B78DB0702D463
:109D70000FF007F870BDFFF751FE050000F0C6F9BF
:109D80002418AC6428000BF03DFE280003490BF0BA
:109D900029FEFFF77DFFEDE73C2F0020182900206A
:109DA000F8B51B4B1B78DB0727D50024194E30680C
:109DB0000BF028FE184D2B68002B02D05B6D013490
:109DC000FAE7032C0ADD2F68013C7B6D386C2B60B1
:109DD00000F0EEF8380000F0EBF8F2E72900306808
:109DE0000BF000FE72B60D4932680B68934206D143
:109DF0009B6D0B6062B6FFF74BFFF8BD0B00002BAD
:109E0000F8D0996D8A42F9D1926D9A65F2E7C04611
:109E10003C2F00204C290020402900203C29002014
:109E200010B5034B1B78DB0701D5FFF7B9FF10BD59
:109E30003C2F0020F7B505000C00002833D0012688
:109E40001B4B1B78334230D01A4F07233868C26C43
:109E50001100194000911A4207D021002800164A2B
:109E6000FFF7AAFE00252800FEBD04F01AFA3A68A2
:109E70000221D36C1800084001900B4203D001313D
:109E80008B43D364EEE73343D3642000A8473A689A
:109E9000019DD36C1900B143D1645B07E3D5200069
:109EA000FFF7BEFFDFE7054DDDE7054DDBE7C04609
:109EB0003C2F00204C290020219E010017FCFFFFB1
:109EC00016FCFFFF020010B5014B12CB12C210BDF1
:109ED00050290020034B1A68034B1A607E225A60F7
:109EE0007047C0460820002050290020F0B5124ECF
:109EF00003003278022A1BD081421BD90C1A072C8E
:109F000018D90D0005430327280038403D4211D1E0
:109F100072B6BA40094DA4085351AA185160802264
:109F2000120614431C6033780133337062B6F0BDFF
:109F30000348FCE70348FAE73E2F00205829002099
:109F400013FCFFFF17FCFFFF70B5041E23D0124D5A
:109F5000124E2B78002B0CD1114912483370FFF7A9
:109F6000C5FF114B984202D11E20FFF7D5FB0123FC
:109F70002B7000253378AB4209DD0C49EB00200043
:109F8000C9180BF07BFD002805D10135F2E714203C
:109F9000FFF7C2FB002070BD3D2F00203E2F0020A8
:109FA000003800200030002017FCFFFF5829002057
:109FB00010B5002817D000220F4B19780F4B914293
:109FC00015DD1C6884420FD25C6884420CD9041FE2
:109FD0002368002B02DC1E20FFF79EFB80232268F3
:109FE0001B061343236010BD01320833E7E71E2030
:109FF000FFF792FBF7E7C0463E2F002058290020CC
:10A0000070B5051E14DD0B4E0B4C3368002B02D0CF
:10A0100020680EF05EFDFA2120680024074B8900BD
:10A020008361C462694335600EF064FD200070BD39
:10A030000348FCE76829002098290020E9A00100D6
:10A0400017FCFFFFF8B5114F05003E68002E0AD13E
:10A0500030200EF0CBFF040007F05AF90C4BA6613C
:10A060002360E6623C600B4E3368002B09D1102060
:10A070000EF0BCFF04000EF089FD200034600EF0ED
:10A080005FFD2800FFF7BCFFF8BDC04698290020FF
:10A090005C9B020094290020014B18687047C04661
:10A0A0006829002070B50D4C2368002B03D00C4BA1
:10A0B0001B68002B02D10620FFF7C4FF20680EF0BA
:10A0C00056FD02000749C3170D684E6852197341C7
:10A0D00020680A604B600EF050FD70BD942900208E
:10A0E00098290020B020002010B5FFF7DBFF0024E6
:10A0F000054BA200D058002802D003681B6898477F
:10A1000001340A2CF4D110BD6C29002010B5FFF7E2
:10A11000C9FFFA22034B920018685968002308F01F
:10A1200021F910BDB020002010B5FFF7BBFF024B96
:10A130001868596810BDC046B02000200B4B10B500
:10A140001B680400002B03D0094B1B68002B02D1B5
:10A150000620FFF777FF0023064A99008858002859
:10A1600001D00133F9E78C5010BDC046942900207E
:10A17000982900206C290020002310B5044A99007A
:10A180008C58844201D00133F9E70020885010BD7B
:10A190006C29002010B50400002902D00B78002B98
:10A1A00003D1034B2360200010BD0BF043FDFAE701
:10A1B00060930200F8B5050008000C000BF0FFFEEC
:10A1C000002803D1124B2B602800F8BD20000BF0B3
:10A1D000F6FE0530FFF7B8FE28600BF0F3FE200016
:10A1E0000BF0EDFE2E68708020000BF0E5FE0700FE
:10A1F00020000BF0E4FE39000200301D09F034FBB2
:10A2000020002E680BF0DBFE002336183371DBE7ED
:10A2100060930200F8B504000E00150000290AD072
:10A220000B78002B07D0002A05D0080097B209F060
:10A23000B3FE874203D90B4B23602000F8BD681D95
:10A24000FFF782FE20600BF0BDFE20682A004780E9
:10A250003100043009F008FB23685D1900232B71DD
:10A26000EBE7C04660930200014B03607047C046B5
:10A270006093020070B50968160002228C5E05002A
:10A28000A64206DB084B186828600BF09EFE2800EB
:10A2900070BDA41B9C4200DD1C000431280022B2CA
:10A2A0008919FFF7B7FFF2E79C29002010B5054890
:10A2B000054C20600BF089FE2000044A04490EF092
:10A2C0008AFE10BD609302009C290020002000201F
:10A2D000275C0200084B73B51D680400002D0AD0EE
:10A2E00001002E6808220831684609F0BDFA0CCC3E
:10A2F00028003168884773BDA0290020014B036006
:10A300007047C0466893020010B50400081E03D1D0
:10A31000034B2360200010BD21600BF056FEF9E7CF
:10A320006893020030B500684488A1420CDA858841
:10A33000AA4209DA002907DB002A05DB624340183C
:10A3400080188371002030BD0048FCE717FCFFFF38
:10A35000F0B507000E001D0085B0002921DD002AA0
:10A360001FDD002B1DD00468638803938B4200DD42
:10A370000391A3880293934200DD029200230634E6
:10A380000193019B029A93420ED029002000039A68
:10A3900009F06AFA3B68AD195B88E418019B013348
:10A3A000EEE7024805B0F0BD0020FBE717FCFFFF19
:10A3B000F8B504000D0016001F00002901DB002A7B
:10A3C00002DA0D4B2360F8BD100048430630FFF75A
:10A3D000BBFD20600BF0F6FD23685D809E80002FA2
:10A3E00006D03B00320029002000FFF7B1FFEAE76A
:10A3F00020000BF008FDE6E768930200F7B50700C0
:10A400000D1E03D1244B03603800FEBD002408005C
:10A410002600210001940378002B1AD030225242EA
:10A4200094469C446246092A11D90A2B0AD1019B01
:10A43000361901330193B14200DA310000242600BD
:10A440000130E8E7002CFBD000240136F8E70124B6
:10A45000F6E7019A380012B209B2FFF7A9FF01210D
:10A4600049420E000A203B689A1D2C78002CCBD064
:10A470002300303B092B08D8CB43DB170B40434369
:10A480001B19303B19000135EFE70029FBDB117088
:10A4900031000132F7E7C04668930200F0B50400CE
:10A4A00087B004A80E001D000192FFF70BFD236882
:10A4B00001995A88914233DA9B889D4230DA1F2EE7
:10A4C0002ED9059B00939E422ADC0523002173436D
:10A4D000049AA03BD3180393039B6E185B5C029312
:10A4E0000023019AD718226850880090B8420EDDE8
:10A4F0009088B0420BDD0098D219704312181020DA
:10A500001841029F3840471EB841404290710133C4
:10A51000052BE6D101310529DED1002007B0F0BDC1
:10A520000048FBE717FCFFFFF7B5036806009F1D17
:10A530005B880D005A1A0192002919DD0024994206
:10A5400003DB0BF060FC002013E033689B889C4227
:10A55000F9DA79193800019A09F086F9019B290086
:10A56000F8180BF033FC336801345B88FF18ECE714
:10A570000048FEBD17FCFFFF10B50548054C2060E4
:10A580000BF023FD2000044A04490EF024FD10BD09
:10A5900068930200A429002000200020BF5D020073
:10A5A00010B5054C012120000BF0F7FC2000034AF8
:10A5B00003490EF010FD10BDA82900200020002046
:10A5C000475F0200074A030010B50120934208D0FC
:10A5D000834202D00020DB0703D41E20FFF79CF843
:10A5E000002010BDFFFF00000048704716FCFFFF71
:10A5F00010B53220FFF790F8004810BD16FCFFFFA1
:10A6000082801422002310B541620F4C01000834EF
:10A6100004600E240281123A83718272036383867E
:10A6200036310A78C360A243036143618361C36129
:10A6300003620A70021DD38701224287034AC26364
:10A6400002004032137010BD889302000100010027
:10A65000F0B5564E0500376897B0002F00D090E057
:10A6600006AC0B231C228221200001F08FFA0B2361
:10A670001D2283210AA801F089FA0B231B228421C1
:10A680000EA801F083FA08200EF0B0FC01223B0076
:10A69000110004900DF0C9F83A2128000CF0E4FDF7
:10A6A00000281CD0A38812AFBB80A379A268BB711D
:10A6B0003F4B5C2012930E23E3561492A289BB7386
:10A6C000BA810EF093FC05230193353300933A00D1
:10A6D0002900049B040002F0B9FA346051E03221F1
:10A6E00028000CF0EFFD00281BD0A38812AFBB8020
:10A6F000A379A268BB712E4B5C2012930E23E35604
:10A700001492A289BB73BA810EF070FC05230193E9
:10A710002D3300933A002900049B040002F03AFC18
:10A72000DBE73C2128000CF088FD002834D03622DD
:10A7300002AB9B8E12AFBB8002AB9B181B7808321A
:10A74000BB711B4BA420129302AB9B18109A1B7871
:10A750001492059202AA928F5BB2BA81BB730EF07B
:10A7600045FC062304000293013B01933733009319
:10A770003A00049B290002F089F90E4B34604434FE
:10A780001C600C4B094C1868002802D021680BF0A3
:10A7900081FD206817B0F0BD44200EF027FC052293
:10A7A00004990400FFF72CFF97E7C046AC2900206E
:10A7B00078930200B0290020F0B56349C56885B0E0
:10A7C0008D4258DA030036331C78022223001340EE
:10A7D00014425BD1026901928A4265DA0200363284
:10A7E000127852076AD4426902920200029C4032F7
:10A7F0008C4270DA010036310978090775D4002BD4
:10A800007ED113789C46002B16D00100061DF38FD5
:10A81000363101339BB2F3870391097801270C008D
:10A820003C40394200D188E01D2B05D9039BB94338
:10A8300019700023F38713700BF00CFC434A0723B5
:10A84000904277D94249043B8D4273DBC8220133E1
:10A85000920095426EDC0198023B88426ADB013B24
:10A86000904267DC02980433884263DB0023904205
:10A8700060DD06335EE0C822002352009542A9DD68
:10A88000030036331A7800239207A3D4012306006D
:10A890001F00363632785408A7433C0002279C40FC
:10A8A000BA432243327095E7C822019C5200944279
:10A8B00099DD020036321278520794D40123060043
:10A8C0001C00363632789708BC43A7000424A24304
:10A8D0003A43327087E7C821029C49008C428EDDE2
:10A8E000010036310978090789D401000126363183
:10A8F0000B78DF08BE430827F600BB4333430B70D9
:10A900001378032B00D97CE70133DBB21370012BE2
:10A9100003D10021031DD98773E7042B00D070E712
:10A92000020036321178033B0B43137000230430CE
:10A93000C3870B33180005B0F0BD092B00D87BE7A7
:10A940006346F487013B76E770FEFFFFFF7002006D
:10A95000E0FCFFFFF0B5C369C1681A68451D04003B
:10A96000EB7F89B0114225D0002B57D10123A2796A
:10A970001A4237D0002602226846A188A6710BF041
:10A98000FBF9A31DDD7F012D2CD1FFF7BFFB3300A9
:10A99000226A801A99410F000600A1889F4203D1C4
:10A9A000FA239B009E423BD30123042204A80BF010
:10A9B000E3F917E00B2B01D80133EB77EB7F082B82
:10A9C0000DD90122A37913420CD11343A188A3719D
:10A9D00004A813000BF0D0F9FFF798FB2062EB7F7F
:10A9E000012BC3D90322A3791340012B14D1FFF704
:10A9F0008DFB0023226A801A9941994202D10A4BA9
:10AA0000984209D90223A279A1881343A371052290
:10AA1000012304A80BF0B0F909B0F0BD013BCCE76D
:10AA20002B000322C2E7C046DB05000010B504007E
:10AA3000034B08330360FFF79FFB200010BDC046A7
:10AA4000BC930200F0B5060000250F00040085B09D
:10AA500002930AAB1B78083603930F4B2900083387
:10AA600003600192858085711822300008F0A4FFF0
:10AA700039003000039A0EF0DEF8019B029AA380A1
:10AA8000A31DE771DA77631D25622000DD77FFF7EC
:10AA900055FB200005B0F0BDBC9302000048704794
:10AAA00016FCFFFF10B53320FEF736FE004810BD40
:10AAB00016FCFFFF002310B50400838083710D484E
:10AAC0002164083020608020C000A061E061206225
:10AAD00011002000E360236163616362A362E362AB
:10AAE00023636363A363E36363640BF0ABFB200046
:10AAF00010BDC046D4930200F0B5544E050037682F
:10AB000097B0002F3DD10B231C22822106A80AAC4E
:10AB100001F03CF80B231D228321200001F036F8C0
:10AB20000B231B2284210EA801F030F808200EF020
:10AB30005DFA01223B00110004900CF076FE1D210D
:10AB400028000CF0A8FB002824D0A38812AFBB80FB
:10AB5000A379A268BB713E4B602012930E23E3568B
:10AB60001492A289BB73BA810EF040FA06230193B6
:10AB7000173300933A002900049B040002F03AF9CD
:10AB80003460344B314A1B681068002B00D043649A
:10AB900017B0F0BD3C2128000CF0ABFB00281BD007
:10ABA000A38812AFBB80A379A268BB71284B602039
:10ABB00012930E23E3561492A289BB73BA810EF04E
:10ABC00015FA06230193363300933A002900049BBB
:10ABD000040002F081FAD3E73C2128000CF02DFBA1
:10ABE000002829D0362202AB9B8E12AFBB8002AB6D
:10ABF0009B181B780832BB71154BA420129302AB33
:10AC00009B18109A1B781492059202AA928F5BB23D
:10AC1000BA81BB730EF0EAF9062304000293013BEC
:10AC20000193373300933A00049B290001F02EFF73
:10AC3000084B1C604434A3E748200EF0D7F90622E5
:10AC400004990400FFF736FF9AE7C046B0290020B8
:10AC500078930200AC290020F0B587B001930EABC9
:10AC60001B88060003930D9B0D000093019B0C9F16
:10AC70000292002B3DD0002F02D1009BDB0738D57C
:10AC800030200EF0B3F9040010300BF06BF8200008
:10AC900024300AF0EFFE029B1820258063800EF01E
:10ACA000A5F90500009B08220593019B0021036084
:10ACB0000C30049708F080FE082204A9281D08F033
:10ACC000D3FD0D4B02226B6100230399E3602362E5
:10ACD000E36233680A43300021005B68A560A2800C
:10ACE0009847002805D020000AF051FF20000EF000
:10ACF00079F907B0F0BDC046D962020070B58CB0DA
:10AD00008360109B01604260C36004001849180012
:10AD10000CF029FA051E14D001001C22103105A8E0
:10AD200008F0A2FD6A4608AB43CB43C21B68136020
:10AD300020680599069A079B0BF096FA28000EF0FA
:10AD400051F90C4B186800280ED00B4A05AB059240
:10AD500000220692C03202926A4622CB22C223000F
:10AD600003220621FFF778FF20000CB070BDC0461B
:10AD7000A8A10200A02900207DAD010082B0F0B59D
:10AD80000400EDB06420739372920DF0FAFF052277
:10AD900010A811000BF040F8954911A8FFF72EFB01
:10ADA0001925002221AB013D1A605A609A600C33CC
:10ADB000002DF8D11522290014A8139508F0FCFDE8
:10ADC000A0680BF00EFEFF210A90A06800F0B4FC12
:10ADD000884FA06800F0BEFA049508950995854B48
:10ADE0009F4203D0844B9F4200DBF7E0A0680BF04A
:10ADF000FAFDA56881491AA8FFF7CCF978221AA9AB
:10AE0000280000F0DFFB1AA80AF00DFF0023794F9D
:10AE100004930326099B60680133334009930BF0C8
:10AE2000B1F9050060680BF0B4F90022744B05928B
:10AE30009D420FDB013205922A00C8320ADBAA22AA
:10AE4000042192000591954204DC0596C82D01DC91
:10AE50000222059200220692984210DB01230693FB
:10AE60000300C8330BDBAA2304329B0006929842EE
:10AE700005DC03230693C82801DC013B069310A8D8
:10AE80000AF0C1FF5F4B00251E00079313ABEB5C7C
:10AE9000012B05D172783178FE3310A8FFF742FA02
:10AEA00001350236192DF1D16B4618229A5E6B4698
:10AEB00010A81421595E099BFFF734FA002F02DB1A
:10AEC000049B0F2B07D90023A0681A00743000934D
:10AED00010A90AF0AEFF13AE079B059A1B789342A8
:10AEE00021D1079B069A5B7893421CD13378012BC2
:10AEF00019D00C23089A0CAD534328000022216876
:10AF00000B930BF0C9F921AA94460B9B634407CD20
:10AF100007C301233370089B0133DBB20893049B02
:10AF20000133DBB20493079B374A023307930136A0
:10AF30009342D1D164200DF024FF089B643F3FB2BF
:10AF4000182B00D84BE71A0021A91AA80BF0B3FB65
:10AF50006A461DAB23CB23C21B6813601A991B9A48
:10AF60001C9B20680BF080F9E568002D0CD0274968
:10AF700012A8FFF70FF91C2328001AAA12A90CF037
:10AF800027F912A80AF04FFEA0680BF02CFD11A9BA
:10AF900012A8A5680AF020FF00221D4B009212A9FA
:10AFA00001932800130000F07BFA12A80AF007FFB3
:10AFB000FA2080000DF0E5FEA0680BF014FD0A9960
:10AFC000A06800F0B9FB11A80AF0F9FE10A80AF079
:10AFD000F6FE6DB0F0BC08BC02B01847002F03D0DD
:10AFE000049B0F2B00D014E7A06800F0B3F910E722
:10AFF000B3A102008C3C0000D18AFFFFF8A102003F
:10B0000058FDFFFF0DA202003FA20200A8A102000E
:10B01000DC050000F0B5040085B0637A9C46002B87
:10B0200004D120000BF065FB05B0F0BDA37A266FBC
:10B0300001931023019AF35600259B1801229A4090
:10B040002900F36803920293029BAB4231DDB068A2
:10B05000019B6843C01873694000E77A1A181B5CAB
:10B060005078E279012F14D1571E3F1A18003B0087
:10B070004243606F52008218D2189379634500DD15
:10B080006346627B1A4202D00123AB40194301356B
:10B09000DAE7022F07D0032FEAD1277A013FFF1A00
:10B0A00003003800E4E7571EFB1A277A013F381ADD
:10B0B000DEE71123C943F356606C994023691940B8
:10B0C000039B19430DF01DFFA27B072AACD8637BBD
:10B0D0000C495B006373531CDBB290004158A373AF
:10B0E000022A03D808000DF041FE96E7064B200027
:10B0F000236300236363054BE462236414300DF083
:10B10000F9FC91E70094020015B00100DD66020031
:10B1100070B50400104B250008330360FFF72CF8CE
:10B12000200074300AF04BFE200060300AF047FE29
:10B13000200058300AF077FD200050300AF073FDEF
:10B14000064B1435280063610DF0C3FC280006F09F
:10B15000F5F8200070BDC046209402005C9B020000
:10B16000F8B500250400324B8580083303608571F3
:10B17000143016000F0006F0CBF820002D4BE562CE
:10B18000636125645030FFF76FF820005830FFF7F7
:10B190006BF820006030FFF7B1F820000423F25E66
:10B1A00033682667590009B274300AF035FE3368F7
:10B1B000226FE37173680126237210236581A780D3
:10B1C0002561D35691685918994204DD30009840A2
:10B1D00001330543F8E711230120D356D1685918EC
:10B1E000994206DD02009A4026690133324322610A
:10B1F000F6E714200DF0FAFE226900212A4301230C
:10B20000060006F0ADFBFF23220063720133A38129
:10B21000002348326664A37320001370A366FEF710
:10B220008DFF0123A27920001343A371F8BDC0460E
:10B2300020940200709B0200F0B5437A040085B0B0
:10B24000002B04D120000BF054FA05B0F0BD837A36
:10B25000066F01931023019AF35600259B180122D3
:10B2600094469A402900F36803920293029BAB42F2
:10B270002DDDB068019B6843C01873694000E77A10
:10B280001A181B5C5078E279012F10D1571E3F1A13
:10B2900018003B004243606F52008218D218937925
:10B2A000002B02D06346AB4019430135DEE7022F85
:10B2B00007D0032FEED1277A013FFF1A0300380091
:10B2C000E8E7571EFB1A277A013F381AE2E71123F5
:10B2D000C943F356606C994023691940039B194395
:10B2E0000DF00FFE667AB31EDBB2FC2B14D8FEF70E
:10B2F000D3FE0C4B0500236300230B4863630B4B09
:10B30000FF217043E462236406F006FF29004143F5
:10B31000200014300DF0EEFB637A012B00D994E786
:10B3200090E7C046F3660200B6030000DD66020047
:10B330001FB5012381881A0068460AF01DFD01230C
:10B3400068461A0002490AF017FD05B000BDC04664
:10B35000FE0300001FB5030048331A780400002ADA
:10B360000DD000221A70012381881A0068460AF065
:10B3700003FD012368461A0003490AF0FDFC200082
:10B3800074300AF040FD1FBDFF03000010B504003B
:10B39000230048331A78002A07D01B78012B04D0E9
:10B3A000012102480AF044FBF2E710BDFF03000050
:10B3B00010B50121040007200AF03AFB064B984221
:10B3C00008D148342378002B04D02378012B01D0F6
:10B3D00020BFF7E710BDC04616FCFFFF70B50500A3
:10B3E000141E19DB060048363378002B02D0337860
:10B3F000012B13D1002328001A007430FFF74EF8F8
:10B40000002C07D02B004A331C80002407234C3526
:10B410002C803370200070BD014CFBE7014CF9E734
:10B4200017FCFFFF12FCFFFFF8B50500160008002F
:10B43000002A2CDB0B6803D102215A5E012A26DC8C
:10B440005B88012B08D100210AF07FFC320001004B
:10B450002800FFF7C3FFF8BD2F0048373B78002BCB
:10B4600002D03B78012B14D12B0000245C331C80CC
:10B47000043B010018000AF033FC2B004A331E8005
:10B480000323013E4C352E8020003B70E3E7024849
:10B49000E1E70248DFE7C04617FCFFFF12FCFFFFB1
:10B4A00073B5079C0500002C1CDB0600483630787D
:10B4B000002802D03078012816D106981BB2C0B2FD
:10B4C0000090280012B274300AF0B3FC002C07D0B0
:10B4D0002B004A331C80002407234C352C8033700A
:10B4E000200076BD014CFBE7014CF9E717FCFFFF9C
:10B4F00012FCFFFFF7B505000E00141E26DB002A24
:10B5000004D10B6802229B5E012B1FDC2800FFF791
:10B510003DFF2B0048331B78DFB2002B18D13100E0
:10B5200001A80AF0D5FB220001A92800FFF77CFF43
:10B53000040001A80AF077FB33685B88012B03D075
:10B540002800FFF735FF3C002000FEBD014CFBE763
:10B55000014CF9E717FCFFFF11FCFFFFF0B587B0C6
:10B560000D9C05000E0017000393002C21DBFFF754
:10B570000DFF2B0048331B78DAB20292002B1AD150
:10B58000310005A80AF028FC0C9B3A000093280023
:10B59000039B019405A9FFF783FF05A80AF00FFCA0
:10B5A000002C03D02800FFF703FF029C200007B007
:10B5B000F0BD024CFAE7024CF8E7C04617FCFFFF6B
:10B5C00011FCFFFFF8B50400171E1DDD060048360C
:10B5D0003378002B02D03378012B17D12200E37986
:10B5E0005632013B137023000025200054331D8088
:10B5F00050300AF075FB23004A331F8002232800D5
:10B600004C3425803370F8BD0148FCE70148FAE767
:10B6100017FCFFFF12FCFFFFF7B504000F00161E1A
:10B6200018DDFFF7B3FE230048331B78DDB2002B93
:10B6300012D1390001A80AF04BFB320001A9200009
:10B64000FFF7C0FF01A80AF0EEFA2000FFF7B0FEF6
:10B650002800FEBD0148FCE70148FAE717FCFFFFA0
:10B6600011FCFFFFF8B50400171E2DDD060048365B
:10B670003278002A02D03278012A27D15D42069B17
:10B68000FF331FD16B1D22001BB2643213802300D5
:10B69000200066331D7060300AF0A6FB23000022F4
:10B6A0006C331A70954200D03D0023004A331D8050
:10B6B000079B00205A1E9341013F4C3405332780DD
:10B6C0003370F8BD069BDEE70148FAE70148F8E76A
:10B6D00017FCFFFF12FCFFFFF0B504000F0016007F
:10B6E0001D0087B0002A1FDDFFF750FE23004833FE
:10B6F0001B78DAB20392002B18D1390005A80AF0A2
:10B700006BFB0D9B320001930C9B05A9009320005D
:10B710002B00FFF7A7FF05A80AF051FB2000FFF759
:10B7200047FE039807B0F0BD0148FBE70148F9E781
:10B7300017FCFFFF11FCFFFFFF2902D84172002018
:10B7400070470148FCE7C04617FCFFFF13B5040033
:10B7500004A80078009020000DF025F9002801D100
:10B76000207516BD0048FCE70EFCFFFF13B5040072
:10B7700004A80078009020000DF0FDF8002801D109
:10B78000207516BD0048FCE70EFCFFFF7FB50D00DD
:10B7900011000F226A4404001E1E117015D0089B70
:10B7A000002B12DD012329000093FFF7DFFF0028A3
:10B7B00008D10090320029002000089BFFF7C6FF47
:10B7C000002800D0024804B070BD0248FBE7C04624
:10B7D0000EFCFFFF17FCFFFFF7B506000D1E3ED065
:10B7E0000023022704690193002C34D0AA88A3887F
:10B7F00053403B422DD13A4222D1A368AA689342DA
:10B8000027D12B88002B02D022889A4221D16B8825
:10B81000002B02D062889A421BD1EB68E268934207
:10B8200001D0002B15D17368002B01D02000984760
:10B83000A2880C4B1343A380019B0133019308E0C2
:10B84000A968A0680BF0D7FF0028DAD1AB883B428B
:10B85000D3D0E46AC8E7019B2000002B00DC02483B
:10B86000FEBDC0460080FFFF17FCFFFFF0B50600DD
:10B870000D0085B000295DD001270469002C27D078
:10B880000221AA8800230A4202D0A3885B083B4019
:10B89000226829688A4215D1A068A968002B0FD0B8
:10B8A0000BF0A9FF00280DD0EB68E268934209D1A4
:10B8B0000421625EA388002A06DB1F4805B0F0BDA4
:10B8C0008842F1D0E46AD9E75B045B0CA380F4E71B
:10B8D00030692A880100031E07D1356101236846BB
:10B8E00016490AF049FA0020E8E71C88944206D27B
:10B8F000DC6A1900002C0DD02300F6E723001C8819
:10B90000944207D15F886C88A74203D8DC6A19008B
:10B91000002CF3D1884209D10B889A4204D305D177
:10B9200048886B88984201D9E962D6E7CB6AEB6216
:10B93000CD62D3E70248C1E716FCFFFFFD0300001C
:10B9400017FCFFFF064B10B51A00040008322C3319
:10B95000026083600830FEF775F9200010BDC04614
:10B960003894020008B4024B9C46083808BC604773
:10B9700045B9010008B4024B9C46083808BC604732
:10B980005D6B02000C4A002311002C32083110B507
:10B990004360838183738260036143618361838336
:10B9A000016004000830FEF73FF9044B1A68002AD2
:10B9B00000D11C60200010BD38940200A029002096
:10B9C00082B0F7B50125402609930CAB1B780469BA
:10B9D00008920193002C38D008AA238812889A4232
:10B9E00001D0002B29D108AA638852889A4201D03D
:10B9F000002B22D1FEF77CF80123002806D0C022BC
:10BA0000A3881340C03B5A425341DBB2019A934290
:10BA100019D10422A35EA788002B14DB102208A9E9
:10BA2000A01807F021FF374209D1FEF761F800287E
:10BA300005D021000748FEF7FDF9E46ACAE72000B7
:10BA40000BF095F8F9E70025F7E72800FEBC08BCE5
:10BA500002B018476F6B020008B4024B9C460838CE
:10BA600008BC60470B6D020010B502480AF07AF975
:10BA700010BDC046B8200020F0B587B001930EABD2
:10BA80001B88060003930D9B0D000093019B0C9FE8
:10BA90000292002B3DD0002F02D1009BDB0738D54E
:10BAA00030200DF0A3FA040010300AF05BF92000FA
:10BAB000243009F0DFFF029B1820258063800DF001
:10BAC00095FA0500009B08220593019B0021036065
:10BAD0000C30049707F070FF082204A9281D07F016
:10BAE000C3FE0D4B02226B6100230399E3602362C6
:10BAF000E36233680A43300021005B68A560A280DE
:10BB00009847002805D020000AF041F820000DF0E9
:10BB100069FA07B0F0BDC046596D0200F0B51600D5
:10BB200000258380164A174B04008571026001814D
:10BB30004681057318688C4689B0A8421DD0124A08
:10BB400005950492C02202926A4604AB82CB82C25F
:10BB500023002A006146FFF78FFFC022094B0A49E4
:10BB6000186802926A46069106AB079582CB82C29C
:10BB700023002A003100FFF77FFF200009B0F0BD4D
:10BB80007C940200A0290020836E020030B50024BE
:10BB900003730123034D84710560818082734373B5
:10BBA000846030BD7893020070B583790400DB07B0
:10BBB00004D58068002801D00DF014FAA3799B0702
:10BBC00004D5A068002801D00DF00CFAA3795B071A
:10BBD00009D5A0230021154AA068DB00D150884276
:10BBE00001D00DF0FFF9A3791B0708D5A568002D3A
:10BBF00005D028000BF06FFE28000DF0F3F9A379B3
:10BC0000DB0605D5A068002802D00368DB689847EA
:10BC10006023A2791A4205D0A068002802D00368E8
:10BC20005B6898470023A360A37170BD007000405B
:10BC3000F7B50227037B04000D003B4228D0012901
:10BC400028D883791A003A4001923B4214D1FFF779
:10BC5000ABFF18200DF0CAF90E230600E356182298
:10BC60000199009307F0A8FE300000990CF0EDFF59
:10BC7000A379A6603B43A371A3685A68002D04D042
:10BC80000025DB681A602800FEBD1B691A60FAE710
:10BC9000014DF8E7014DF6E716FCFFFF17FCFFFF2B
:10BCA000F7B50126037B040033422CD0827961234F
:10BCB0001100194001911A4216D1FFF775FF1820A3
:10BCC0000DF094F90E230500E356677B18220199C5
:10BCD000009307F071FE3A00280000990CF0ABFFCA
:10BCE000A379A5603343A3716023A279A0681A42A7
:10BCF00002D00CF079FEFEBD436940681B68184015
:10BD0000431E9841F7E70148F5E7C04616FCFFFFE0
:10BD1000012210B583794173134204D080680DF07D
:10BD200037F8002010BD6022134203D080680CF069
:10BD300062FEF6E70048F5E716FCFFFF70B5040069
:10BD400000250C4B0E0008338580857103602100AF
:10BD500018300BF047F92000210020300BF06DF96E
:10BD6000054B2000A680E5802572E56025616561B0
:10BD70001C6070BD8C940200B42900208379DB071D
:10BD800002D5C160002070470048FCE716FCFFFFA9
:10BD90008379DB0701D5C06870470148FCE7C046DE
:10BDA00016FCFFFF70B545690400002D22D0037A10
:10BDB000032B21D8FFF7ECFFE86230200DF016F9D5
:10BDC00030220021050007F0F7FD002263699A6226
:10BDD0002369934207D1636923610020237A656157
:10BDE0000133237270BD1A009B6A002BFBD163697B
:10BDF0009362F2E70148F5E70148F3E717FCFFFF1C
:10BE000013FCFFFF144B70B55A68144C002A03D082
:10BE100000225A600132A2601A69002A17D000215C
:10BE200019618023DB000E4DE3582868012B0FD1E8
:10BE3000A923DB00E1584942FFF7A0FF2868FFF77C
:10BE4000B1FF2B685A69074BE2500123A36070BD14
:10BE5000FFF794FFF9E7C046FC10004000100040D7
:10BE6000B42900200405000070B505000C0009F09D
:10BE700072FD002804D1034A034BEC71D45070BD0D
:10BE80000248FCE7001000402405000016FCFFFFFC
:10BE9000F8B5837905000020DB0765D409F05BFD68
:10BEA000002862D16E69002E08D130300DF09EF866
:10BEB00004003022310007F07FFD6C6100222C4B22
:10BEC00001215A608022D20511605A68002AFCD0F4
:10BED0000622284B284C9A56284B0026E25007226F
:10BEE000043BE2500833E650254A264B2800E25036
:10BEF000E979FFF7B9FF01220821234B2348E650D7
:10BF00000433E250224B234FE1500433E05002232C
:10BF10002148235021482750214F04382750182703
:10BF2000204827506F6920482750C12080002150A9
:10BF30001E498538FF380B500B60802189006058FE
:10BF40000E33034363501A4B5E6062605A68002AE6
:10BF5000FCD0002601271E612800A760FDF764FEC3
:10BF60003000AB791F43AF71F8BD1248FCE7C04603
:10BF7000FC000040D1A30200001000400C050000AE
:10BF8000746962751C0500002C0500002300040282
:10BF900014050000FFFF0000340500003C05000010
:10BFA00021100100540500000405000000E100E03C
:10BFB000FC10004016FCFFFF03000069002809D0B8
:10BFC0000221054AD167826A1A611A7A013A1A7205
:10BFD000024B19607047C04604E100E000E100E058
:10BFE00070B505000C0009F0B6FC00283AD1002C11
:10BFF0003AD02378262B37D8022201211B4BDA674F
:10C000001B4A1C4B5861116159690029FCD0002062
:10C010001949545058600130106058680028FCD00D
:10C02000002018610130906018690028FCD0686910
:10C030005050002159610131116159690029FCD02A
:10C04000002159600131516059680029FCD000205D
:10C0500018610123C02193600222084B49005A5005
:10C060001A6070BD0648FCE70648FAE704E100E004
:10C0700000100040FC1000400405000000E100E05A
:10C0800016FCFFFF17FCFFFF37B54C680500002CBE
:10C0900004D10C4909F05EFF28003EBDA36A01A847
:10C0A0004B602278E36A033A211D09F07FFF2000EC
:10C0B0000CF098FF280001A909F04CFF01A809F035
:10C0C00042FFE9E7A829002010B504008CB0002940
:10C0D00011D0262A0FD86846D31C03700123437061
:10C0E000FF33438001A807F0BFFB69462068FFF7D4
:10C0F00077FF0CB010BD0148FBE7C04617FCFFFFFF
:10C100000223024A11780B43137070473F2F00201F
:10C110000221024A13788B43137070473F2F00208F
:10C1200010B5002903DB024B19600CF0ADFC10BD0B
:10C13000B829002070B504001D0004AB1E7805F07E
:10C14000A3F820000E4B40302360FEF78DF823004B
:10C15000220001354C331D700023E1215832013695
:10C1600016700A3AA3646365138053809381D38168
:10C17000013B200063644902FFF7D2FF200070BD3D
:10C1800028930200F0B5050007005C355A372B886C
:10C190003A88040085B09A421ED0104B1B781B07CA
:10C1A0001AD52B88426DD15C0CF04CFC23002888FA
:10C1B00058331978013006F095F83B888EB2B342B7
:10C1C00009D1074901230222684609F0D5FD012162
:10C1D00020000AF074FF2E8005B0F0BD3F2F002034
:10C1E000FF030000F8B5114D04002B781B0705D59F
:10C1F00001210AF064FF606DFDF7DAFE08262300D6
:10C200002F785833B7432F701878FDF79DFE60657F
:10C21000002808D0230000205A335C343E431880A5
:10C220002E702080F8BD0248FCE7C0463F2F00205A
:10C2300013FCFFFFF7B50F0008A9040009780430CC
:10C24000002A01D1DD0715D5002F13D018264E4343
:10C25000B446A4446546EF6018250C36A6197260F2
:10C260000122B3604B1C5D43034B6419A36005F0CE
:10C27000A9FCF7BD0022FAE769700200F0B58BB0A7
:10C280000593030006000400002558330693043389
:10C29000039104925A360793049B9D4211DA069B40
:10C2A00037881978781C06F01DF8079B89B21B881F
:10C2B0008B4206D0039B626D5B5D0135D3553180A7
:10C2C000EAE7059B012B03D002210748FDF718FC84
:10C2D00001232000009321000023044AFFF7AAFF56
:10C2E00028000BB0F0BDC046FF03000085C101006F
:10C2F000F7B5184C1F0023780500160001919B0725
:10C3000024D4002A24DD002922D0FFF7F9FE237867
:10C310001B0714D50024019B321B191928003B0070
:10C32000FFF7ACFF3900241828000AF0B9FE002FEF
:10C3300001D0A642EFDC2800FFF7EAFE04E0280067
:10C34000FFF750FF041EE5D02000FEBD024CFBE7C6
:10C35000024CF9E73F2F00200DFCFFFF17FCFFFF09
:10C36000F7B580277F053E697C690822113C74433C
:10C3700005002100684607F077FA104B009A9A42B0
:10C3800019D0009300230193796928001339714370
:10C390000AF0A4FE019A280000990AF0B7FE2100D5
:10C3A00028000AF09BFE79692200133928007143A6
:10C3B000B3080AF09DFE0198FEBDC046FECA00000B
:10C3C000F0B50D00ABB000210D920700302212A88D
:10C3D0001E0007F0F1FA280007F0DEFD431C0C9365
:10C3E000102B00D9B8E0202E00D9B5E02900380084
:10C3F0000AF0B9FE0B90002854D129000C9A12A81B
:10C4000007F032FA32000D9916A807F02DFA8023B2
:10C410005B051A695D690B92113D6A4338005E69DC
:10C420000D92FFF79DFF0D9B302208330021040081
:10C430001EA80F9307F0C0FA31000B9B1339594324
:10C4400038000AF04BFE00230F9E0C930E930C9BBA
:10C45000A34246DA310030221EA807F005FA12A9DD
:10C460001EA807F055FD00282BD13D4938002200B9
:10C47000109111940AF04AFE6A46099615AB23CB37
:10C4800023C223CB23C223CB23C23800149B12998F
:10C49000139A0AF049FE01230E930C9B30360133A8
:10C4A0000C93D4E70B9832000D99103007F0B8F9CF
:10C4B00004000B980CF096FD002C9ED120002BB0B0
:10C4C000F0BD6A46099621AB23CB23C223CB23C2FE
:10C4D00023CB23C238001E991F9A209B0AF024FE0A
:10C4E000DBE7E6433021F61726404E430F9B9E19AB
:10C4F0000E9B002B1CD10B9B981E05F083FDA042C8
:10C500002CD01749013438002200109111940AF000
:10C51000FDFD6A46099615AB23CB23C223CB23C26C
:10C5200023CB23C238001299139A149B0AF0FCFD06
:10C5300038000D990AF0D2FD80235B0559690C2360
:10C540000B9A133963434A433800110002330D9AA2
:10C550000AF0CEFD0024B1E7024CAFE7024CADE794
:10C56000FECA000017FCFFFF13FCFFFF8023F0B59D
:10C570005B051A6995B002925A6905910299113AC0
:10C5800051435C69029B133C05005C430391FFF738
:10C59000E7FE061E3CD030220021083408A8039F85
:10C5A00007F00AFA210028000AF098FD0023083756
:10C5B00001930493019BB34220DA3900302208A88A
:10C5C00007F052F9059908A807F0A2FC00280DD140
:10C5D0001B49721E2800069107920AF097FD01235D
:10C5E0000493019B303701330193E3E722000C23CE
:10C5F000390028000AF07CFD3034F2E7049B002B60
:10C6000008D10F4932002800069107960AF07EFDF6
:10C610000C4812E0280003990AF060FD80235B05B6
:10C6200059690C23029A13394A43734311002800B5
:10C63000039A02330AF05CFD002015B0F0BDC0463D
:10C64000FECA00000CFCFFFF70B50400A280FA22B5
:10C65000002308000C49920008312160A3710B49A6
:10C660006061E260A36063820AF07DFD051E09D06F
:10C670000100200002221031123007F0F5F82800E6
:10C680000CF0B0FC200070BDA49402003FA2020098
:10C6900030B502258379040087B02B4204D1FDF721
:10C6A000C3FAA3791D43A57120000AF0A2FD00285A
:10C6B0001CD06B46DD1C28000AF092FD2B78002B65
:10C6C00017D001A80AF08AFD0321019AD3170B4065
:10C6D0009B189B102382FDF719FDE368A1881818A9
:10C6E0000123A0601A0002A809F046FB002007B051
:10C6F00030BD0122064B1A60064A51680029FCD061
:10C7000000215160044A1268019201225A60DBE75D
:10C7100000C00040FCC0004008C50040022802D113
:10C720000122014B1A707047402F002070B5064D52
:10C7300004002B78002B04D1044802F0A9FA01234D
:10C740002B70200070BDC046412F00201DC7010086
:10C7500070B50C0009F0FFF8002810D00023134D2D
:10C76000A40A2B7020000AF058FD002803D00A20EC
:10C770000CF007FBF6E72B78002BFCD070BD0221F4
:10C780000B4B0C4A99508021C90058580028FCD006
:10C79000A120C0001C5058580028FCD000219950FE
:10C7A0008021C9005A58002AFCD0E7E7402F00201A
:10C7B00000E0014004050000F8B50D0016001F0060
:10C7C00009F0C9F8002811D00023184C23703A0052
:10C7D000310028000AF01FFD002803D00A200CF0C9
:10C7E000D0FAF4E72378002BFCD0F8BD0123802297
:10C7F0000F4C1049D2006350A358002BFCD080226C
:10C80000D200002394469F4208DD980032582A50F7
:10C810006246A0580028FBD00133F4E700236350A0
:10C820006346E358002BFBD0DFE7C046402F0020D3
:10C8300000E001400405000008B4024B9C46443867
:10C8400008BC60471F720200FA21F8B50389C900CD
:10C850000400594332480AF0E3FFFA21890005F049
:10C86000D1FB304FA17A208138000AF0D9FF230094
:10C870002600250022894C33A072A0361A808C3500
:10C8800000232A22317828680AF0BAF8002844D117
:10C890001F235B22317828680AF0B2F800283CD1C7
:10C8A00020235C22317828680AF0AAF8002834D1C5
:10C8B00001232C22317828680AF0A2F800282CD114
:10C8C00001232D22317828680AF09AF8002824D113
:10C8D00001232E22317828680AF092F800281CD112
:10C8E000A17A38000AF097FF0E22C3B23178286887
:10C8F0000AF086F8002810D1FA21238989005943CB
:10C9000007480AF088FF012303432A223178286868
:10C91000DBB20AF075F8002800D00348F8BDC04625
:10C92000C4940200BC9402000EFCFFFF08B4024B4A
:10C930009C46443808BC604749C80100074B10B505
:10C940001A00040008323C3302604364443009F0AA
:10C9500047FC200009F077FB200010BD2495020061
:10C9600008B4024B9C46443808BC60473DC90100EE
:10C9700008B4024B9C46443808BC60472972020048
:10C98000F0B50425837904008BB02B4204D1FDF768
:10C990004BF9A3791D43A57120009030FFF780F972
:10C9A0000026B0420FD12300A033197820000C23B9
:10C9B00007AD00938C302B0001220068FEF7E6FEE5
:10C9C000061E03D02C4E30000BB0F0BD0A2304AA83
:10C9D0009B182A785A706A781A700022985EAA7892
:10C9E0005A70EA781A700022995E03912A795A7077
:10C9F0006A791A7000229F5EAA795A70EA791A70D1
:10CA000000215A5E04922A7A5A706A7A1A700021BA
:10CA10005A5E0592AA7A5A70EA7A1F251A70002285
:10CA20009B5EA27A03999C46514349425043CB17DF
:10CA30002B405B185B11A361C3172B4018186423AC
:10CA40005743FA171540ED196A112262059A5B42A5
:10CA50005343A36764236146049A40115A434B43EE
:10CA6000E267221DE0612000D36709F05EFB200031
:10CA7000443009F0BCFBA6E70EFCFFFF08B4024BF4
:10CA80009C46443808BC604781C90100F7B51E00C8
:10CA9000040008AB1B881500019309AB1A880091AC
:10CAA0000AAB31001F88FDF7ABFD20003A003100D2
:10CAB0004430FDF7FFFF134B20001A003C33636442
:10CAC000230008322260009A8C331A60AB889030C1
:10CAD0008380AB7983710C4BAA6803600E23EB56FD
:10CAE00082602200A9899C32118083732300019AFD
:10CAF000A03303211A80FFF70BF92000FFF7A4FEF3
:10CB00002000FEBD2495020078930200F8B5FA26B5
:10CB10000189B6000400714325480AF081FE310006
:10CB200005F070FA234FA17A208138000AF078FED0
:10CB30002500A072583500232A222978606C09F05C
:10CB40005FFF002832D110232B222978606C09F076
:10CB500057FF00282AD101232D222978606C09F083
:10CB60004FFF002822D101232E222978606C09F082
:10CB700047FF00281AD1A17A38000AF04CFE0E2295
:10CB8000C3B22978606C09F03BFF00280ED12189DF
:10CB9000074871430AF03FFE012303432A22297804
:10CBA000606CDBB209F02CFF002800D00248F8BD11
:10CBB0008C950200849502000EFCFFFF10B5040066
:10CBC000034B0833036009F03EFA200010BDC04655
:10CBD000EC9502007FB50425837904002B4204D133
:10CBE000FDF722F8A3791D43A57120004830FFF717
:10CBF00057F80025A8420DD1230058331978062391
:10CC000002AE009301223300606CFEF7BFFD051EEB
:10CC100003D00D4D280004B070BD00210420022275
:10CC2000A37A30567156B25659435A434343DB00F8
:10CC30002362D20023685242C90020009B6AA2618D
:10CC4000E1619847E6E7C0460EFCFFFFF8B5040037
:10CC50000F00190006AB1E8807AB15001A88FDF7F8
:10CC6000CFFC0F4B6764083323602300AA88483346
:10CC70009A80AA799A710B4AA968A2640E22AA56D0
:10CC800021652100A889543108809A730023A3717B
:10CC9000230058331E802000FFF738FF2000F8BD26
:10CCA000EC9502007893020010B50400034B0833A2
:10CCB000036009F095FA200010BDC046809602007E
:10CCC000F0B507005C370023040010223978806C2F
:10CCD00087B009F095FE214D03002800002B3BD1C1
:10CCE0000F2602ABF6180123397808220093A06CB6
:10CCF0003300FEF74BFDA8422DD0032233781342B8
:10CD000003D06420FDF72EF8EAE7FA262189144DB6
:10CD1000B600714328000AF083FD310005F072F976
:10CD20002081A02311223978A06C09F069FE002827
:10CD300011D1A36C21890393714328003F780AF035
:10CD40006AFD01231843C3B210223900039809F089
:10CD500057FE002800D0014807B0F0BD0EFCFFFFD1
:10CD60002096020070B508258379040086B02B4216
:10CD700004D1FCF759FFA3791D43A57120004C3065
:10CD8000FEF78EFF051E0DD023005C3319780623B5
:10CD900004AE009301223300A06CFEF7F7FC051EE1
:10CDA00003D0134D280006B070BD0E2332786B44BB
:10CDB0005A70727820001A700022995E64224A43E9
:10CDC000A263B2785A70F2781A700022995E6422D7
:10CDD0005242514361633179597071791970002160
:10CDE0005B5E5A432368E2631B6A9847DAE7C046F2
:10CDF0000EFCFFFFF8B504000F00190006AB1E88FB
:10CE000007AB15001A88FDF755FE0D4BA7640833D4
:10CE100023602300AA884C339A80AA799A71094A20
:10CE2000A968E2640E22AA5661652100A8895831DA
:10CE300008801E8220009A73FFF742FF2000F8BD91
:10CE40008096020078930200F0B5FA250189234FFD
:10CE5000AD0085B00400694338000AF0E1FC290008
:10CE600005F0D0F81E4EA17A208130000AF0D8FCDF
:10CE7000636CA072029323005833218901931B78BD
:10CE80006943380003930AF0C6FC072303432022BA
:10CE900003990298DBB209F0B3FD00281AD1019B77
:10CEA00022221978606C102309F0AAFD002811D104
:10CEB000019BA17A30001F78656C0AF0ACFC8023DE
:10CEC0005B420343232239002800DBB209F098FDBE
:10CED000002800D0034805B0F0BDC046B49602005B
:10CEE000AC9602000EFCFFFF10B50400034B0833A4
:10CEF000036009F0A8F8200010BDC0462497020086
:10CF0000F0B504258379040085B02B4204D1FCF7E9
:10CF10008BFEA3791D43A57120004830FEF7C0FEAB
:10CF2000051E0DD0230058331978062302AE009356
:10CF3000A8223300606CFEF729FC051E03D0144DB7
:10CF4000280005B0F0BD1F200023F25ED317034078
:10CF50009B180222B15E5B11CA17024052180421CD
:10CF6000775E3380F9170140A07A52114343C91903
:10CF7000728049114243B18041435B42E3612368BF
:10CF8000524220009B6AA26121629847D8E7C046BE
:10CF90000EFCFFFFF8B504000F00190006AB1E8859
:10CFA00007AB15001A88FDF72BFB0F4B676408339E
:10CFB00023602300AA8848339A80AA799A710B4A81
:10CFC000A968A2640E22AA5621652100A8895431BD
:10CFD00008809A730023A371230058331E80200019
:10CFE000FFF732FF2000F8BD24970200789302007B
:10CFF000F7B5FA2504000189134EAD0069433000EE
:10D000000AF00EFC290004F0FDFF2700A36C20812C
:10D0100000935C373B7881B26943300001930AF09A
:10D02000FAFB6022C3B20199009809F0E9FC0028DC
:10D0300007D1012362223978A06C09F0E1FC0028B5
:10D0400000D00248FEBDC046589702000EFCFFFF0C
:10D0500010B50400034B0833036009F0C1F8200049
:10D0600010BDC046809702007FB508258379040073
:10D070002B4204D1FCF7D8FDA3791D43A5712000F4
:10D080004C30FEF70DFE051E0DD023005C331978E1
:10D09000062302AE0093E8223300A06CFEF776FB75
:10D0A000051E03D00B4D280004B070BD0223F25EB4
:10D0B00096235B425A4362630021725E2000534311
:10D0C000A3630423F25E96235343E36323681B6A3E
:10D0D0009847E8E70EFCFFFFF8B504000F001900C1
:10D0E00006AB1E8807AB15001A88FDF7E3FC0D4B55
:10D0F000A764083323602300AA884C339A80AA7956
:10D100009A71094AA968E2640E22AA566165210053
:10D11000A889583108801E8220009A73FFF768FFA3
:10D120002000F8BD809702007893020010B504003B
:10D13000054B083303601C3008F075FD20001830E3
:10D1400008F071FD200010BDAC970200FF23F0B580
:10D150002C4E8DB033700023040069460088009384
:10D1600003F09EF9002802D16B469B783370264D60
:10D170002B68DB68002B07D1002320881A001900D8
:10D180000AF0C2F80DB0F0BD3378032BF4D81F4974
:10D1900001A8FCF7FFFF2B6801A9DD6804A808F0CF
:10D1A00097FD280004A90AF00DF80027050004A83F
:10D1B00008F039FDBD421ED029002022103104A8FC
:10D1C00006F052FB28000BF00DFF317804ABC900CC
:10D1D0005918082202A806F047FB012308222088DC
:10D1E00002A90AF091F80137002804D10C21208807
:10D1F000074A0AF087F801A808F015FD002FBBD0F8
:10D20000C0E7C04684200020C829002047A20200B1
:10D21000FFFF0000F0B58379040091B05B071BD5D8
:10D22000FCF774FF00232269801A9941994203D1C7
:10D23000F533FF3398420FD3A068002808D0354B50
:10D240001D8801F0FFF80368152229001B6A984722
:10D250000422A3799343A371A3799B0758D52E4E3B
:10D260003368DB68002B4FD02C4F3B78032B4BD817
:10D27000284B2B491B8804A80193FCF78BFF3368CC
:10D2800004A9DD6808A808F023FD08A9280009F012
:10D2900099FF050008A808F0C6FC082302AAD3805D
:10D2A0000198073B063206A90AF030F8002D08D095
:10D2B00029002022103108A806F0D6FA28000BF029
:10D2C00091FE3D7802ABDA88ED0008AB5D192800CD
:10D2D00006A906F0A5FA002813D00822280006A9FE
:10D2E00006F0C2FA336804A9DD6805A808F0F0FC6E
:10D2F0002023280008AA05A909F06AFF05A808F05C
:10D3000092FC04A808F08FFC0222A3799343A37136
:10D3100011B0F0BDE82E0020C82900208420002094
:10D3200047A20200F0B50400150085B001930AABD6
:10D330001F880BAB1B78461C02930EAB1B78102288
:10D3400003930B7803704B8A01314382300006F05F
:10D350008BFA656100250122019B27836383039B70
:10D36000E5832377029B2000F377A31CDA770C9BDD
:10D370000C26636223000D9A283329001A705D7011
:10D3800032009D702C3006F017FB2000064B320057
:10D39000A3632900E563403006F00EFB2000034B39
:10D3A0002565E36405B0F0BD237302001573020028
:10D3B00070B50D0001F046F804000368002D09D196
:10D3C0005B699847FA2080006843074904F01AFE19
:10D3D000E08070BD9B6898478542F3D223682000A7
:10D3E0009B6898470500EDE771020000F0B5070063
:10D3F0001500A1B002C706006B4918A81C000AF06E
:10D4000088F82B1E03D0280006F0C6FD83B2012247
:10D4100004920022039202920232019200932A00A7
:10D4200018A93800FFF77EFF33006049583318A869
:10D4300007930AF06EF8231E03D0200006F0ACFD1F
:10D4400083B20122049200220392029202320192DC
:10D450000093220018A90798FFF764FF330054498E
:10D46000AC3318A808930AF054F8269B002B03D07D
:10D47000180006F091FD83B201220492002203926B
:10D480000292023201920093269A18A90898FFF797
:10D4900049FF731CFF33474918A809930AF039F86C
:10D4A000279B002B03D0180006F076FD83B20122E3
:10D4B00004920022701C03920292023201920093A5
:10D4C000279A18A9FF30FFF72DFF33005533FF339C
:10D4D000394918A809930AF01CF8289B002B03D09F
:10D4E000180006F059FD83B2012204920022039233
:10D4F0000292023201920093289A18A90998FFF724
:10D5000011FF3300A933FF332C4918A80A930AF0FE
:10D5100000F8299B002B03D0180006F03DFD83B2D4
:10D5200001220492002218AC03920292023201926C
:10D5300000932100299A0A98FFF7F4FE204B1B78EC
:10D540000B93002B2DD1079B1E491393089B0DA80D
:10D550001493731CFF331593099B129716930A9B20
:10D5600012AD179309F0D5FF1D21492006AB1B7F93
:10D570001022237006ABDB8D638206ABC918C0187E
:10D5800006F072F9062323750B9B1E953068A38362
:10D5900000F068FF036821001B6898470122084BD0
:10D5A0001A70300021B0F0BD292A0000242A0000A2
:10D5B000252A0000272A0000262A0000282A000029
:10D5C000422F00200A18000070B5002504000B4B04
:10D5D0008580083385710360C1601830FCF744FE14
:10D5E00020001C30FCF740FE0123621CD377044A64
:10D5F0002000A56065611460A37170BDAC97020046
:10D60000C8290020FA2130B585B004000123022288
:10D610006846890008F0B0FB074D2868002809D04B
:10D6200009F083FF2188054B2A681980022391792C
:10D630000B43937105B030BDC8290020E82E0020AF
:10D6400010B50C0007290FD8806800F0FBFE074BCF
:10D65000195703685B6C984743425841044B40425A
:10D660001840044BC01810BD0348FCE7D1A30200CA
:10D67000EA03000016FCFFFF17FCFFFFF0B5A04C0B
:10D680000D00A544040007939AAB1B789D4909A897
:10D6900004930692FCF77EFD200029001C3008F060
:10D6A0001FFBC020800001F0E9FA08200BF09EFC6F
:10D6B000060000210EAF0AF02BF915AD0C22002157
:10D6C000A660380006F078F92B0007CF07C38E4B11
:10D6D0002900EB60002330002B610AF002F9A068FA
:10D6E00000F0B0FE08220021059016A806F064F9AB
:10D6F00014200BF07BFC854B2A0015930300C2CA53
:10D70000C2C3834B059EC3600023A03603617368C8
:10D71000002B00D0EEE07060A06800F0A3FE0822AD
:10D720000021060016A806F047F914200BF05EFC55
:10D73000784B1593030086CD86C3774BC3600023D7
:10D740000361336B002B00D0D6E03063A06800F09B
:10D7500079FE08220021059016A806F02DF9142064
:10D760000BF044FC6D4B15AD15932A000300C2CAA3
:10D77000C2C36B4B059EC36000239436036173687C
:10D78000002B00D0BAE07060012604AB1B7C04AA19
:10D79000334308A93000137409F0BAFDA06800F003
:10D7A00071FE03685F495B6A9847A06800F06AFEF3
:10D7B00003685D499B699847A06800F063FE0023F9
:10D7C00002680093176804993200B847049B002B45
:10D7D0000AD0200009F0B2FE032805DDA06800F0A1
:10D7E00051FE0368DB68984700260EAFB81907366C
:10D7F00009F0E0FD1C2EF8D1183E04ABA0685E775E
:10D800000A9700F03FFE03680AA91B699847A068C1
:10D8100000F018FE03680AA95B6D9847A06800F045
:10D8200011FE03680021DB6D9847A06800F00AFE36
:10D83000036802219B6D984700212000FFF700FF3D
:10D8400018200BF0D3FBA16800F054FA374B384A8C
:10D850001B68A1680393374B28001B6800250293BF
:10D86000354B1B680193069B1B689B190093334B38
:10D8700012681B68FFF7BAFD30200BF0B7FB079A60
:10D88000A16800F0F9FAA06800F0DCFD03680CA9BB
:10D890009B6A9847082304AA1384A068DB18538462
:10D8A000958400F0CFFD03680CA9DB6A984731002E
:10D8B000A06809F001FE099A09219378A0689219DD
:10D8C00009F00DFEA06800F0BDFD32210571A068D1
:10D8D000FFF76EFD04AB1B7FAB4204D0A06800F0E5
:10D8E000B1FD09F05DFD09A808F09DF995239B00A5
:10D8F0009D44F0BD03610EE7036126E7036142E743
:10D90000ACFDFFFF53A202003173020005D60100F7
:10D910003F7302004DD101004D7302007B73020082
:10D920005B73020041D9010075D90100C4290020B0
:10D93000C02900200C200020BC290020102000203D
:10D9400013B506226846FCF765FC094B1C68002CE1
:10D950000AD0694601A808F0BBF9200001A909F026
:10D9600007FE01A808F05FF9684608F05CF913BDEE
:10D97000C8290020002373B501AE0C00310005005A
:10D98000019302F08DFD002802D1B278064B1A7087
:10D99000064B1868002806D0054B1D8063425C4189
:10D9A000E1B209F0EDFD73BD84200020C8290020FC
:10D9B000E82E002030B5284CA9B06A220D000DA831
:10D9C000210005F051FF0DA903A8FCF79DFC03A958
:10D9D00006A808F001FA01230193013BFF3B0093E5
:10D9E0000533FF33642206A92800FDF775FE06A85B
:10D9F00008F0E5F9210019226A3106A805F034FF84
:10DA000005220024110006AB04A808F00CFA04A9B2
:10DA100005A808F0E1F923002200280001940094F1
:10DA200005A9FDF79BFD05A808F0C9F9210028000C
:10DA3000FDF782FE05340520FCF794F9FF2CF5D1A3
:10DA4000FA208000FCF78EF904A808F0B8F903A8C2
:10DA500008F0B5F929B030BD4EA30200F0B59C4BDB
:10DA600095B005921A68082304000F00D16C06A82F
:10DA70000B43D3649749FCF78DFB974907A8FCF744
:10DA800089FB220000250DAE30001C3206A908F0EB
:10DA900046F9310007AA08A808F041F9300008F05B
:10DAA000C2F8631CDD77A06800F0CCFC03685B69FA
:10DAB00098477019073509F07DFC1C2DF9D180239A
:10DAC0000BADDB00AB80A0680B9600F0BBFC0368DD
:10DAD00029005B6D9847A06800F0B4FC0368002142
