:020000021000EC
:1080000000400020E11002001D1102001F110200BB
:108010000000000000000000000000000000000060
:10802000000000000000000000000000211102001C
:1080300000000000000000002311020025110200D2
:108040002711020075BD01009D17020027110200D3
:108050002711020000000000591102002711020040
:1080600027110200751902002516020027110200CF
:108070002711020027110200271102002711020018
:108080002711020027110200271102002711020008
:1080900027110200A10B02008D0E02002711020021
:1080A000271102002711020000000000000000005C
:1080B00000000000000000000000000000000000C0
:1080C0000448054B10B5834203D0044B002B00D06D
:1080D000984710BDD0200020D020002000000000D4
:1080E00006480749091A8B10C90FC91810B549105D
:1080F00003D0044B002B00D0984710BDD0200020A7
:10810000D02000200000000010B5074C2378002B81
:1081100009D1FFF7D5FF054B002B02D0044800E042
:1081200000BF0123237010BDE820002000000000E4
:1081300074910200054B10B5002B03D0044905488B
:1081400000E000BFFFF7CCFF10BDC04600000000FC
:10815000EC20002074910200402292029A1A92466A
:108160007047C046154B002B00D1114B9D46FFF7C1
:10817000F3FF00218B460F461148124A121A0BF0EA
:1081800083F80C4B002B00D098470B4B002B00D0F2
:1081900098470020002104000D000B480AF0F0FE73
:1081A0000AF036FF200029000FF04CFB0AF006FF12
:1081B0000000080000000000000000000040002057
:1081C000D0200020D82E0020E92F0200F0B58BB07F
:1081D0000F00060014000021182204A81D000BF057
:1081E00053F86B4680205F7418746B000B2D26DCEF
:1081F000002D09D0220004A9651914780132887075
:10820000CC7002319542F8D100227A210092706838
:10821000023304AA03F062FA041E0DD0356809493E
:10822000F03503A802F004F87822280003A903F02F
:10823000ABF903A80CF03BFB20000BB0F0BD1624FB
:108240006442F9E7D08A020010B5044BC154C21849
:1082500081210123FFF7BAFF10BDC0460F040000C3
:1082600010B5074BC35C082B05D10023A1211A00D0
:10827000FFF7ACFF10BD0023A0211A00F8E7C046AD
:10828000110400000F2373B519406B46120111430E
:10829000C9B2DE1C04003170F0290DD005680A490E
:1082A000F03501A801F0C4FF7822280001A903F0ED
:1082B0006BF901A80CF0FBFA32000123D521200054
:1082C000FFF784FF76BDC046DE8A0200F7B56B4635
:1082D000012700250400DE1C574B3900C754806875
:1082E000357003F05DFC380001F08AFD2900A068BC
:1082F00003F056FC0A2001F083FD3900A06803F06A
:108300004FFC2B002A00AE212000FFF75FFF051E67
:108310000FD024684949F03401A801F089FF782280
:10832000200001A903F030F901A80CF0C0FA2800E0
:10833000FEBD022120000CF008F8051E03D02468C1
:108340003F49F034E8E70F2201002000FFF79AFFD1
:108350003F2120000CF021F83A4B2000E25C3A4B20
:10836000E15C0CF025F82B002A0029002000FFF723
:108370002DFF364BE35C002B07D1143333703200F2
:108380003B008D212000FFF721FF002120000BF092
:10839000BFFF051E03D024682D49F034BCE701005F
:1083A0007F2220000BF0BDFF2900072220000BF0E8
:1083B000C2FF2000FFF754FF051E03D024682549A3
:1083C000F034A9E720000BF0D8FF051E03D0246885
:1083D0002149F034A0E712233200DA213370200063
:1083E000113BFFF7F3FEFF212000FFF72DFF174B96
:1083F000E35C002B0FD1F1333200D9213370200020
:10840000F03BFFF7E3FE302332003370DB21200026
:108410002F3BFFF7DBFE0023B0211A002000FFF7FF
:10842000D5FE042120000BF090FF012120000BF06D
:1084300097FF05007BE7C04615040000EA8A0200AA
:10844000F68A020013040000120400001404000065
:10845000058B02000E8B0200178B02007FB5184EB1
:108460000500815D00290DD17F220BF05AFF041E0B
:1084700023D10100072228000BF05DFF041E1CD150
:108480000123AB5540232B7300232A0000937A214C
:108490000C4B68680C3203F021F9041E0DD02D68D6
:1084A0000949F03503A801F0C3FE7822280003A98A
:1084B00003F06AF803A80CF0FAF9200004B070BDCC
:1084C0001504000001040000208B020010B5040018
:1084D0002160210002A8A36000780B4B62600C3180
:1084E000E054002220000BF077FF084B084A2000E0
:1084F000E252084A0233E2508022074B5200E25215
:10850000FFF7E4FE200010BD0D0400000E04000083
:108510000480FFFF07080A0414040000F0B587B0C8
:10852000039018000C00160004930BF077F9002557
:108530000590059B9D421EDA049B5A5D0023202A6C
:1085400002D91300203BDBB20D4A0399DB009B18D4
:10855000771CFFB200933200230003980C310BF01C
:1085600045FF0F2F04D90134E4B2072C04D80027AB
:108570003E000135DDE7059D280007B0F0BDC0468F
:10858000D87B02007FB5134B03AA1B78002613701B
:108590006B46DE73437A0400012B15D00125017A66
:1085A00000952B00406803F099F80F222B00217AE8
:1085B000606800966A4403F081F8B04207D16B46C8
:1085C000DB7B602B03D06072607A04B070BD657293
:1085D000FAE7C046328B0200F0B504000126444B96
:1085E00089B01B7802AA0120137301F009FC217ADB
:1085F0000096330005AA0027606803F06FF8220098
:10860000217A009706236068103203F057F80500BE
:10861000B84203D06772280009B0F0BD300001F005
:10862000EFFB8E2302AA1373217A0096330005AA6A
:10863000606803F053F82200217A009512236068E5
:108640001632029503F03AF8051EE3D1300001F02E
:10865000D7FBA12302AA1373217A0096330005AA3F
:10866000606803F03BF806AF217A009533003A00CA
:108670006068039503F022F8029B051E18D13000B4
:1086800001F0BEFBE12302AA1373217A00963300A6
:1086900005AA606803F022F81122217A02A8009549
:1086A00012180723606803F009F8051E02D0039B27
:1086B0006372B0E723003A7828331A7002AB5A7C11
:1086C0009B7C1B02134363852300FA782C331A70BA
:1086D0000F227B7939791A4009010A43E285BA7978
:1086E0001B09120113432386FB793234237092E76E
:1086F000348B0200F0B59C4604000D0025606546F1
:108700001600257200256660F22689B012A800784E
:1087100065720390039D0EABA57306AD2E700236F5
:108720001978AE7001362E71EE3EA172314069703B
:108730001C210FAB1F7810AB1B78E77223739B00D3
:108740000B407F011F43032311AA127813A800785E
:1087500062731A40039BE073800008405B0118437A
:108760003A436871EA702000FFF70CFF01280FD030
:10877000002326681E496372F03605A801F058FDF3
:108780007822300005A902F0FFFE05A80CF08FF852
:10879000002606232A00217A6068009602F09EFFD8
:1087A000B0420ED0256813496672F03505A801F075
:1087B0003FFD7822280005A902F0E6FE05A80CF08E
:1087C00076F82000FFF708FF00280DD025680A4939
:1087D000F03505A801F02CFD7822280005A902F04B
:1087E000D3FE05A80CF063F8200009B0F0BDC04628
:1087F0008C8B02009F8B0200368B0200F0B589B093
:108800000393234B05AD1B7804002B70437A0F00B4
:108810001600012B05D0FFF7B5FE012835D101F078
:10882000EFFA01232A00217A0093606802F056FFD4
:10883000002306AD00932A00217A6068083302F015
:108840003DFF002803D00023637209B0F0BD002F64
:1088500008D02B786A781B0312011343AA781209F7
:1088600013433B60002E08D0EB782A791B031201DA
:1088700013436A79120913433360039B002BE4D03E
:10888000EB88039A5BBA1380DFE701204042DCE704
:10889000488B020070B50400436B244A5B109B18A0
:1088A0009E1076430D001A22815E72134A431820EF
:1088B000215ED210594349105218802192140902A6
:1088C0005218E18A5143C913081E2AD02020225E83
:1088D000F61256431E20225E53431C22A05E5B000C
:1088E0009B1900049B10C3181B1311485D196843A2
:1088F000104BC01816D4400009F050F9020024258E
:10890000635F90084343D10849432225605F5B13AE
:108910001B182620205E490B48430013181800112D
:10892000801870BD09F03AF94200E8E70006FFFF41
:10893000CBF3FFFF000050C3436B244A10B59A18D5
:108940008B038021C9015B182E24015F0905591A88
:108950003024035F80245343CB1A01002C31097863
:1089600024025143C9120919040032342478DB135C
:1089700064B2624392124A438021921289035218D0
:108980002A24015F28304A4380218901521892131A
:108990005343DA1352430178D2114A4312119B1AFE
:1089A000C8225205934202DCDA43D2171A406424EB
:1089B0001313980A4443FA209B059B0D80005843EB
:1089C0000A21800A09F0EAF8201810BD00D4FEFF41
:1089D00010B50400034B036040300BF068FF20002B
:1089E00010BDC046D87E0200F0B585B0009003915E
:1089F0000AF014FF164C002527000190019B9D42B0
:108A000020DA009B5E5D30000AF024FB002817D0BE
:108A100030000AF027FB029030000AF063FFFF23CA
:108A20001840039B18186B461B7A61380078002B9E
:108A300002D00AF061FFC0B2207001350134DDE7D9
:108A40002670FAE700233800019ABB5405B0F0BD48
:108A5000FE2D0020F0B585B0009001910AF0DEFEF9
:108A6000184C002527000290029B9D4223DA009BB0
:108A70005E5D30000AF0EEFA00281AD030000AF0ED
:108A8000F1FA039030000AF02DFFFF210140019818
:108A90000AF020FE019BC01A6B461B7B6130C0B2FE
:108AA000002B02D00AF028FFC0B22070013501343B
:108AB000DAE72670FAE700233800029ABB5405B0C3
:108AC000F0BDC046EA2D002013B5052300220100A9
:108AD000684601F01DFC084901A801F0A9FB01A9A5
:108AE00068460BF050FF040001A80BF0E0FE68465A
:108AF0000BF0DDFE200016BD8020002013B5040021
:108B0000124901A801F094FB220001A968460BF06C
:108B10004AFF01A80BF0CBFE694601A80BF01CFF31
:108B200001A90B480DF08FF801A80BF0C0FE094C0D
:108B3000009B0022032104332000FFF7EFFC2000FC
:108B4000FFF78CFC68460BF0B2FE13BD80200020BE
:108B5000AC2800202C21002070B500680D4E043098
:108B60003100FFF741FF04000B4D030000222800F5
:108B70000121FFF7D3FC31002000FFF76BFF00223B
:108B8000030002212800FFF7C9FC2800FFF766FC5C
:108B900070BDC0468A2000202C21002030B589B04D
:108BA000274907A803F028FA07A905A801F050FBF8
:108BB00007A80CF00CF8234C059B0022012104337C
:108BC0002000FFF7ABFC0523002205A907A801F050
:108BD0009FFB079B0022043303212000FFF79EFC2C
:108BE00007A80BF064FE2000FFF738FC05A907A8D2
:108BF0000BF0B2FE07A8FFF767FF050007A80BF010
:108C000056FE002D17D005A906A80BF0A5FE06A953
:108C100007A80BF019FC079B002202210433200057
:108C2000FFF77CFC07A80BF042FE06A80BF03FFE06
:108C30002000FFF713FC05A80BF039FE09B030BD8A
:108C4000AC2800202C2100200023F0B59DB005ADFC
:108C5000039204AA53802B80D38006930793089332
:108C6000130004000233971D029107AA06A9FFF71B
:108C7000C5FD200007990BF0C5FB069906B2200040
:108C8000FFF708FE642108F089FF03B2019304ABEB
:108C900059882000FFF750FE08AB3A00290004B2C3
:108CA000029800F059FBC14915A801F0C1FA6421EE
:108CB000300008F0FDFF07B2390014A80BF013FED6
:108CC00014AA15A916A80BF06EFEB94917A801F051
:108CD000AFFA17AA16A918A80BF065FE6421300098
:108CE00009F0CCF80DB22900002E03DC642170429B
:108CF00009F0C4F819A80BF0F6FD19AA18A91AA8CA
:108D00000BF051FEAB491BA801F092FA1BAA1AA95D
:108D100009A80BF048FE1BA80BF0C9FD1AA80BF020
:108D2000C6FD19A80BF0C3FD18A80BF0C0FD17A8CD
:108D30000BF0BDFD16A80BF0BAFD14A80BF0B7FDA3
:108D400015A80BF0B4FD9C4915A801F071FA642137
:108D5000200008F0ADFF01B214A80BF0C4FD14AA66
:108D600015A916A80BF01FFE914C17A8210001F0C1
:108D70005FFA17AA16A918A80BF015FE290019A862
:108D80000BF0B1FD19AA18A91AA80BF00CFE8B491B
:108D90001BA801F04DFA1BAA1AA90AA80BF003FEA2
:108DA0001BA80BF084FD1AA80BF081FD19A80BF08D
:108DB0007EFD18A80BF07BFD17A80BF078FD16A818
:108DC0000BF075FD14A80BF072FD15A80BF06FFDEC
:108DD0007B4919A801F02CFA019918A80BF083FD22
:108DE00018AA19A91AA80BF0DEFD76491BA801F0F4
:108DF0001FFA1BAA1AA90BA80BF0D5FD1BA80BF094
:108E000056FD1AA80BF053FD18A80BF050FD19A839
:108E10000BF04DFD6C491BA801F00AFA08991AA83D
:108E20000BF061FD1AAA1BA90CA80BF0BCFD1AA837
:108E30000BF03DFD1BA80BF03AFD01F0B5F96349BD
:108E400001900FA801F0F4F939000EA80BF04BFDCA
:108E50000EAA0FA910A80BF0A6FD210011A801F081
:108E6000E7F910A911AA12A80BF09DFD2900002E08
:108E700003DC6421704209F001F813A80BF033FD04
:108E800013AA12A914A80BF08EFD514915A801F0E0
:108E9000CFF915AA14A916A80BF085FD089917A8F3
:108EA0000BF021FD17AA16A918A80BF07CFD494963
:108EB00019A801F0BDF919AA18A91AA80BF073FD99
:108EC00001991BA80BF00FFD1BAA1AA90DA80BF006
:108ED0006AFD1BA80BF0EBFC1AA80BF0E8FC19A824
:108EE0000BF0E5FC18A80BF0E2FC17A80BF0DFFC78
:108EF00016A80BF0DCFC15A80BF0D9FC14A80BF09D
:108F0000D6FC13A80BF0D3FC12A80BF0D0FC11A8D0
:108F10000BF0CDFC10A80BF0CAFC0EA80BF0C7FCA0
:108F20000FA80BF0C4FC039B2B4C1B6800220321F1
:108F300020000433FFF7F2FA0D9B002204330421D2
:108F40002000FFF7EBFA09A91BA80BF005FD1BA8F1
:108F5000FFF7D4FD1BA80BF0AAFC0CA91BA80BF073
:108F6000FBFC1BA8FFF7CAFD1BA80BF0A0FC1B49CC
:108F70001BA801F05DF91BA8FFF7EEFD1BA80BF085
:108F800096FC2000FFF76AFA0DA80BF090FC0CA8E5
:108F90000BF08DFC0BA80BF08AFC0AA80BF087FCE9
:108FA00009A80BF084FC1DB0F0BDC0464A8B02003E
:108FB000508B0200528B0200558B02005B8B02002B
:108FC0005F8B0200658B02006A8B02006F8B0200D0
:108FD000728B0200768B02002C210020788B02001D
:108FE000F7B5124C200000F0EBF9114F20003A00C9
:108FF00010490EF0C6FD104E002230001E210CF06C
:1090000024FB0E4D022328000322642102F076FD8A
:109010003A0028000A490EF0B4FD7A23320000938A
:1090200021002B000748FFF751FAF7BD4425002027
:10903000002000204990010014210020042100207C
:10904000354402002C210020CB23144A9B0010B58C
:10905000C2501C330400C0180BF029FCD1239B0024
:10906000E0180BF024FC20009130FF3001F02CFDC3
:1090700020006930FF3001F027FD2000F03002F0C1
:1090800095F82000D03002F015FC2000643007F085
:1090900085FF201DFFF79CFC200010BD64830200AB
:1090A000F0B52D4D9BB0280000F040FA2B4E392131
:1090B000300002F091FE30200EF06EFD102304000F
:1090C000092100930122264B0BF08BFB2100254840
:1090D00002F084FB002805D020000BF09CFB200050
:1090E0000EF056FD300002F08BFE00221E4C1100E7
:1090F0001E4B2000FFF712FA2000FFF7AFF9032301
:10910000002401271A4E03930233320029000594EC
:109110000293019300930497E7330CA8FFF7EAFA50
:1091200001940094522332002900FA24029708A8DF
:1091300000F022F8A4000F4907A801F079F807AA67
:1091400008A90CA8FFF780FD07A80BF0B0FB2000D2
:1091500000F056FEEFE7C04644250020942800208A
:109160009D8B0100142600202C2100207D8B020005
:1091700014210020852000207FB5040023720023E5
:1091800062606A4608A806780AAD09A800782D78BA
:10919000A072237328438133138121605072667259
:1091A0002000E5720BF060F901280DD02568164902
:1091B000F03503A801F03CF87822280003A902F05A
:1091C000E3F903A80BF073FB0025012000F018FE63
:1091D0000223217A6068009502AA02F07FFAA84271
:1091E0000ED0257325680949F03503A801F020F851
:1091F0007822280003A902F0C7F903A80BF057FB57
:10920000200004B070BDC046838B0200968B020024
:1092100070B5C37A0600002B28D0013B581E83414D
:109220005842424B1840C0235B01C018B37A002B50
:1092300000D100010023414350438C0A850A9C421F
:1092400003D0210008F0AAFC0300727A01335B0806
:10925000022A0ED9032A24D00020010080234C4387
:1092600068439B01E418201A800B70BDE8200002BF
:10927000DCE7402B2DD9802B30D9C02B32D980226E
:109280005200934231D93832934231D962329342FB
:1092900033D90020264A01009342DFD8123018311A
:1092A000DCE7432B2CD9852B2ED9C82B2FD985222F
:1092B000520093422ED9443293422ED34C329342E1
:1092C0002FD900201A4A01009342C7D82B303731DA
:1092D000C4E7DF20F92140004900BFE78521154898
:1092E0008900BBE714481549B8E79C211448F7E703
:1092F000FE2070214000FF31B0E7FB20D221ADE716
:10930000AE208121FF30EBE78A210E48E8E70E48C6
:109310000E49A3E70E480F49A0E7DE207821FF3071
:10932000E9E728200221FF30E5E7C04600ECFFFF17
:109330009A020000D10200007B0300003F020000FF
:10934000FE030000C102000063030000530200009E
:10935000DF03000082020000F0B51E00174B87B04B
:109360001B78039204AA13700123040000270291C2
:10937000017A0093406802F0B1F90423217A606811
:10938000009705AA02F09AF90500B84203D02773A6
:10939000280007B0F0BD02AB9989DA89029B002B47
:1093A00000D01980039B002B00D01A80002EEFD034
:1093B0002000FFF72DFF3060EAE7C046AA8B0200CD
:1093C0001423F0B5040093B019220093182104303F
:1093D00002F058FE23002500260064331800B4353F
:1093E00013211093B83607F0E5FD28000CF0A8FC17
:1093F00000221E2130000CF028F92000D03002F0AD
:1094000079FA2300F03307211800454A119301F03F
:10941000F5FE20000027012369301A001121009772
:10942000FF3001F05DFB20009130012302221A2160
:109430000097FF3001F054FB2000B93002220121D7
:109440000323FF3002F022FB300001F04FF9E42348
:109450005B00E050300001F09DFBE6235B00E05034
:109460000100E42220005200D130119BA258009547
:10947000FF3001F091FC2000E13029000822FF308C
:1094800002F09CFF782320000F93013B0E93033BD7
:109490000D93013B0C93013B0B93013B0A93013B62
:1094A0000993013B0893013B0793013B0693013B62
:1094B0000593013B0493013B0393013B0293013B62
:1094C0000193F930013B652200936421013BFF3099
:1094D0000CF0DCF8CB239B002900E01803F02EFFF2
:1094E000D4239B00E018092102F0E0FBDE239B005F
:1094F000E7501098032127700EF07AF8230022001D
:10950000200008499C33A0321C6082C2064A022116
:109510005A618030012207F0D1FE200013B0F0BD67
:10952000E07E0200EF440200D94402000278F0B568
:1095300001231700040091B01F401A4263D10300B9
:10954000D0331800049300F0CBFA00F0DDF930209E
:109550000EF022FB050010300BF048FA28002430F2
:109560000BF0CCF86A4B18202B600EF015FB0600B0
:10957000684B0822390004600C300E930F9709F0F5
:1095800083FE0EA90822301D09F0D6FD624B29008A
:10959000736112230498AE60EF60AB802F62EF62BC
:1095A00002F01CF9002805D028000BF034F928003F
:1095B0000EF0EEFA012326002278B436134323700E
:1095C000564930000CF0C2FB00255549039030008D
:1095D0000CF0BCFB2F000590642000F011FC0295FC
:1095E00023006933FF33180006930BF029FC002891
:1095F0000BD1039B002B12D1059B002B0FD14949A6
:10960000494800F0C1FC11B0F0BD20009130FF309E
:109610000BF016FC0028ECD0029B182BE9DC200094
:109620006530FF2339B22AB2FF3000F0C9FE322084
:1096300000F0E6FB029B01370133FFB20293052FD6
:1096400002D100270135EDB2029B192B0AD0039BF2
:10965000002BC5D03000314902F042FE03980EF0D5
:1096600097FA02E0039B002BF4D1059B002B02D05C
:1096700018000EF08DFA2B492C4800F085FCCB2306
:109680009B00E3180793DE239B00E3580893002B0D
:1096900036D100F059F801000BA800F0C9FD0AF01E
:1096A000ACFF08900AF0A9FF6B460990198C0DA831
:1096B0000BF019F9099B0EA8190C0BF014F90EAA5E
:1096C0000DA90CA80BF06FF90EA80BF0F0F80DA87F
:1096D0000BF0EDF801230CAA0BA907980093049B4B
:1096E00003F086FE0CA80BF0E2F80BA80BF0DFF8F5
:1096F000CD239B00E3580893DE23089A9B00E25099
:109700002100069A0798F03104F062F868E7C04635
:10971000FD0300006145020021450200AC8B020000
:10972000B78B02000020002008000020001C002051
:10973000BFF34F8F024B034ADA60BFF34F8FFEE750
:1097400000ED00E00400FA05F0B58BB003AF19227C
:109750003800154909F0F0FC0023144D05266B7103
:1097600080235B055B6E2C00009301230193310085
:10977000009808F099FA0800019908F00FFA0522FC
:10978000009B56431B1A0093019B534301932B1BD1
:109790005343FB181B5C013C6371054B9C42E6D1B3
:1097A00002480BB0F0BDC046FD8B0200122E002017
:1097B0000D2E0020F0B595B01822002104000EA84F
:1097C00009F062FD13210EA80EF022F803210EA865
:1097D0000EF0C1F8464B1B68002B00D10133DBB201
:1097E000009300210123434A09A807F0D7FEFA237A
:1097F0009B009C429B411C4072B63F4B64211E68FB
:109800003E4B20000593052508F052FA684350307E
:1098100030180A210690200008F04AFA0A2108F0C0
:109820002DFB694350317118200007910A2108F07F
:1098300025FB694350317118802600240891B60138
:10984000009B002B52D004AD0027032C02D18026B0
:109850000024B6016B682A4A02936300D3180022E1
:10986000019258780299095C039119788C4610216D
:10987000604601410398014204D0012090400199C3
:109880000143019101320633092AEAD1019B2A687A
:10989000D9431C4B09011940029B934224D1312F1B
:1098A00022DC002109A80EF00FF9FA23139A0F9970
:1098B000DB001068014219D0013B002BF9D1FA23DB
:1098C000013401377600E4B25B009F42BDD104351C
:1098D00008ABAB42B8D1064B1B68002BB0D0009B45
:1098E000013BDBB20093ABE73143DBE7FFF720FF3F
:1098F000C4280020F0FF0000042000204C8C02004F
:10990000168C0200F01F0000F8B50023124C2360F3
:109910000AF065FE002808D0042120000AF05BFE52
:10992000002801D00D4B2360F8BD0123A12704219D
:109930000B4A0C4D13602368FF0068606E68002EB0
:10994000FCD0D6591B02013933430029F5D12360DD
:1099500001235360E8E7C046C0280020ED5EBC0B41
:1099600000D00040FCD000400B4B70B51C68002CB0
:1099700010D0656D00F018FCA36C002901D1834262
:1099800006D820000AF082FE200004490AF06EFE8C
:109990002C00ECE770BDC046CC280020EC2800204D
:1099A000F0B595B007932A4B04AC1E68049005915E
:1099B0000692002E49D0274B678825881C68002313
:1099C0000293002C2DD0636D23480393A36C190CD4
:1099D0009AB20B00854214D12048824211D100294D
:1099E00001D0B9420BD1029B002B08D120000AF014
:1099F0004DFE20001A490AF039FE01230293039C10
:109A0000DFE7002A01D09542F9D1002901D0BB42FD
:109A1000F5D120000AF03AFE200011490AF026FE96
:109A2000EDE7104BEB18012B0FD910233A0029005A
:109A3000009308A80C4B0AF0D4FE336830009B68F2
:109A400008A9984708A80AF0E6FE15B0F0BDC04680
:109A5000C8280020FC280020FE030000FF030000AF
:109A6000EC28002002FCFFFFA199010010B572B69E
:109A70000E4B1C68002C0ED020000AF007FE0023BD
:109A8000E3640B4BE36372B60A4B1A681C60A26571
:109A900062B6200010BD62B65C200EF07DF85C223C
:109AA0000021040009F0F0FBE9E7C046F42800209B
:109AB00000400020F0280020074B10B51C68E36C24
:109AC000DB0706D5FFF7D2FF044B1860002800D053
:109AD0000400200010BDC04600290020D02800202E
:109AE000F7B51E4C0123227816001E401A4233D1CE
:109AF0001B4D2860FFF7BAFF1A4B1B4918600AF08C
:109B0000B5FDFFF7B3FF194B1860194B4363194BB1
:109B10008363286800280FD0C023174F32001749ED
:109B200000933B000AF07CFDC023009332003B0011
:109B3000134928680AF074FD0C200EF02DF800235C
:109B4000838083710F4B03600F4B836000F044FBF5
:109B50000123227813432370F7BDC046182E00203E
:109B6000C828002000290020EC280020F828002028
:109B7000FC3F0020F1460200A1990100FF03000014
:109B8000FE030000007F020069990100024B187873
:109B9000012318407047C046182E0020F7B5134F18
:109BA00004003B680E00002B1ED0114B1B78DB0716
:109BB0001AD5FFF781FF05003304234383640AF0BD
:109BC00065FD28000B490AF051FD0B4B0025E318F9
:109BD000012B07D9C023009332002100074B3868BE
:109BE0000AF01EFD2800FEBD054DFBE7C828002039
:109BF000182E0020FC28002002FCFFFFA199010084
:109C000016FCFFFFF7B506000D00170001930028B2
:109C100002D100242000FEBD0029FAD0FFF726FF64
:109C2000041EF6D0074B019A43630660064B45605D
:109C30008760002A00D0054B20000549A3630AF085
:109C400015FDE7E7FC3F0020CB460200D9460200A5
:109C5000EC28002070B5074B0E0011001A780500A3
:109C60000123100018401A4203D032002800FFF7E9
:109C7000C9FF70BD182E0020F8B50500EFF3088469
:109C8000C36B006C1C1B6B6C1B1A9C420FD91F23EF
:109C9000074E203437689C43002801D000F0D6F9E5
:109CA000200000F09FF92864001968643760F8BD4F
:109CB00000290020024B1868434258417047C046B3
:109CC000EC2800200300002210B5044994006058DD
:109CD000002801D00132F9E7635010BDD4280020DC
:109CE000002310B5044A99008C58844201D00133F6
:109CF000F9E70020885010BDD428002010B50024BA
:109D0000084BA200D058002802D003685B6898472F
:109D10000134062CF4D1044B1B68002B00D120BF6A
:109D200010BDC046D4280020EC2800200122F8B540
:109D30002C4B1B7813421CD02B4D2C68E36C134228
:109D400018D002273B43E364284B1E680423F26CBF
:109D500030001343F364636BF363FFF78DFF300050
:109D6000716C04F036F92868C36C3B4201D004F0F2
:109D70006AF9F8BD1E4F1F4E3A683068002A0AD1B2
:109D800028601B0712D52C60FFF7B8FF3B68002B3B
:109D9000FAD02B600AE0216DB94219D1616D00291A
:109DA00000D1110029602A688242EAD029688C42D9
:109DB000DFD0336899420DD10F4B4B630F4B8B6350
:109DC0002000FFF759FF296820004B6C626C06E009
:109DD0002A60E8E79C42F3D1002210004B6C04F0AB
:109DE000B7F8C6E7182E002000290020D028002050
:109DF000EC280020F8280020FC3F0020F14602005B
:109E000070B50C4B04001B78DB0702D40DF09CFDF1
:109E100070BDFFF751FE050000F0C6F92418AC64D0
:109E200028000AF033FC280003490AF01FFCFFF762
:109E30007DFFEDE7182E0020CC280020F8B51B4B45
:109E40001B78DB0727D50024194E30680AF01EFC6A
:109E5000184D2B68002B02D05B6D0134FAE7032C00
:109E60000ADD2F68013C7B6D386C2B6000F0EEF84A
:109E7000380000F0EBF8F2E7290030680AF0F6FB52
:109E800072B60D4932680B68934206D19B6D0B6028
:109E900062B6FFF74BFFF8BD0B00002BF8D0996DB1
:109EA0008A42F9D1926D9A65F2E7C046182E0020D9
:109EB00000290020F4280020F028002010B5034BD2
:109EC0001B78DB0701D5FFF7B9FF10BD182E002066
:109ED000F7B505000C00002833D001261B4B1B787A
:109EE000334230D01A4F07233868C26C1100194032
:109EF00000911A4207D021002800164AFFF7AAFE57
:109F000000252800FEBD04F086F83A680221D36CD3
:109F10001800084001900B4203D001318B43D364F9
:109F2000EEE73343D3642000A8473A68019DD36C21
:109F30001900B143D1645B07E3D52000FFF7BEFFF2
:109F4000DFE7054DDDE7054DDBE7C046182E0020B5
:109F500000290020BD9E010017FCFFFF16FCFFFF3B
:109F6000020010B5014B12CB12C210BD0429002013
:109F7000034B1A68034B1A607E225A607047C04632
:109F80000420002004290020F0B5124E030032788E
:109F9000022A1BD081421BD90C1A072C18D90D009C
:109FA00005430327280038403D4211D172B6BA401C
:109FB000094DA4085351AA18516080221206144377
:109FC0001C6033780133337062B6F0BD0348FCE7A0
:109FD0000348FAE71A2E00200C29002013FCFFFF8B
:109FE00017FCFFFF70B5041E23D0124D124E2B78C4
:109FF000002B0CD1114912483370FFF7C5FF114BEC
:10A00000984202D11E20FFF7D5FB01232B700025BB
:10A010003378AB4209DD0C49EB002000C9180AF087
:10A0200071FB002805D10135F2E71420FFF7C2FBD0
:10A03000002070BD192E00201A2E002000380020AC
:10A04000D82E002017FCFFFF0C29002010B5002897
:10A0500017D000220F4B19780F4B914215DD1C6869
:10A0600084420FD25C6884420CD9041F2368002B01
:10A0700002DC1E20FFF79EFB802322681B06134391
:10A08000236010BD01320833E7E71E20FFF792FB83
:10A09000F7E7C0461A2E00200C29002070B5051ED7
:10A0A00014DD0B4E0B4C3368002B02D020680DF0F2
:10A0B00002FBFA2120680024074B89008361C462F7
:10A0C000694335600DF008FB200070BD0348FCE7D4
:10A0D0001C2900204C29002085A1010017FCFFFF4E
:10A0E000F8B5114F05003E68002E0AD130200DF062
:10A0F00053FD040006F0C6FF0C4BA6612360E66228
:10A100003C600B4E3368002B09D110200DF044FD4C
:10A1100004000DF02DFB200034600DF003FB28003F
:10A12000FFF7BCFFF8BDC0464C2900200C87020099
:10A1300048290020014B18687047C0461C290020A0
:10A1400070B50D4C2368002B03D00C4B1B68002B03
:10A1500002D10620FFF7C4FF20680DF0FAFA0200D2
:10A160000749C3170D684E685219734120680A6089
:10A170004B600DF0F4FA70BD482900204C290020F6
:10A18000D020002010B5FFF7DBFF0024054BA20014
:10A19000D058002802D003681B68984701340A2C65
:10A1A000F4D110BD2029002010B5FFF7C9FFFA2215
:10A1B000034B920018685968002307F09FFE10BDFA
:10A1C000D020002010B5FFF7BBFF024B186859687C
:10A1D00010BDC046D02000200B4B10B51B680400FA
:10A1E000002B03D0094B1B68002B02D10620FFF780
:10A1F00077FF0023064A99008858002801D00133D0
:10A20000F9E78C5010BDC046482900204C29002099
:10A2100020290020002310B5044A99008C5884425C
:10A2200001D00133F9E70020885010BD202900201B
:10A2300010B50400002902D00B78002B03D1034B8A
:10A240002360200010BD0AF039FBFAE7107F0200FE
:10A25000F8B5050008000C000AF0F5FC002803D151
:10A26000124B2B602800F8BD20000AF0ECFC0530F2
:10A27000FFF7B8FE28600AF0E9FC20000AF0E3FCD2
:10A280002E68708020000AF0DBFC070020000AF036
:10A29000DAFC39000200301D08F04EFF20002E6865
:10A2A0000AF0D1FC002336183371DBE7107F02007F
:10A2B000F8B504000E00150000290AD00B78002B19
:10A2C00007D0002A05D0080097B209F0A7FA874204
:10A2D00003D90B4B23602000F8BD681DFFF782FEF9
:10A2E00020600AF0B3FC20682A0047803100043067
:10A2F00008F022FF23685D1900232B71EBE7C046AD
:10A30000107F0200014B03607047C046107F0200BF
:10A3100070B50968160002228C5E0500A64206DBB5
:10A32000084B186828600AF094FC280070BDA41B34
:10A330009C4200DD1C000431280022B28919FFF77D
:10A34000B7FFF2E75029002010B50548054C206002
:10A350000AF07FFC2000044A04490DF012FC10BDF5
:10A36000107F02005029002000200020AF4802008A
:10A37000084B73B51D680400002D0AD001002E683B
:10A3800008220831684608F0D7FE0CCC2800316856
:10A39000884773BD54290020014B03607047C046B5
:10A3A000187F020010B50400081E03D1034B236080
:10A3B000200010BD21600AF04CFCF9E7187F020074
:10A3C00030B500684488A1420CDA8588AA4209DACF
:10A3D000002907DB002A05DB6243401880188371DF
:10A3E000002030BD0048FCE717FCFFFFF0B5070078
:10A3F0000E001D0085B0002921DD002A1FDD002B85
:10A400001DD00468638803938B4200DD0391A38809
:10A410000293934200DD0292002306340193019BD4
:10A42000029A93420ED029002000039A08F084FE7D
:10A430003B68AD195B88E418019B0133EEE70248E5
:10A4400005B0F0BD0020FBE717FCFFFFF8B50400E6
:10A450000D0016001F00002901DB002A02DA0D4B57
:10A460002360F8BD100048430630FFF7BBFD2060B5
:10A470000AF0ECFB23685D809E80002F06D03B0035
:10A48000320029002000FFF7B1FFEAE720000AF0C0
:10A49000FEFAE6E7187F0200F7B507000D1E03D1AC
:10A4A000244B03603800FEBD002408002600210074
:10A4B00001940378002B1AD03022524294469C44D7
:10A4C0006246092A11D90A2B0AD1019B3619013398
:10A4D0000193B14200DA3100002426000130E8E7A0
:10A4E000002CFBD000240136F8E70124F6E7019A9E
:10A4F000380012B209B2FFF7A9FF012149420E004C
:10A500000A203B689A1D2C78002CCBD02300303BCE
:10A51000092B08D8CB43DB170B4043431B19303BB7
:10A5200019000135EFE70029FBDB11703100013222
:10A53000F7E7C046187F0200F0B5040087B004A812
:10A540000E001D000192FFF70BFD236801995A8848
:10A55000914233DA9B889D4230DA1F2E2ED9059B1B
:10A5600000939E422ADC052300217343049AA03BFA
:10A57000D3180393039B6E185B5C02930023019A2C
:10A58000D718226850880090B8420EDD9088B042FB
:10A590000BDD0098D2197043121810201841029F49
:10A5A0003840471EB841404290710133052BE6D137
:10A5B00001310529DED1002007B0F0BD0048FBE7DE
:10A5C00017FCFFFFF7B5036806009F1D5B880D00B1
:10A5D0005A1A0192002919DD0024994203DB0AF07E
:10A5E00056FA002013E033689B889C42F9DA791907
:10A5F0003800019A08F0A0FD019B2900F8180AF024
:10A6000029FA336801345B88FF18ECE70048FEBD87
:10A6100017FCFFFF10B50548054C20600AF019FB38
:10A620002000044A04490DF0ACFA10BD187F020066
:10A630005829002000200020474A020010B5054C90
:10A64000012120000AF0EDFA2000034A03490DF031
:10A6500098FA10BD5C29002000200020CF4B02009A
:10A66000074A030010B50120934208D0834202D06C
:10A670000020DB0703D41E20FFF79CF8002010BD4C
:10A68000FFFF00000048704716FCFFFF10B53220A6
:10A69000FFF790F8004810BD16FCFFFF82801422DF
:10A6A000002310B541620F4C0100083404600E24F1
:10A6B0000281123A837182720363838636310A788B
:10A6C000C360A243036143618361C36103620A7093
:10A6D000021DD38701224287034AC263020040322F
:10A6E000137010BD387F020001000100F0B5564E16
:10A6F0000500376897B0002F00D090E006AC0B2320
:10A700001C228221200001F0F9F90B231D22832154
:10A710000AA801F0F3F90B231B2284210EA801F0F3
:10A72000EDF908200DF038FA01223B0011000490E9
:10A730000BF06EFE3A2128000BF089FB00281CD09C
:10A74000A38812AFBB80A379A268BB713F4B5C208A
:10A7500012930E23E3561492A289BB73BA810DF0B3
:10A760001BFA05230193353300933A002900049B1B
:10A77000040002F025F9346051E0322128000BF08A
:10A7800094FB00281BD0A38812AFBB80A379A268DA
:10A79000BB712E4B5C2012930E23E3561492A289B8
:10A7A000BB73BA810DF0F8F9052301932D330093A3
:10A7B0003A002900049B040002F0A6FADBE73C21E2
:10A7C00028000BF02DFB002834D0362202AB9B8EE4
:10A7D00012AFBB8002AB9B181B780832BB711B4BBE
:10A7E000A420129302AB9B18109A1B781492059226
:10A7F00002AA928F5BB2BA81BB730DF0CDF906232A
:10A8000004000293013B0193373300933A00049B09
:10A81000290001F0F5FF0E4B346044341C600C4BF2
:10A82000094C1868002802D021680AF077FB2068DC
:10A8300017B0F0BD44200DF0AFF9052204990400D3
:10A84000FFF72CFF97E7C04660290020287F020011
:10A8500064290020F0B56349C56885B08D4258DA97
:10A86000030036331C7802222300134014425BD1CC
:10A87000026901928A4265DA020036321278520782
:10A880006AD4426902920200029C40328C4270DA21
:10A89000010036310978090775D4002B7ED1137871
:10A8A0009C46002B16D00100061DF38F3631013374
:10A8B0009BB2F3870391097801270C003C40394291
:10A8C00000D188E01D2B05D9039BB94319700023E3
:10A8D000F38713700AF002FA434A0723904277D9AC
:10A8E0004249043B8D4273DBC822013392009542FA
:10A8F0006EDC0198023B88426ADB013B904267DCD8
:10A9000002980433884263DB0023904260DD063303
:10A910005EE0C822002352009542A9DD03003633D1
:10A920001A7800239207A3D4012306001F003636AD
:10A9300032785408A7433C0002279C40BA43224384
:10A94000327095E7C822019C5200944299DD0200C2
:10A9500036321278520794D4012306001C00363692
:10A9600032789708BC43A7000424A2433A433270CC
:10A9700087E7C821029C49008C428EDD01003631F8
:10A980000978090789D40100012636310B78DF08E0
:10A99000BE430827F600BB4333430B701378032BE9
:10A9A00000D97CE70133DBB21370012B03D1002106
:10A9B000031DD98773E7042B00D070E702003632FD
:10A9C0001178033B0B43137000230430C3870B3310
:10A9D000180005B0F0BD092B00D87BE76346F4876B
:10A9E000013B76E770FEFFFFFF700200E0FCFFFF17
:10A9F000F0B5C369C1681A68451D0400EB7F89B0D2
:10AA0000114225D0002B57D10123A2791A4237D009
:10AA1000002602226846A188A67109F0F1FFA31D55
:10AA2000DD7F012D2CD1FFF7BFFB3300226A801A96
:10AA300099410F000600A1889F4203D1FA239B0091
:10AA40009E423BD30123042204A809F0D9FF17E05A
:10AA50000B2B01D80133EB77EB7F082B0DD90122AB
:10AA6000A37913420CD11343A188A37104A8130046
:10AA700009F0C6FFFFF798FB2062EB7F012BC3D9DB
:10AA80000322A3791340012B14D1FFF78DFB002380
:10AA9000226A801A9941994202D10A4B984209D9F7
:10AAA0000223A279A1881343A3710522012304A8DC
:10AAB00009F0A6FF09B0F0BD013BCCE72B00032253
:10AAC000C2E7C046DB05000010B50400034B0833A5
:10AAD0000360FFF79FFB200010BDC0466C7F0200A3
:10AAE000F0B5060000250F00040085B002930AAB04
:10AAF0001B78083603930F4B29000833036001923B
:10AB0000858085711822300008F0BEFB39003000C6
:10AB1000039A0CF082FE019B029AA380A31DE771A9
:10AB2000DA77631D25622000DD77FFF755FB2000F3
:10AB300005B0F0BD6C7F02000048704716FCFFFFB7
:10AB400010B53320FEF736FE004810BD16FCFFFF9F
:10AB5000002310B50400838083710D482164083000
:10AB600020608020C000A061E06120621100200010
:10AB7000E360236163616362A362E36223636363EF
:10AB8000A363E36363640AF0A1F9200010BDC0462B
:10AB9000847F0200F0B5544E0500376897B0002F4F
:10ABA0003DD10B231C22822106A80AAC00F0A6FF8F
:10ABB0000B231D228321200000F0A0FF0B231B226A
:10ABC00084210EA800F09AFF08200CF0E5FF012276
:10ABD0003B00110004900BF01BFC1D2128000BF022
:10ABE0004DF9002824D0A38812AFBB80A379A268B6
:10ABF000BB713E4B602012930E23E3561492A28940
:10AC0000BB73BA810CF0C8FF06230193173300937E
:10AC10003A002900049B040001F0A6FF3460344B85
:10AC2000314A1B681068002B00D0436417B0F0BD98
:10AC30003C2128000BF050F900281BD0A38812AF4C
:10AC4000BB80A379A268BB71284B602012930E23AE
:10AC5000E3561492A289BB73BA810CF09DFF0623C0
:10AC60000193363300933A002900049B040002F05C
:10AC7000EDF8D3E73C2128000BF0D2F8002829D0CA
:10AC8000362202AB9B8E12AFBB8002AB9B181B78A7
:10AC90000832BB71154BA420129302AB9B18109A7B
:10ACA0001B781492059202AA928F5BB2BA81BB7391
:10ACB0000CF072FF062304000293013B019337332B
:10ACC00000933A00049B290001F09AFD084B1C6098
:10ACD0004434A3E748200CF05FFF062204990400E7
:10ACE000FFF736FF9AE7C04664290020287F02005C
:10ACF00060290020F0B587B001930EAB1B880600D9
:10AD000003930D9B0D000093019B0C9F0292002B5F
:10AD10003DD0002F02D1009BDB0738D530200CF04E
:10AD20003BFF0400103009F061FE2000243009F0E0
:10AD3000E5FC029B1820258063800CF02DFF0500A8
:10AD4000009B08220593019B002103600C300497AF
:10AD500008F09AFA082204A9281D08F0EDF90D4B15
:10AD600002226B6100230399E3602362E36233688C
:10AD70000A43300021005B68A560A2809847002844
:10AD800005D0200009F047FD20000CF001FF07B0BE
:10AD9000F0BDC046614F020070B58CB08360109B5F
:10ADA00001604260C3600400184918000AF0CEFF39
:10ADB000051E14D001001C22103105A808F0BCF9B2
:10ADC0006A4608AB43CB43C21B68136020680599F1
:10ADD000069A079B0AF08CF828000CF0D9FE0C4B61
:10ADE000186800280ED00B4A05AB05920022069287
:10ADF000C03202926A4622CB22C2230003220621DD
:10AE0000FFF778FF20000CB070BDC0462C8E02000A
:10AE10005429002019AE010082B0F0B50400EDB055
:10AE20006420739372920CF08FFD052210A811001C
:10AE300009F036FE954911A8FFF72EFB19250022CF
:10AE400021AB013D1A605A609A600C33002DF8D195
:10AE50001522290014A8139508F016FAA0680AF024
:10AE6000EDFBFF210A90A06800F01EFC884FA0684F
:10AE700000F0BEFA049508950995854B9F4203D0D2
:10AE8000844B9F4200DBF7E0A0680AF0D9FBA5687D
:10AE900081491AA8FFF7CCF978221AA9280000F0F6
:10AEA00049FB1AA809F003FD0023794F04930326F8
:10AEB000099B606801333340099309F0A7FF05003F
:10AEC000606809F0AAFF0022744B05929D420FDBD7
:10AED000013205922A00C8320ADBAA22042192001C
:10AEE0000591954204DC0596C82D01DC02220592ED
:10AEF00000220692984210DB012306930300C83318
:10AF00000BDBAA2304329B000692984205DC032344
:10AF10000693C82801DC013B069310A809F0B7FD91
:10AF20005F4B00251E00079313ABEB5C012B05D193
:10AF300072783178FE3310A8FFF742FA01350236F5
:10AF4000192DF1D16B4618229A5E6B4610A8142178
:10AF5000595E099BFFF734FA002F02DB049B0F2B8D
:10AF600007D90023A0681A007430009310A909F0D3
:10AF7000A4FD13AE079B059A1B78934221D1079B32
:10AF8000069A5B7893421CD13378012B19D00C239D
:10AF9000089A0CAD53432800002221680B9309F056
:10AFA000BFFF21AA94460B9B634407CD07C301232F
:10AFB0003370089B0133DBB20893049B0133DBB28F
:10AFC0000493079B374A0233079301369342D1D14A
:10AFD00064200CF0B9FC089B643F3FB2182B00D8EA
:10AFE0004BE71A0021A91AA80AF0A9F96A461DAB75
:10AFF00023CB23C21B6813601A991B9A1C9B2068E1
:10B0000009F076FFE568002D0CD0274912A8FFF75C
:10B010000FF91C2328001AAA12A90AF0CCFE12A8C4
:10B0200009F045FCA0680AF00BFB11A912A8A5685D
:10B0300009F016FD00221D4B009212A90193280071
:10B04000130000F019FA12A809F0FDFCFA208000A4
:10B050000CF07AFCA0680AF0F3FA0A99A06800F0F4
:10B0600023FB11A809F0EFFC10A809F0ECFC6DB06F
:10B07000F0BC08BC02B01847002F03D0049B0F2B74
:10B0800000D014E7A06800F0B3F910E7378E020093
:10B090008C3C0000D18AFFFF7C8E020058FDFFFF30
:10B0A000918E0200C38E02002C8E0200DC0500008F
:10B0B000F0B5040085B0637A9C46002B04D12000D3
:10B0C0000AF05BF905B0F0BDA37A266F0193102357
:10B0D000019AF35600259B1801229A402900F36833
:10B0E00003920293029BAB4231DDB068019B68433F
:10B0F000C01873694000E77A1A181B5C5078E2792F
:10B10000012F14D1571E3F1A18003B004243606FB5
:10B1100052008218D2189379634500DD6346627B42
:10B120001A4202D00123AB4019430135DAE7022F5E
:10B1300007D0032FEAD1277A013FFF1A0300380016
:10B14000E4E7571EFB1A277A013F381ADEE711237E
:10B15000C943F356606C994023691940039B194316
:10B160000CF0B2FCA27B072AACD8637B0C495B00D5
:10B170006373531CDBB290004158A373022A03D8B7
:10B1800008000CF0D6FB96E7064B20002363002353
:10B190006363054BE462236414300CF09DFA91E77D
:10B1A000B07F0200B1B001006553020070B5040029
:10B1B000104B250008330360FFF72CF82000743093
:10B1C00009F041FC2000603009F03DFC20005830BF
:10B1D00009F06DFB2000503009F069FB064B143577
:10B1E000280063610CF067FA280005F061FF200079
:10B1F00070BDC046D07F02000C870200F8B5002564
:10B200000400324B858008330360857114301600CA
:10B210000F0005F037FF20002D4BE56263612564C8
:10B220005030FFF76FF820005830FFF76BF8200020
:10B230006030FFF7B1F820000423F25E3368266720
:10B24000590009B2743009F02BFC3368226FE371A6
:10B2500073680126237210236581A7802561D35668
:10B2600091685918994204DD300098400133054334
:10B27000F8E711230120D356D1685918994206DD09
:10B2800002009A402669013332432261F6E7142016
:10B290000CF082FC226900212A430123060006F0FB
:10B2A0007DF9FF23220063720133A381002348321A
:10B2B0006664A37320001370A366FEF78DFF01235D
:10B2C000A27920001343A371F8BDC046D07F0200CD
:10B2D00020870200F0B5437A040085B0002B04D12A
:10B2E00020000AF04AF805B0F0BD837A066F01939A
:10B2F0001023019AF35600259B18012294469A4088
:10B300002900F36803920293029BAB422DDDB068E3
:10B31000019B6843C01873694000E77A1A181B5CE8
:10B320005078E279012F10D1571E3F1A18003B00C8
:10B330004243606F52008218D2189379002B02D0DA
:10B340006346AB4019430135DEE7022F07D0032FD8
:10B35000EED1277A013FFF1A03003800E8E7571EB5
:10B36000FB1A277A013F381AE2E71123C943F35643
:10B37000606C994023691940039B19430CF0A4FBAE
:10B38000667AB31EDBB2FC2B14D8FEF7D3FE0C4B4F
:10B390000500236300230B4863630B4BFF217043BD
:10B3A000E462236406F084FC290041432000143049
:10B3B0000CF092F9637A012B00D994E790E7C0462C
:10B3C0007B530200B6030000655302001FB5012342
:10B3D00081881A00684609F013FB012368461A00A9
:10B3E000024909F00DFB05B000BDC046FE03000098
:10B3F0001FB5030048331A780400002A0DD000223C
:10B400001A70012381881A00684609F0F9FA0123AD
:10B4100068461A00034909F0F3FA2000743009F075
:10B4200036FB1FBDFF03000010B5040023004833A6
:10B430001A78002A07D01B78012B04D0012102487A
:10B4400009F03AF9F2E710BDFF03000010B5012141
:10B450000400072009F030F9064B984208D148341F
:10B460002378002B04D02378012B01D020BFF7E7ED
:10B4700010BDC04616FCFFFF73B5079C0500002CED
:10B480001CDB060048363078002802D030780128CE
:10B4900016D106981BB2C0B20090280012B27430C8
:10B4A00009F00BFB002C07D02B004A331C80002432
:10B4B00007234C352C803370200076BD014CFBE710
:10B4C000014CF9E717FCFFFF12FCFFFFF0B587B056
:10B4D0000D9C05000E0017000393002C21DBFFF7E5
:10B4E000A3FF2B0048331B78DAB20292002B1AD14B
:10B4F000310005A809F0B4FA0C9B3A00009328002B
:10B50000039B019405A9FFF7B7FF05A809F09BFA73
:10B51000002C03D02800FFF799FF029C200007B001
:10B52000F0BD024CFAE7024CF8E7C04617FCFFFFFB
:10B5300011FCFFFFF8B50400171E1DDD060048369C
:10B540003378002B02D03378012B17D12200E37916
:10B550005632013B137023000025200054331D8018
:10B56000503009F001FA23004A331F8002232800DB
:10B570004C3425803370F8BD0148FCE70148FAE7F8
:10B5800017FCFFFF12FCFFFFF7B504000F00161EAB
:10B5900018DDFFF749FF230048331B78DDB2002B8D
:10B5A00012D1390001A809F0D7F9320001A9200011
:10B5B000FFF7C0FF01A809F07AF92000FFF746FF66
:10B5C0002800FEBD0148FCE70148FAE717FCFFFF31
:10B5D00011FCFFFFF8B50400171E2DDD06004836EC
:10B5E0003278002A02D03278012A27D15D42069BA8
:10B5F000FF331FD16B1D22001BB264321380230066
:10B60000200066331D70603009F032FA23000022FA
:10B610006C331A70954200D03D0023004A331D80E0
:10B62000079B00205A1E9341013F4C34053327806D
:10B630003370F8BD069BDEE70148FAE70148F8E7FA
:10B6400017FCFFFF12FCFFFFF0B504000F0016000F
:10B650001D0087B0002A1FDDFFF7E6FE23004833F8
:10B660001B78DAB20392002B18D1390005A809F033
:10B67000F7F90D9B320001930C9B05A90093200064
:10B680002B00FFF7A7FF05A809F0DDF92000FFF761
:10B69000DDFE039807B0F0BD0148FBE70148F9E77C
:10B6A00017FCFFFF11FCFFFFFF2902D841720020A9
:10B6B00070470148FCE7C04617FCFFFF13B50400C4
:10B6C00004A80078009020000BF06AFF002801D148
:10B6D000207516BD0048FCE70EFCFFFF13B5040003
:10B6E00004A80078009020000BF042FF002801D150
:10B6F000207516BD0048FCE70EFCFFFF7FB50D006E
:10B7000011000F226A4404001E1E117015D0089B00
:10B71000002B12DD012329000093FFF7DFFF002833
:10B7200008D10090320029002000089BFFF7C6FFD7
:10B73000002800D0024804B070BD0248FBE7C046B4
:10B740000EFCFFFF17FCFFFFF7B506000D1E3ED0F5
:10B750000023022704690193002C34D0AA88A3880F
:10B7600053403B422DD13A4222D1A368AA6893426A
:10B7700027D12B88002B02D022889A4221D16B88B6
:10B78000002B02D062889A421BD1EB68E268934298
:10B7900001D0002B15D17368002B01D020009847F1
:10B7A000A2880C4B1343A380019B0133019308E053
:10B7B000A968A0680AF012FE0028DAD1AB883B42E3
:10B7C000D3D0E46AC8E7019B2000002B00DC0248CC
:10B7D000FEBDC0460080FFFF17FCFFFFF0B506006E
:10B7E0000D0085B000295DD001270469002C27D009
:10B7F0000221AA8800230A4202D0A3885B083B40AA
:10B80000226829688A4215D1A068A968002B0FD048
:10B810000AF0E4FD00280DD0EB68E268934209D1FC
:10B820000421625EA388002A06DB1F4805B0F0BD34
:10B830008842F1D0E46AD9E75B045B0CA380F4E7AB
:10B8400030692A880100031E07D13561012368464B
:10B85000164909F0D5F80020E8E71C88944206D282
:10B86000DC6A1900002C0DD02300F6E723001C88A9
:10B87000944207D15F886C88A74203D8DC6A19001C
:10B88000002CF3D1884209D10B889A4204D305D108
:10B8900048886B88984201D9E962D6E7CB6AEB62A7
:10B8A000CD62D3E70248C1E716FCFFFFFD030000AD
:10B8B00017FCFFFF064B10B51A00040008322C33AA
:10B8C000026083600830FEF70BFA200010BDC0460E
:10B8D000E87F020008B4024B9C46083808BC604769
:10B8E000B5B8010008B4024B9C46083808BC604754
:10B8F000B75702000C4A002311002C32083110B552
:10B9000043608381837382600361436183618383C6
:10B91000016004000830FEF7D5F9044B1A68002ACC
:10B9200000D11C60200010BDE87F020054290020D7
:10B9300082B0F7B50125402609930CAB1B7804694A
:10B9400008920193002C38D008AA238812889A42C2
:10B9500001D0002B29D108AA638852889A4201D0CD
:10B96000002B22D1FEF712F90123002806D0C022B5
:10B97000A3881340C03B5A425341DBB2019A934221
:10B9800019D10422A35EA788002B14DB102208A97A
:10B99000A01807F0D1FB374209D1FEF7F7F80028CD
:10B9A00005D021000748FEF793FAE46ACAE72000B1
:10B9B00009F00AFFF9E70025F7E72800FEBC08BCFC
:10B9C00002B01847C957020008B4024B9C46083819
:10B9D00008BC60476559020010B5024809F006F836
:10B9E00010BDC046D8200020F0B587B001930EAB43
:10B9F0001B88060003930D9B0D000093019B0C9F79
:10BA00000292002B3DD0002F02D1009BDB0738D5DE
:10BA100030200CF0C1F80400103008F0E7FF2000DF
:10BA2000243008F06BFE029B1820258063800CF008
:10BA3000B3F80500009B08220593019B00210360D9
:10BA40000C30049707F020FC082204A9281D07F0F9
:10BA500073FB0D4B02226B6100230399E3602362A9
:10BA6000E36233680A43300021005B68A560A2806E
:10BA70009847002805D0200008F0CDFE20000CF0EB
:10BA800087F807B0F0BDC046B3590200F0B5160004
:10BA900000258380164A174B0400857102600181DE
:10BAA0004681057318688C4689B0A8421DD0124A99
:10BAB00005950492C02202926A4604AB82CB82C2F0
:10BAC00023002A006146FFF78FFFC022094B0A4975
:10BAD000186802926A46069106AB079582CB82C22D
:10BAE00023002A003100FFF77FFF200009B0F0BDDE
:10BAF0002C80020054290020DD5A020030B50024B9
:10BB000003730123034D8471056081808273437345
:10BB1000846030BD287F020070B583790400DB07A4
:10BB200004D58068002801D00CF032F8A3799B0777
:10BB300004D5A068002801D00CF02AF8A3795B078F
:10BB400009D5A0230021154AA068DB00D150884206
:10BB500001D00CF01DF8A3791B0708D5A568002DAE
:10BB600005D028000AF0AAFC28000CF011F8A379EF
:10BB7000DB0605D5A068002802D00368DB6898477B
:10BB80006023A2791A4205D0A068002802D0036879
:10BB90005B6898470023A360A37170BD00700040EC
:10BBA000F7B50227037B04000D003B4228D0012992
:10BBB00028D883791A003A4001923B4214D1FFF70A
:10BBC000ABFF18200BF0E8FF0E230600E356182207
:10BBD0000199009307F058FB300000990BF027FE05
:10BBE000A379A6603B43A371A3685A68002D04D0D3
:10BBF0000025DB681A602800FEBD1B691A60FAE7A1
:10BC0000014DF8E7014DF6E716FCFFFF17FCFFFFBB
:10BC1000F7B50126037B040033422CD082796123DF
:10BC20001100194001911A4216D1FFF775FF182033
:10BC30000BF0B2FF0E230500E356677B1822019933
:10BC4000009307F021FB3A00280000990BF0E5FD76
:10BC5000A379A5603343A3716023A279A0681A4237
:10BC600002D00BF0BEFCFEBD436940681B68184063
:10BC7000431E9841F7E70148F5E7C04616FCFFFF71
:10BC8000012210B583794173134204D080680BF010
:10BC900062FE002010BD6022134203D080680BF0CA
:10BCA000A7FCF6E70048F5E716FCFFFF70B50400B7
:10BCB00000250C4B0E000833858085710360210040
:10BCC000183009F0BCFF20002100203009F0E2FF0D
:10BCD000054B2000A680E5802572E5602561656141
:10BCE0001C6070BD3C800200682900208379DB075E
:10BCF00002D5C160002070470048FCE716FCFFFF3A
:10BD00008379DB0701D5C06870470148FCE7C0466E
:10BD100016FCFFFF70B545690400002D22D0037AA0
:10BD2000032B21D8FFF7ECFFE86230200BF034FF43
:10BD300030220021050007F0A7FA002263699A6209
:10BD40002369934207D1636923610020237A6561E7
:10BD50000133237270BD1A009B6A002BFBD163690B
:10BD60009362F2E70148F5E70148F3E717FCFFFFAC
:10BD700013FCFFFF144B70B55A68144C002A03D013
:10BD800000225A600132A2601A69002A17D00021ED
:10BD900019618023DB000E4DE3582868012B0FD179
:10BDA000A923DB00E1584942FFF7A0FF2868FFF70D
:10BDB000B1FF2B685A69074BE2500123A36070BDA5
:10BDC000FFF794FFF9E7C046FC1000400010004068
:10BDD000682900200405000070B505000C0008F07B
:10BDE000FEFB002804D1034A034BEC71D45070BD14
:10BDF0000248FCE7001000402405000016FCFFFF8D
:10BE0000F8B5837905000020DB0765D408F0E7FB6F
:10BE1000002862D16E69002E08D130300BF0BCFED4
:10BE200004003022310007F02FFA6C6100222C4B05
:10BE300001215A608022D20511605A68002AFCD084
:10BE40000622284B284C9A56284B0026E2500722FF
:10BE5000043BE2500833E650254A264B2800E250C6
:10BE6000E979FFF7B9FF01220821234B2348E65067
:10BE70000433E250224B234FE1500433E0500223BD
:10BE80002148235021482750214F04382750182794
:10BE9000204827506F6920482750C120800021503A
:10BEA0001E498538FF380B500B608021890060588F
:10BEB0000E33034363501A4B5E6062605A68002A77
:10BEC000FCD0002601271E612800A760FDF7FAFEBE
:10BED0003000AB791F43AF71F8BD1248FCE7C04694
:10BEE000FC00004055900200001000400C050000CE
:10BEF000746962751C0500002C0500002300040213
:10BF000014050000FFFF0000340500003C050000A0
:10BF100021100100540500000405000000E100E0CC
:10BF2000FC10004016FCFFFF03000069002809D048
:10BF30000221054AD167826A1A611A7A013A1A7295
:10BF4000024B19607047C04604E100E000E100E0E8
:10BF500070B505000C0008F042FB00283AD1002C17
:10BF60003AD02378262B37D8022201211B4BDA67DF
:10BF70001B4A1C4B5861116159690029FCD00020F3
:10BF80001949545058600130106058680028FCD09E
:10BF9000002018610130906018690028FCD06869A1
:10BFA0005050002159610131116159690029FCD0BB
:10BFB000002159600131516059680029FCD00020EE
:10BFC00018610123C02193600222084B49005A5096
:10BFD0001A6070BD0648FCE70648FAE704E100E095
:10BFE00000100040FC1000400405000000E100E0EB
:10BFF00016FCFFFF17FCFFFF37B54C680500002C4F
:10C0000004D10C4908F0EAFD28003EBDA36A01A84E
:10C010004B602278E36A033A211D08F00BFE2000F2
:10C020000BF0B6FD280001A908F0D8FD01A808F022
:10C03000CEFDE9E75C29002010B504008CB0002992
:10C0400011D0262A0FD86846D31C037001234370F1
:10C05000FF33438001A807F06FF869462068FFF7B7
:10C0600077FF0CB010BD0148FBE7C04617FCFFFF8F
:10C0700010B5002903DB024B19600BF0FEFA10BD6E
:10C080006C29002070B504001D0004AB1E7804F07C
:10C09000B5FF20000E4B40302360FEF733F923003C
:10C0A000220001354C331D700023E1215832013646
:10C0B00016700A3AA3646365138053809381D38119
:10C0C000013B200063644902FFF7D2FF200070BDEE
:10C0D000D87E0200F7B580277F053E697C6908227B
:10C0E000113C744305002100684607F025F8104B09
:10C0F000009A9A4219D0009300230193796928008D
:10C100001339714309F0DDFD019A2800009909F007
:10C11000F0FD2100280009F0D4FD796922001339CF
:10C1200028007143B30809F0D6FD0198FEBDC04652
:10C13000FECA0000F0B50D00ABB000210D92070063
:10C14000302212A81E0007F09FF8280007F066FBB7
:10C15000431C0C93102B00D9B8E0202E00D9B5E079
:10C160002900380009F0F2FD0B90002854D1290075
:10C170000C9A12A806F0E0FF32000D9916A806F0FE
:10C18000DBFF80235B051A695D690B92113D6A43F1
:10C1900038005E690D92FFF79DFF0D9B302208333A
:10C1A000002104001EA80F9307F06EF831000B9BCE
:10C1B00013395943380009F084FD00230F9E0C9376
:10C1C0000E930C9BA34246DA310030221EA806F0E3
:10C1D000B3FF12A91EA807F0DDFA00282BD13D49B4
:10C1E000380022001091119409F083FD6A460996E7
:10C1F00015AB23CB23C223CB23C223CB23C23800CE
:10C20000149B1299139A09F082FD01230E930C9B43
:10C21000303601330C93D4E70B9832000D9910306F
:10C2200006F066FF04000B980BF0B2FC002C9ED1C8
:10C2300020002BB0F0BD6A46099621AB23CB23C268
:10C2400023CB23C223CB23C238001E991F9A209BE5
:10C2500009F05DFDDBE7E6433021F61726404E434B
:10C260000F9B9E190E9B002B1CD10B9B981E05F05B
:10C2700095FCA0422CD017490134380022001091BF
:10C28000119409F036FD6A46099615AB23CB23C2FB
:10C2900023CB23C223CB23C238001299139A149BB9
:10C2A00009F035FD38000D9909F00BFD80235B0581
:10C2B00059690C230B9A133963434A433800110020
:10C2C00002330D9A09F007FD0024B1E7024CAFE7F5
:10C2D000024CADE7FECA000017FCFFFF13FCFFFF96
:10C2E0008023F0B55B051A6995B002925A690591F1
:10C2F0000299113A51435C69029B133C05005C436F
:10C300000391FFF7E7FE061E3CD0302200210834DF
:10C3100008A8039F06F0B8FF2100280009F0D1FC0F
:10C320000023083701930493019BB34220DA3900BC
:10C33000302208A806F000FF059908A807F02AFA9D
:10C3400000280DD11B49721E28000691079209F0A2
:10C35000D0FC01230493019B303701330193E3E7C1
:10C3600022000C233900280009F0B5FC3034F2E734
:10C37000049B002B08D10F49320028000691079634
:10C3800009F0B7FC0C4812E02800039909F099FC69
:10C3900080235B0559690C23029A13394A4373437E
:10C3A00011002800039A023309F095FC002015B013
:10C3B000F0BDC046FECA00000CFCFFFF70B50400D3
:10C3C000A280FA22002308000C4992000831216063
:10C3D000A3710B496061E260A360638209F0B6FC5F
:10C3E000051E09D00100200002221031123006F093
:10C3F000A3FE28000BF0CCFB200070BD548002008F
:10C40000C38E020030B502258379040087B02B4229
:10C4100004D1FDF757FCA3791D43A571200009F055
:10C42000DBFC00281CD06B46DD1C280009F0CBFC8F
:10C430002B78002B17D001A809F0C3FC0321019A27
:10C44000D3170B409B189B102382FDF7ADFEE368CA
:10C45000A18818180123A0601A0002A808F0D0FAD9
:10C46000002007B030BD0122064B1A60064A516811
:10C470000029FCD000215160044A12680192012277
:10C480005A60DBE700C00040FCC0004008C5004027
:10C49000022802D10122014B1A7070471B2E002086
:10C4A00070B5064D04002B78002B04D1044801F030
:10C4B00087FF01232B70200070BDC0461C2E00207A
:10C4C00091C4010070B50C0008F089F8002810D064
:10C4D0000023134DA40A2B70200009F091FC0028C2
:10C4E00003D00A200BF030FAF6E72B78002BFCD0B3
:10C4F00070BD02210B4B0C4A99508021C90058583D
:10C500000028FCD0A120C0001C5058580028FCD0A6
:10C51000002199508021C9005A58002AFCD0E7E731
:10C520001B2E002000E0014004050000F8B50D00BE
:10C5300016001F0008F053F8002811D00023184CF3
:10C5400023703A003100280009F058FC002803D07D
:10C550000A200BF0F9F9F4E72378002BFCD0F8BDA2
:10C56000012380220F4C1049D2006350A358002BA6
:10C57000FCD08022D200002394469F4208DD980020
:10C5800032582A506246A0580028FBD00133F4E705
:10C59000002363506346E358002BFBD0DFE7C0461F
:10C5A0001B2E002000E001400405000008B4024BEF
:10C5B0009C46443808BC6047055E0200FA21F8B585
:10C5C0000389C90004005943324809F01CFFFA21CD
:10C5D000890005F0E3FA304FA17A2081380009F094
:10C5E00012FF23002600250022894C33A072A036BA
:10C5F0001A808C3500232A223178286809F02DF81A
:10C60000002844D11F235B223178286809F025F8DF
:10C6100000283CD120235C223178286809F01DF8DD
:10C62000002834D101232C223178286809F015F82C
:10C6300000282CD101232D223178286809F00DF82B
:10C64000002824D101232E223178286809F005F82A
:10C6500000281CD1A17A380009F0D0FE0E22C3B206
:10C660003178286808F0F9FF002810D1FA212389D1
:10C6700089005943074809F0C1FE012303432A22D8
:10C6800031782868DBB208F0E8FF002800D00348C2
:10C69000F8BDC046748002006C8002000EFCFFFFF3
:10C6A00008B4024B9C46443808BC6047BDC5010035
:10C6B000074B10B51A00040008323C330260436493
:10C6C000443008F0D1FB200008F001FB200010BD31
:10C6D000D480020008B4024B9C46443808BC604732
:10C6E000B1C6010008B4024B9C46443808BC604700
:10C6F0000F5E0200F0B50425837904008BB02B4255
:10C7000004D1FDF7DFFAA3791D43A5712000903015
:10C71000FFF77EFA0026B0420FD12300A03319782C
:10C7200020000C2307AD00938C302B000122006801
:10C73000FEF7E4FF061E03D02C4E30000BB0F0BD18
:10C740000A2304AA9B182A785A706A781A70002261
:10C75000985EAA785A70EA781A700022995E03915E
:10C760002A795A706A791A7000229F5EAA795A70E3
:10C77000EA791A7000215A5E04922A7A5A706A7A0B
:10C780001A7000215A5E0592AA7A5A70EA7A1F2519
:10C790001A7000229B5EA27A03999C46514349423B
:10C7A0005043CB172B405B185B11A361C3172B4081
:10C7B000181864235743FA171540ED196A112262BD
:10C7C000059A5B425343A36764236146049A401170
:10C7D0005A434B43E267221DE0612000D36708F013
:10C7E000E8FA2000443008F046FBA6E70EFCFFFF05
:10C7F00008B4024B9C46443808BC6047F5C60100AB
:10C80000F7B51E00040008AB1B881500019309ABA7
:10C810001A8800910AAB31001F88FDF73FFF200006
:10C820003A0031004430FEF793F9134B20001A0010
:10C830003C336364230008322260009A8C331A6010
:10C84000AB8890308380AB7983710C4BAA6803600E
:10C850000E23EB5682602200A9899C3211808373DB
:10C860002300019AA03303211A80FFF709FA200060
:10C87000FFF7A4FE2000FEBDD4800200287F020046
:10C88000F8B5FA260189B60004007143254809F07D
:10C89000BAFD310005F082F9234FA17A20813800DA
:10C8A00009F0B1FD2500A072583500232A2229780D
:10C8B000606C08F0D2FE002832D110232B22297898
:10C8C000606C08F0CAFE00282AD101232D222978A5
:10C8D000606C08F0C2FE002822D101232E222978A4
:10C8E000606C08F0BAFE00281AD1A17A380009F06D
:10C8F00085FD0E22C3B22978606C08F0AEFE0028D8
:10C900000ED121890748714309F078FD01230343C3
:10C910002A222978606CDBB208F09FFE002800D044
:10C920000248F8BD3C810200348102000EFCFFFF8A
:10C9300010B50400034B0833036008F0C8F9200069
:10C9400010BDC0469C8102007FB504258379040098
:10C950002B4204D1FDF7B6F9A3791D43A571200040
:10C960004830FFF755F90025A8420DD12300583370
:10C970001978062302AE009301223300606CFEF7A3
:10C98000BDFE051E03D00D4D280004B070BD002172
:10C9900004200222A37A30567156B25659435A43A4
:10C9A0004343DB002362D20023685242C9002000C7
:10C9B0009B6AA261E1619847E6E7C0460EFCFFFF73
:10C9C000F8B504000F00190006AB1E8807AB150070
:10C9D0001A88FDF763FE0F4B67640833236023005A
:10C9E000AA8848339A80AA799A710B4AA968A264E6
:10C9F0000E22AA5621652100A889543108809A7315
:10CA00000023A371230058331E802000FFF738FF56
:10CA10002000F8BD9C810200287F020010B50400B0
:10CA2000034B0833036008F01FFA200010BDC04616
:10CA300030820200F0B507005C37002304001022AA
:10CA40003978806C87B008F008FE214D030028007B
:10CA5000002B3BD10F2602ABF618012339780822B0
:10CA60000093A06C3300FEF749FEA8422DD00322AC
:10CA70003378134203D06420FDF7C2F9EAE7FA26BF
:10CA80002189144DB6007143280009F0BCFC310027
:10CA900005F084F82081A02311223978A06C08F0D9
:10CAA000DCFD002811D1A36C218903937143280078
:10CAB0003F7809F0A3FC01231843C3B210223900C8
:10CAC000039808F0CAFD002800D0014807B0F0BD67
:10CAD0000EFCFFFFD081020070B5082583790400A9
:10CAE00086B02B4204D1FDF7EDF8A3791D43A57163
:10CAF00020004C30FFF78CF8051E0DD023005C336E
:10CB00001978062304AE009301223300A06CFEF7CF
:10CB1000F5FD051E03D0134D280006B070BD0E2391
:10CB200032786B445A70727820001A700022995E35
:10CB300064224A43A263B2785A70F2781A700022D3
:10CB4000995E64225242514361633179597071791F
:10CB5000197000215B5E5A432368E2631B6A9847A1
:10CB6000DAE7C0460EFCFFFFF8B504000F0019001D
:10CB700006AB1E8807AB15001A88FDF7E9FF0D4BC1
:10CB8000A764083323602300AA884C339A80AA79CB
:10CB90009A71094AA968E2640E22AA5661652100C9
:10CBA000A889583108801E8220009A73FFF742FF3F
:10CBB0002000F8BD30820200287F0200F0B5FA257F
:10CBC0000189234FAD0085B004006943380009F0A6
:10CBD0001AFC290004F0E2FF1E4EA17A20813000E9
:10CBE00009F011FC636CA072029323005833218971
:10CBF00001931B7869433800039309F0FFFB072377
:10CC00000343202203990298DBB208F026FD002896
:10CC10001AD1019B22221978606C102308F01DFDA7
:10CC2000002811D1019BA17A30001F78656C09F0B2
:10CC3000E5FB80235B420343232239002800DBB25B
:10CC400008F00BFD002800D0034805B0F0BDC04639
:10CC5000648202005C8202000EFCFFFF10B504003B
:10CC6000034B0833036008F032F8200010BDC046C3
:10CC7000D4820200F0B504258379040085B02B42EC
:10CC800004D1FDF71FF8A3791D43A571200048309A
:10CC9000FEF7BEFF051E0DD023005833197806237A
:10CCA00002AE0093A8223300606CFEF727FD051E3C
:10CCB00003D0144D280005B0F0BD1F200023F25E04
:10CCC000D31703409B180222B15E5B11CA170240C2
:10CCD00052180421775E3380F9170140A07A52116F
:10CCE0004343C919728049114243B18041435B42B9
:10CCF000E3612368524220009B6AA2612162984747
:10CD0000D8E7C0460EFCFFFFF8B504000F0019007D
:10CD100006AB1E8807AB15001A88FDF7BFFC0F4B4A
:10CD20006764083323602300AA8848339A80AA796D
:10CD30009A710B4AA968A2640E22AA5621652100A5
:10CD4000A889543108809A730023A37123005833B3
:10CD50001E802000FFF732FF2000F8BDD4820200C1
:10CD6000287F0200F7B5FA2504000189134EAD00B3
:10CD70006943300009F047FB290004F00FFF27004A
:10CD8000A36C208100935C373B7881B2694330000B
:10CD9000019309F033FB6022C3B20199009808F0B7
:10CDA0005CFC002807D1012362223978A06C08F0CE
:10CDB00054FC002800D00248FEBDC0460883020093
:10CDC0000EFCFFFF10B50400034B0833036008F0AE
:10CDD0004BF8200010BDC046308302007FB5082507
:10CDE000837904002B4204D1FCF76CFFA3791D4327
:10CDF000A57120004C30FEF70BFF051E0DD023005F
:10CE00005C331978062302AE0093E8223300A06C4D
:10CE1000FEF774FC051E03D00B4D280004B070BD56
:10CE20000223F25E96235B425A4362630021725EE4
:10CE300020005343A3630423F25E96235343E3632A
:10CE400023681B6A9847E8E70EFCFFFFF8B504006B
:10CE50000F00190006AB1E8807AB15001A88FDF7F6
:10CE600077FE0D4BA764083323602300AA884C3358
:10CE70009A80AA799A71094AA968E2640E22AA5690
:10CE800061652100A889583108801E8220009A73AC
:10CE9000FFF768FF2000F8BD30830200287F020002
:10CEA00010B50400054B083303601C3007F0FFFC8D
:10CEB0002000183007F0FBFC200010BD5C8302004E
:10CEC000FF23F0B52C4E8DB033700023040069466B
:10CED0000088009303F0B6F8002802D16B469B78D7
:10CEE0003370264D2B68DB68002B07D10023208888
:10CEF0001A00190008F0FBFF0DB0F0BD3378032BCA
:10CF0000F4D81F4901A8FDF793F92B6801A9DD6842
:10CF100004A807F021FD280004A908F046FF002717
:10CF2000050004A807F0C3FCBD421ED02900202242
:10CF3000103104A806F000F928000AF029FE317823
:10CF400004ABC9005918082202A806F0F5F801231D
:10CF50000822208802A908F0CAFF0137002804D15E
:10CF60000C212088074A08F0C0FF01A807F09FFCA9
:10CF7000002FBBD0C0E7C046A42000207C290020A1
:10CF8000CB8E0200FFFF0000F0B58379040091B062
:10CF90005B071BD5FDF708F900232269801A994128
:10CFA000994203D1F533FF3398420FD3A06800288C
:10CFB00008D0354B1D8801F0FFF8036815222900C1
:10CFC0001B6A98470422A3799343A371A3799B0713
:10CFD00058D52E4E3368DB68002B4FD02C4F3B7852
:10CFE000032B4BD8284B2B491B8804A80193FDF732
:10CFF0001FF9336804A9DD6808A807F0ADFC08A98B
:10D00000280008F0D2FE050008A807F050FC08230D
:10D0100002AAD3800198073B063206A908F069FFEF
:10D02000002D08D029002022103108A806F084F82D
:10D0300028000AF0ADFD3D7802ABDA88ED0008ABC0
:10D040005D19280006A906F053F8002813D008221D
:10D05000280006A906F070F8336804A9DD6805A861
:10D0600007F07AFC2023280008AA05A908F0A3FEEF
:10D0700005A807F01CFC04A807F019FC0222A379FC
:10D080009343A37111B0F0BD9C2D00207C2900209A
:10D09000A4200020CB8E0200F0B50400150085B05E
:10D0A00001930AAB1F880BAB1B78461C02930EAB97
:10D0B0001B78102203930B7803704B8A0131438253
:10D0C000300006F039F8656100250122019B2783B5
:10D0D0006383039BE5832377029B2000F377A31CE4
:10D0E000DA770C9B0C26636223000D9A2833290003
:10D0F0001A705D7032009D702C3006F0C5F820006B
:10D10000064B3200A3632900E563403006F0BCF80B
:10D110002000034B2565E36405B0F0BD095F020004
:10D12000FB5E020070B50D0001F046F804000368D4
:10D13000002D09D15B699847FA20800068430749B0
:10D1400004F02CFDE08070BD9B6898478542F3D2C7
:10D15000236820009B6898470500EDE771020000F6
:10D16000F0B507001500A1B002C706006B4918A86A
:10D170001C0008F0C1FF2B1E03D0280006F04EFB58
:10D1800083B201220492002203920292023201929F
:10D1900000932A0018A93800FFF77EFF330060498A
:10D1A000583318A8079308F0A7FF231E03D02000C8
:10D1B00006F034FB83B20122049200220392029211
:10D1C000023201920093220018A90798FFF764FF2A
:10D1D00033005449AC3318A8089308F08DFF269B00
:10D1E000002B03D0180006F019FB83B20122049231
:10D1F000002203920292023201920093269A18A909
:10D200000898FFF749FF731CFF33474918A8099393
:10D2100008F072FF279B002B03D0180006F0FEFADF
:10D2200083B2012204920022701C03920292023205
:10D2300001920093279A18A9FF30FFF72DFF3300C2
:10D240005533FF33394918A8099308F055FF289B37
:10D25000002B03D0180006F0E1FA83B201220492F9
:10D26000002203920292023201920093289A18A996
:10D270000998FFF711FF3300A933FF332C4918A891
:10D280000A9308F039FF299B002B03D0180006F001
:10D29000C5FA83B201220492002218AC03920292D2
:10D2A0000232019200932100299A0A98FFF7F4FEB6
:10D2B000204B1B780B93002B2DD1079B1E491393FA
:10D2C000089B0DA81493731CFF331593099B1297A9
:10D2D00016930A9B12AD179308F00EFF1D214920EB
:10D2E00006AB1B7F1022237006ABDB8D638206AB7F
:10D2F000C918C01805F020FF062323750B9B1E9547
:10D300003068A38300F068FF036821001B6898471A
:10D310000122084B1A70300021B0F0BD292A00000C
:10D32000242A0000252A0000272A0000262A0000BF
:10D33000282A00001D2E00200A18000070B50025C4
:10D3400004000B4B8580083385710360C160183081
:10D35000FCF7D8FF20001C30FCF7D4FF0123621C2F
:10D36000D377044A2000A56065611460A37170BD85
:10D370005C8302007C290020FA2130B585B00400CE
:10D38000012302226846890007F03AFB074D28680E
:10D39000002809D008F0BCFE2188054B2A681980B6
:10D3A000022391790B43937105B030BD7C29002095
:10D3B0009C2D002010B50C0007290FD8806800F0C4
:10D3C000FBFE074B195703685B6C98474342584173
:10D3D000044B40421840044BC01810BD0348FCE702
:10D3E00055900200EA03000016FCFFFF17FCFFFF48
:10D3F000F0B5A04C0D00A544040007939AAB1B7830
:10D400009D4909A804930692FCF712FF2000290009
:10D410001C3007F0A9FAC020800000F0C7FF0820E8
:10D420000AF0BAFB060000210EAF09F064F815AD52
:10D430000C220021A660380005F026FF2B0007CF44
:10D4400007C38E4B2900EB60002330002B6109F0ED
:10D450003BF8A06800F0B0FE08220021059016A855
:10D4600005F012FF14200AF097FB854B2A00159354
:10D470000300C2CAC2C3834B059EC3600023A0360B
:10D4800003617368002B00D0EEE07060A06800F0CC
:10D49000A3FE08220021060016A805F0F5FE1420C0
:10D4A0000AF07AFB784B1593030086CD86C3774B41
:10D4B000C36000230361336B002B00D0D6E03063E0
:10D4C000A06800F079FE08220021059016A805F05A
:10D4D000DBFE14200AF060FB6D4B15AD15932A009E
:10D4E0000300C2CAC2C36B4B059EC36000239436BF
:10D4F00003617368002B00D0BAE07060012604ABB2
:10D500001B7C04AA334308A93000137408F0F3FC11
:10D51000A06800F071FE03685F495B6A9847A068E5
:10D5200000F06AFE03685D499B699847A06800F0B7
:10D5300063FE002302680093176804993200B8471D
:10D54000049B002B0AD0200008F0EBFD032805DD2A
:10D55000A06800F051FE0368DB68984700260EAF14
:10D56000B819073608F019FD1C2EF8D1183E04AB87
:10D57000A0685E770A9700F03FFE03680AA91B695E
:10D580009847A06800F018FE03680AA95B6D9847E9
:10D59000A06800F011FE03680021DB6D9847A068C9
:10D5A00000F00AFE036802219B6D984700212000CD
:10D5B000FFF700FF18200AF0EFFAA16800F054FA14
:10D5C000374B384A1B68A1680393374B28001B6808
:10D5D00000250293354B1B680193069B1B689B1922
:10D5E0000093334B12681B68FFF7BAFD30200AF036
:10D5F000D3FA079AA16800F0F9FAA06800F0DCFD00
:10D6000003680CA99B6A9847082304AA1384A0689E
:10D61000DB185384958400F0CFFD03680CA9DB6A06
:10D6200098473100A06808F03AFD099A09219378DB
:10D63000A068921908F046FDA06800F0BDFD3221F7
:10D640000571A068FFF76EFD04AB1B7FAB4204D0F1
:10D65000A06800F0B1FD08F096FC09A807F027F9D2
:10D6600095239B009D44F0BD03610EE7036126E70F
:10D67000036142E7ACFDFFFFD78E0200175F020097
:10D6800079D30100255F0200C1CE0100335F0200A3
:10D69000615F0200415F0200B5D60100E9D60100DA
:10D6A00078290020742900200820002070290020FB
:10D6B0000C20002013B506226846FCF7F9FD094B43
:10D6C0001C68002C0AD0694601A807F045F9200023
:10D6D00001A908F040FD01A807F0E9F8684607F045
:10D6E000E6F813BD7C290020002373B501AE0C00C1
:10D6F00031000500019302F0A5FC002802D1B278A8
:10D70000064B1A70064B1868002806D0054B1D8082
:10D7100063425C41E1B208F026FD73BDA420002005
:10D720007C2900209C2D002030B5284CA9B06A220D
:10D730000D000DA8210005F0FFFC0DA903A8FCF7C2
:10D7400031FE03A906A807F08BF901230193013BE1
:10D75000FF3B00930533FF33642206A92800FDF741
:10D7600073FF06A807F06FF9210019226A3106A895
:10D7700005F0E2FC05220024110006AB04A807F026
:10D7800096F904A905A807F06BF9230022002800E8
:10D790000194009405A9FDF799FE05A807F053F937
:10D7A00021002800FDF780FF05340520FCF728FB49
:10D7B000FF2CF5D1FA208000FCF722FB04A807F02B
:10D7C00042F903A807F03FF929B030BDD28F02001B
:10D7D000F0B59C4B95B005921A68082304000F0021
:10D7E000D16C06A80B43D3649749FCF721FD9749F8
:10D7F00007A8FCF71DFD220000250DAE30001C32ED
:10D8000006A907F0D0F8310007AA08A807F0CBF85E
:10D81000300007F04CF8631CDD77A06800F0CCFC0A
:10D8200003685B6998477019073508F0B6FB1C2D33
:10D83000F9D180230BADDB00AB80A0680B9600F024
:10D84000BBFC036829005B6D9847A06800F0B4FC3E
:10D85000036800219B6D9847A06800F0ADFC0300B1
:10D86000002506000A331F2200211800039305F04B
:10D870000BFD039B3000DD7708F07CFB0621A068E0
:10D8800008F00DFC089A09219378A068043208F08A
:10D8900019FCA06800F090FCC8210571A068FFF792
:10D8A00041FCA06800F088FC0581A06800F084FCC1
:10D8B00008F069FB3800FDF79BFD2000FCF702FA39
:10D8C00039002000FFF730FF3900200008F05EFC2F
:10D8D000FF23049503936269012316001E401A4238
:10D8E00032D05B4909A8FCF7D7FD09A90AA807F0BF
:10D8F000B7F800220AA91300019200923800FDF740
:10D90000E5FD0AA807F09FF8049B002B47D1039B75
:10D91000043B0393039B282B44DC380007F090FE64
:10D92000039B002B00DC0496059807F089FA002879
:10D9300006D0012362699A431300042213436361F2
:10D9400009A807F080F8002504226369134234D047
:10D95000FF213800C826FDF7A7FE0025B600A36901
:10D9600002229B5EAB4223DD200029B2183007F073
:10D9700030F80023010038001A007430FCF7DCFD99
:10D980003000FCF73DFA380007F05AFEC820FCF7DB
:10D9900037FA0222636913420AD10135DFE7039B9C
:10D9A0000433B6E7039BFE2BBEDD00230493BBE7E5
:10D9B000FA208000FCF724FA002502226369134252
:10D9C0001ED01E0006321640134224D0214909A859
:10D9D000FCF762FD09A90AA807F042F800220AA98B
:10D9E0001300019200923800FDF770FD0AA807F0BD
:10D9F0002AF81948FCF704FA09A807F024F8174D8B
:10DA00006420FCF7FDF9164B01359D4200DC62E70E
:10DA100006F0F7FD5FE7134909A8FCF73DFD09A9EA
:10DA20000AA807F01DF8330032000AA93800019651
:10DA30000096FDF74BFD0AA807F005F809A807F0C6
:10DA400002F8DDE700290020E58E0200F58E0200D5
:10DA5000F78E02003C8F0200983A00008C0A00000A
:10DA60008B0A0000798F02005A4BF0B5083303602F
:10DA7000816004002520A9B002AB10220391C018D8
:10DA8000002105F001FC0BAE012332005248337037
:10DA90000E33195C01321170013BFAD2312202AB14
:10DAA000D218537811781B020B43252113AD2200A5
:10DAB0006B8202ABC91845230C32029202A832785D
:10DAC0001B1818002A70102205F036FB029B6421F7
:10DAD00018930A230026012702AA521813705B1814
